:020000040800F2
:100000003008002029020008A5120008A3050008F6
:100010004911000863030008D32500080000000010
:10002000000000000000000000000000991B000814
:1000300067030008000000004D1A0008511D000869
:10004000430200084302000843020008430200087C
:10005000430200084302000843020008430200086C
:10006000430200084302000843020008430200085C
:10007000430200084302000843020008430200084C
:10008000430200084302000843020008430200083C
:10009000430200084302000843020008430200082C
:1000A000430200084302000843020008430200081C
:1000B000E51E00084302000843020008430200084E
:1000C00043020008430200084302000843020008FC
:1000D00043020008212400084302000843020008EC
:1000E00043020008430200084302000843020008DC
:1000F00043020008430200084302000843020008CC
:1001000043020008430200084302000843020008BB
:1001100043020008430200084302000843020008AB
:10012000430200084302000843020008430200089B
:10013000430200084302000843020008430200088B
:10014000430200084302000843020008430200087B
:10015000430200084302000843020008430200086B
:10016000430200084302000843020008430200085B
:10017000430200084302000843020008430200084B
:10018000430200084302000800F002F800F03CF8C7
:100190000AA090E8000C82448344AAF10107DA45E2
:1001A00001D100F031F8AFF2090EBAE80F0013F0F8
:1001B000010F18BFFB1A43F0010318477C4C0000E5
:1001C0009C4C0000103A24BF78C878C1FAD8520776
:1001D00024BF30C830C144BF04680C6070470000C1
:1001E0000023002400250026103A28BF78C1FBD840
:1001F000520728BF30C148BF0B6070471FB504F0DD
:1002000074FA1FBD10B510BD00F076F81146FFF767
:10021000F5FF03F0D7F800F094F803B4FFF7F2FF0E
:1002200003BC00F097F800000948804709480047E0
:10023000FEE7FEE7FEE7FEE7FEE7FEE7FEE7FEE796
:10024000FEE7FEE704480549054A064B70470000F3
:10025000591D0008890100083002002030080020E4
:10026000300400203004002010B5203AC0F00B808C
:10027000B1E81850203AA0E81850B1E81850A0E8AA
:100280001850BFF4F5AF5FEA027C24BFB1E8185004
:10029000A0E8185044BF18C918C0BDE810405FEA74
:1002A000827C24BF51F8043B40F8043B08BF7047F0
:1002B000D20728BF31F8023B48BF11F8012B28BFF5
:1002C00020F8023B48BF00F8012B70477047704789
:1002D000704710B500F008F8006810BD10B504466E
:1002E00000F002F8046010BD00487047CC01002007
:1002F00000487047CC0100207546FFF7F9FFAE4675
:1003000005006946534620F00700854618B020B521
:10031000FFF798FFBDE820404FF000064FF00007C0
:100320004FF000084FF0000B21F00701AC46ACE89D
:10033000C009ACE8C009ACE8C009ACE8C0098D460A
:10034000704710B50446AFF300802046BDE810406A
:10035000FFF763BF01491820ABBEFEE7260002008D
:10036000704700BFFEE77047C0EBC00303EB4302DA
:10037000114600E0491E0029FCDA70471CB5012136
:10038000084601F065FB01208DF8040000208DF87F
:1003900006002020009000208DF8070002208DF834
:1003A00005006946014800F003F81CBD000002404A
:1003B000F0B50A4600210023002400BF3DE00125DE
:1003C00005FA01F3156805EA03049C4234D1056877
:1003D0004F000326BE40B543056015794E00B54079
:1003E0000668354305601579012D02D01579022D77
:1003F00016D185684F000326BE40B5438560557908
:100400004E00B540866835438560456801268E40BC
:10041000B5434560456896798E40B6B23543456030
:10042000C5684F000326BE40B543C560D5794E0070
:10043000B540C6683543C560491C1029BFD3F0BD1F
:10044000F0B5002300244D07ED0E02FA05F3CE109F
:1004500000F1200555F826504E07F70E0F26BE4036
:10046000B543CF1000F1200646F82750CE1000F11A
:10047000200555F8265045EA0304CE1000F120056A
:1004800045F82640F0BD0246002013690B400BB131
:10049000012000E000207047018370470AB101830A
:1004A00000E0418370472DE9F04706460F4690462D
:1004B000032000F040F80446042000F03CF8054614
:1004C00045EA04200FFA80F9A6F80090072000F012
:1004D00032F80446082000F02EF8054645EA0420CC
:1004E0000FFA80F9A7F80090052000F024F80446E0
:1004F000062000F020F8054645EA042000B2A8F8DE
:100500000000BDE8F08710B500F020FE00216A2051
:1005100000F003FE0221372000F0FFFD182100202B
:1005200000F028F86021012000F024F800210220CA
:1005300000F020F810BD70B5044600F07EFE3C20AF
:1005400000F066FE00F030FE204600F061FE00F094
:100550002BFE00F072FE3D2000F05AFE00F024FE5B
:1005600000F030FE0546012000F046FE00F073FE6C
:10057000284670BD70B505460C4600F05EFE3C2076
:1005800000F046FE00F010FE284600F041FE00F0AC
:100590000BFE204600F03CFE00F006FE00F05BFE85
:1005A00070BD00BFFEE708B50020009002E0009893
:1005B000401C009000980828F9DB08BD034890ED26
:1005C000000AF0EE000A20EE200A704758000020D2
:1005D00010B580B11A4BB3F906301A4CB4F900408B
:1005E000234400EE103AB8EEC00ADFED170A20EE01
:1005F000200A80ED000A81B1114BB3F90830134C89
:10060000B4F90040234400EE103AB8EEC00ADFED22
:100610000E0A20EE200A81ED000A82B1084BB3F9E0
:100620000A300B4CB4F90040234400EE103AB8EE07
:10063000C00ADFED050A20EE200A82ED000A10BD97
:10064000E40000206A000020DE3B8B3A6C000020B2
:100650006E00002070B52DED108BA8B004460D463D
:100660001646FE4890ED000A20EE000AB0EE408AE1
:1006700090ED000AFA48D0ED000A20EE200AB0EE14
:1006800040DAF64890ED000AF648D0ED000A20EE78
:10069000200AF0EE40BAF14890ED000AF248D0EDA1
:1006A000000A20EE200AF0EE40DAED4890ED000A54
:1006B00020EE000AF0EE408A90ED000AE948D0ED05
:1006C000000A20EE200AB0EE40EAE54890ED000A6C
:1006D000E548D0ED000A20EE200AB0EE40CAE1481D
:1006E00090ED000A20EE000AB0EE409A90ED000A6C
:1006F000DD48D0ED000A20EE200AF0EE40EA90ED51
:10070000000A20EE000AF0EE409AD848D849D94BAA
:10071000D94ACDE90010D949D94800F069FCD94A35
:10072000D949DA48FFF7BFFED948B0F90200D449E9
:10073000B1F90010084400EE100AB8EEC00ADFED6F
:10074000D50A20EE200A8DED260AD148B0F9040022
:10075000CA49B1F90010084400EE100AB8EEC00A08
:10076000DFEDCC0A20EE200A8DED250AC248B0F953
:10077000000000EE100AB8EEC00ADFEDC60A20EE57
:10078000200A8DED240AC248B0F90600B949B1F932
:100790000010084400EE100AB8EEC00ADFEDBE0AF1
:1007A00020EE200AB0EE40FAB948B0F90800B0498E
:1007B000B1F90010084400EE100AB8EEC00ADFEDEF
:1007C000B60A20EE200AF0EE40FAB148B0F90A006D
:1007D000A649B1F90010084400EE100AB8EEC00AAC
:1007E000DFEDAD0A20EE200A8DED230AA748B0F90F
:1007F000000000EE100AF8EEC00A9FEDA81A9FED67
:10080000A80A10EE810A8DED220A9F48B0F9000077
:1008100000EE100AF8EEC00A9FEDA01A9FEDA10AA3
:1008200000EE810A8DED210A9648B0F9000000EE35
:10083000100AB8EEC00ADFED990A20EE200A8DED0D
:10084000200A24AB25AA26A9974803F025F820AB57
:1008500021AA22A9944803F01FF8804890ED000ACD
:100860008048D0ED000A9DED261A00EE810A7C48F2
:10087000D0ED000A9DED251A00EEC10A7748D0EDB3
:10088000000A9DED241A00EEC10AF0EE000A20EEE7
:10089000200A8DED1C0A724890ED000A7248D0EDD6
:1008A000000A9DED261A00EEC10A6C48D0ED000A40
:1008B0009DED251A00EEC10A6948D0ED000A9DEDB4
:1008C000241A00EE810AF0EE000A20EE200A8DEDD7
:1008D0001D0A644890ED000A6048D0ED000A9DEDC5
:1008E000261A00EE810A6048D0ED000A9DED251A17
:1008F00000EEC10A5B48D0ED000A9DED241A00EE1F
:10090000810AF0EE000A20EE200A8DED1E0A5648FC
:1009100090ED000A5248D0ED000A9DED261A00EE37
:10092000C10A5048D0ED000A9DED251A00EEC10A1B
:100930004D48D0ED000A9DED241A00EEC10AF0EEFC
:10094000000A20EE200A8DED1F0A38EE280A30EE4C
:10095000490A30EE690ADDED220A20EE200A7EEE19
:100960006D0AB0EE001A60EE810A9DED211A00EECC
:10097000810A7CEE2B0AB0EE001A60EE810A9DED32
:10098000201A00EE810A8DED130A3EEE2D0AF0EEDC
:10099000000A20EE200ADDED220A20EE200A78EE81
:1009A000680A70EE890A70EEE90A9DED211A00EEE0
:1009B000810A7EEECD0AB0EE001A60EE810A9DED4E
:1009C000201A00EE810A8DED120A3CEE6B0AF0EE61
:1009D000000A20EE200ADDED220A20EE200A7EEE3B
:1009E0008D0AB0EE001A60EE810A9DED211A00EE2C
:1009F000810A78EE680A70EEC90A70EEA90A9DEDC8
:100A0000201A00EE810AB0EE40AA9DED130A60EEB6
:100A1000000A9DED120A40EE000A10EE901A0846F8
:100A200003F0F2FDCDE904019DED040B02F000FAA4
:100A30008DED060B9DED060B51EC100B03F0F2F85B
:100A40000AEE900AB0EE4ABA044890ED000A20EE91
:100A50002A0A8DED110A024828E000003800002023
:100A60003C00002040000020440000206E000020D8
:100A70006C0000206A000020680000206600002052
:100A800064000020840000208200002080000020FC
:100A9000E400002040DAFF38DE3B8B3AAF7F703A4B
:100AA000EC51B83D9A99193E6000002090ED000A83
:100AB00020EE2A0A8DED100AFE4890ED000A20EE85
:100AC0002A0A8DED0F0AFC4890ED000A20EE2A0A52
:100AD0008DED0E0AF94890ED000A20EE0B0A8DED1F
:100AE0000D0AF74890ED000A20EE0B0A8DED0C0A76
:100AF000F04890ED000A20EE0B0A8DED0B0AEE484F
:100B000090ED000A20EE0B0A8DED0A0A38EE280A55
:100B100030EE490A30EE690A20EE2A0A7CEE6B0AB2
:100B2000B0EE001A60EE810A00EE8B0ADDED220ABB
:100B300030EE600A8DED090A3EEE6D0AF0EE000A15
:100B400020EE200A20EE2A0A7DEE2E0AB0EE001AD0
:100B500060EE810A00EE8B0ADDED210A30EE600ABC
:100B60008DED080A3BEE8C0AF0EE000A20EE200A1A
:100B700020EE2A0A78EE680A70EEC90A70EEA90A19
:100B800000EE8B0ADDED200A70EE60CA9DED110AC1
:100B9000DDED0B0A70EE600A9DED090A20EE800A79
:100BA000DDED0C0A9DED0E1A30EEC11ADDED080ADE
:100BB00001EE200ADDED0F0A9DED0D1A70EE810A9F
:100BC00000EEAC0AF0EE000A20EE200A8DED180AC5
:100BD0009DED100ADDED0A0A70EE200A9DED090A6E
:100BE00020EE800ADDED0F0A9DED0D1A30EE811A20
:100BF000DDED080A01EE200ADDED0E0A9DED0C1A6E
:100C000070EEC10A00EEAC0AF0EE000A20EE200AF7
:100C10008DED190A9DED0F0AF1EE400A9DED0D0ACA
:100C200070EEC00A9DED090A20EE800ADDED100A83
:100C30009DED0A1A30EE811ADDED080A01EE200A58
:100C4000DDED110A9DED0B1A70EEC10A00EEAC0A43
:100C5000F0EE000A20EE200A8DED1A0A9DED0C0A36
:100C6000DDED0E0A70EE600A9DED090A20EE800AA5
:100C7000DDED0B0A9DED111A30EEC11ADDED080A0B
:100C800001EE200ADDED100A9DED0A1A70EE810AD0
:100C900000EEAC0AF0EE000A20EE200A8DED1B0AF1
:100CA000B1EE4F0A8648D0ED000A20EE200A8148B6
:100CB000D0ED000A0FEEE00ADDED230A7E4890ED4C
:100CC000001A00EEC10A7F4890ED001A7B48D0ED73
:100CD000000A40EE010ACDED140A90ED000A2FEE55
:100CE000000ADDED230A734890ED001A00EE810A38
:100CF0007148D0ED000A0FEEE00A724890ED001A3C
:100D00006F48D0ED000A40EE010ACDED150A6B48A0
:100D100090ED000A2FEE800ADDED230A684890ED81
:100D2000001A00EEC10A6448D0ED000A0FEE200A56
:100D3000644890ED001A5F48D0ED000A40EE010AC9
:100D4000CDED160A9DED230A5C48D0ED000A20EE99
:100D5000200A5B48D0ED000A0FEEA00A5548D0EDFE
:100D6000000A0FEE600A574890ED001A5248D0ED85
:100D7000000A40EE010ACDED170A9DED1C0ADDEDDB
:100D8000180A30EE200A504880ED000A9DED1D0A39
:100D9000DDED190A30EE200A4C4880ED000A9DED89
:100DA0001E0ADDED1A0A30EE200A494880ED000ADD
:100DB0009DED1F0ADDED1B0A30EE200A454880ED4F
:100DC000000A0346424A41493F4802F065FD9DED55
:100DD000140A4148D0ED000A3B4890ED001A60EE3D
:100DE000810A384890ED001A60EE810AB0EE001AD0
:100DF00000EEC10A314880ED000A9DED150A364823
:100E0000D0ED000A314890ED001A60EE810A2D48BD
:100E100090ED001A60EE810AB0EE001A00EEC10AF1
:100E2000274880ED000A9DED160A2B48D0ED000AF8
:100E3000274890ED001A60EE810A224890ED001AD2
:100E400060EE810AB0EE001A00EEC10A194880ED8A
:100E5000000A9DED170A2048D0ED000A1D4890EDCC
:100E6000001A60EE810A174890ED001A60EE810AC0
:100E7000B0EE001A00EEC10A0F4880ED000A0346EA
:100E80000C4A0F490D4802F007FD38EE680A30EEB3
:100E9000490A30EE290A10EE101A084603F0B4FB96
:100EA000B0EE000A2EEE800AF0EE000A00EE8D0A87
:100EB00014E0000040000020440000203800002022
:100EC0003C00002058000020480000204C0000207A
:100ED00050000020540000205C000020CDE90201F9
:100EE00010EE101A084603F08FFBCDE900019DEDCE
:100EF000021B9DED000B01F0A3FE8DED040B9FED99
:100F00003A0B53EC102B9DED040B51EC100B03F03E
:100F1000BBF8CDE906019DED060B51EC100B02F07C
:100F200081FE28607BEECC0AB0EE000A20EE800A3B
:100F300010EE101A084603F067FBCDE902019DEDA3
:100F4000020B01F061FB8DED040B9FED270B53ECC1
:100F5000102B9DED040B51EC100B03F095F8CDE92F
:100F600006019DED060B51EC100B02F05BFE2060BC
:100F700038EE280A30EE490A30EE690A10EE101AEF
:100F8000084603F041FBB0EE000A2DEE800AF0EEB9
:100F9000000A00EE8E0ACDE9020110EE101A084692
:100FA00003F032FBCDE900019DED021B9DED000B2E
:100FB00001F046FE8DED040B9FED0B0B53EC102B57
:100FC0009DED040B51EC100B03F05EF8CDE906012A
:100FD0009DED060B51EC100B02F024FE306028B0A2
:100FE000BDEC108B70BD00000000006066A64C4098
:100FF0002DE9F05F06460F4690469946DDE90AABBB
:101000003B2000F06BF804463C2000F067F80546F2
:1010100045EA042000B230803D2000F05FF804462D
:101020003E2000F05BF8054645EA042000B2388017
:101030003F2000F053F80446402000F04FF80546EA
:1010400045EA042000B2A8F80000432000F046F86A
:101050000446442000F042F8054645EA042000B268
:10106000A9F80000452000F039F80446462000F0B9
:1010700035F8054645EA042000B2AAF800004720EA
:1010800000F02CF80446482000F028F8054645EA10
:10109000042000B2ABF80000BDE8F09F10B500F0EE
:1010A00055F801216B2000F038F800216C2000F089
:1010B00034F80921192000F030F806211A2000F038
:1010C0002CF818211B2000F028F808211C2000F023
:1010D00024F880216A2000F020F810BD70B5044685
:1010E00000F0ABF8D02000F093F800F05DF8204657
:1010F00000F08EF800F058F800F09FF8D12000F0D2
:1011000087F800F051F800F05DF80546012000F086
:1011100073F800F0A0F8284670BD70B505460C467F
:1011200000F08BF8D02000F073F800F03DF828466E
:1011300000F06EF800F038F8204600F069F800F092
:1011400033F800F088F870BD00BFFEE71CB5012140
:10115000022000F07DFC01208DF804008DF80600CF
:101160004FF44070009000208DF8070001208DF8AA
:10117000050069460448FFF71BF94FF44071024827
:10118000FFF78AF91CBD00000004024010B54FF4BF
:1011900000710448FFF777F904460A20FFF7E4F8E6
:1011A000204610BD0004024010B5012000F06CF88C
:1011B000012000F05BF8FFF7E9FF0446002000F093
:1011C00055F810BD70B50025012000F05DF8002431
:1011D0000EE0012000F04AF8FFF7D8FF012802D105
:1011E000802020410543002000F040F8601CC4B27C
:1011F000082CEEDB284670BD10B50446204600F0F2
:1012000043F8012000F032F8002000F02FF810BD64
:1012100070B5054600240DE08021214101EA05005A
:1012200000F032F8012000F021F8002000F01EF854
:10123000601CC4B2082CEFDB70BD10B5012000F0BB
:1012400023F8012000F012F8002000F01DF8002023
:1012500000F00CF810BD10B5002000F015F80120CA
:1012600000F004F8012000F00FF810BD10B504469E
:1012700022464FF480710348FFF710F90A20FFF768
:1012800073F810BD0004024010B5044622464FF426
:1012900000710348FFF702F90A20FFF765F810BD57
:1012A000000402407047000070B5002100230F22A7
:1012B000C4781CB3174C246804F4E064C4F5E064FB
:1012C000C4F30721C1F10404E3B20A4144789C400D
:1012D000E1B28478144021430C07210E0E4C0578AE
:1012E0006155047804F01F050124AC4005786D11A8
:1012F000AD0005F1E025C5F8004109E0047804F0EF
:101300001F050124AC40054D0678761145F82640AE
:1013100070BD00000CED00E000E400E080E100E0C2
:1013200002490143024A1160704700000000FA05BB
:101330000CED00E070B500240EE00021204600F026
:10134000FCF8002504E0002000F088F9681CC5B214
:10135000802DF8DB601CC4B2082CEEDB70BD0000F1
:101360001CB50121022000F073FB01208DF8040060
:101370008DF806004FF48160009000208DF8070082
:1013800001208DF8050069460648FFF711F8012293
:1013900091020448FFF782F8012208210148FFF773
:1013A0007DF81CBD0004024070B5054600241AE01B
:1013B0008020204100EA050208211448FFF76EF85A
:1013C000FFF7F1F8012291021048FFF767F8FFF7E5
:1013D000EAF800224FF480610C48FFF75FF8FFF74E
:1013E000E2F8601CC4B2082CE2DB0122910207483B
:1013F000FFF754F8FFF7D7F800224FF48061034855
:10140000FFF74CF8FFF7CFF870BD00000004024072
:1014100010B5012208210D48FFF740F80122910282
:101420000A48FFF73BF8FFF7BEF8002208210748FB
:10143000FFF734F8FFF7B7F800224FF48061034854
:10144000FFF72CF8FFF7AFF810BD000000040240D2
:1014500010B5002208210748FFF720F80122910269
:101460000448FFF71BF8012208210248FFF716F88D
:1014700010BD00000004024070B5002406E0002505
:1014800000E06D1CB5F57A7FFBD3641CB4F57A7F60
:10149000F5D3FFF765FFAE2000F0D0F8D52000F0BF
:1014A000CDF8802000F0CAF8A82000F0C7F83F204F
:1014B00000F0C4F8D32000F0C1F8002000F0BEF81E
:1014C000402000F0BBF8A12000F0B8F8C82000F0E0
:1014D000B5F8DA2000F0B2F8122000F0AFF8812061
:1014E00000F0ACF8CF2000F0A9F8D92000F0A6F861
:1014F000F12000F0A3F8DB2000F0A0F8302000F08D
:101500009DF8A42000F09AF8A62000F097F88D200E
:1015100000F094F8142000F091F8AF2000F08EF85D
:10152000FFF708FF70BD10B50246012000E05043F0
:101530000B1EA1F10101FAD110BD70B505460C4694
:1015400045F0B00000F07AF8102141EA141000F0E4
:1015500075F804F00F0000F071F870BD2DE9F0414E
:1015600005460E461746721ED206110E6A1E520618
:10157000100EFFF7E2FF002409E0A7F12001134A53
:1015800002EB0111085D00F069F8601CC4B2082C80
:10159000F3DB721ED206110E6A1E012303EB420218
:1015A000D0B2FFF7CAFF00240BE0A7F12001074AE1
:1015B00002EB011204F10801505C00F04FF8601CCE
:1015C000C4B2082CF1DBBDE8F0810000FE46000843
:1015D0002DE9F04780460E4617461D46002415E0CB
:1015E000281B411E0A20FFF79EFFB7FBF0F00A21DF
:1015F000B0FBF1F201FB120000F130093019C1B269
:101600004A464046FFF7AAFF601CC4B2AC42E7DB83
:10161000BDE8F0872DE9F04107460E461546002447
:1016200007E02A5D3019C1B23846FFF797FF601C0A
:10163000C4B2285D0028F4D1BDE8F08110B504469D
:10164000FFF7E6FE7820FFF7AFFE0020FFF7ACFEC5
:101650002046FFF7A9FEFFF7FBFE10BD10B50446BC
:10166000FFF7D6FE7820FFF79FFE4020FFF79CFE95
:101670002046FFF799FEFFF7EBFE10BDFEB50446CE
:101680000D461646002016E005EB800191ED000A9C
:10169000F7EE000A20EE200A314901EB8001D1ED7E
:1016A000000A9FED301A01EE200A2D4901EB80015E
:1016B00081ED000A401C0328E6DB002010E004EB6B
:1016C000800191ED000A264901EB8001D1ED000A6D
:1016D00030EE600A694601EB800181ED000A401C92
:1016E0000328ECDBDFED200A204890ED000A694674
:1016F0001F4802F03BF91E4890ED100A1D48D0ED3E
:10170000010A30EE600A8DED010A194890ED110AC8
:101710001848D0ED000A30EE600A8DED020A94ED13
:10172000000AD0ED020A30EE600A8DED000AF7EEF5
:10173000080A0E4890ED000A69460F4802F016F9B3
:1017400000200AE00C493C3101EB800191ED000AD8
:1017500006EB800181ED000A401C0328F2DBFEBD90
:10176000C001002000000000CDCCCC3EB80000201D
:1017700030010020240100207801002000200EE02C
:101780009FED080A084901EB800181ED000A9FEDF9
:10179000050A064901EB800181ED000A401C03287F
:1017A000EEDB70470000000060010020A80100206F
:1017B000014880ED000A7047B8000020034880ED22
:1017C000000AC0ED010A80ED021A704724010020D2
:1017D000DFED0B1A61EE211AC0ED001ADFED081AD9
:1017E00060EE211AC0ED011ADFED051A60EEA11AB4
:1017F000C0ED021AD0ED001A0249C1ED001A70477F
:1018000035FA8E3CBC00002000B589B001210846A5
:1018100000F01EF90121084600F02AF901221146C4
:101820002C48FEF70DFE02208DF8200007908DF861
:10183000230003208DF8210007A92648FEF7B8FDF4
:101840000020ADF81800ADF812005320ADF81000DC
:101850004FF6FF70059000208DF81A0004A94FF094
:10186000804000F08FFD0420ADF804000F20ADF89B
:101870000C000020ADF80600ADF80A000120ADF81C
:10188000080001A9800700F0A4FB60214FF0804010
:1018900000F031FD0421080700F036FD012204218B
:1018A000080700F0CDFB4FF4A060FFF739FD1C20C6
:1018B0008DF8000001208DF803008DF801008DF8EF
:1018C00002006846FFF7F0FC0121880700F072FB78
:1018D00009B000BD0000024000B58DB0012102201A
:1018E00000F0C6F80121084600F0B2F801210220FC
:1018F00000F0AEF8022206213D48FEF7A1FD0222CB
:1019000007213B48FEF79CFD022200213948FEF7E3
:1019100097FD022201213748FEF792FD02208DF843
:10192000300000208DF8320001208DF83300C020F7
:101930000B9002208DF831000BA92D48FEF738FDE1
:1019400002208DF8280000208DF82A0001208DF853
:101950002B000320099002208DF8290009A92548B1
:10196000FEF726FD244800F074FB0020ADF82000AF
:10197000ADF81A0041F2873007905320ADF81800F7
:1019800000208DF8220006A91B4800F0FBFC602017
:10199000ADF804000020ADF810000120ADF80600FD
:1019A0000020039001A9144800F05AFB08211248B6
:1019B00000F094FB01A9104800F09AFB08210E48A2
:1019C00000F0E8FB01A90C4800F0F2FB08210A48EE
:1019D00000F03EFC01A9084800F044FC082106483C
:1019E00000F07CFC0121044800F0E4FA0DB000BDD9
:1019F00000000240000402400004004010B504460C
:101A00002146024800F089FC10BD0000000400409F
:101A100010B504462146024800F081FC10BD0000CC
:101A20000004004010B504462146024800F079FC4D
:101A300010BD00000004004010B5044621460248D5
:101A400000F071FC10BD0000000400407047000071
:101A500029B1064A12680243044B1A6004E0034AA3
:101A600012688243014B1A60704700003038024010
:101A700029B1064A12680243044B1A6004E0034A83
:101A800012688243014B1A607047000040380240E0
:101A900029B1064A12680243044B1A6004E0034A63
:101AA00012688243014B1A607047000044380240BC
:101AB000F0B5002100220024022500260223324F27
:101AC0003F6807F00C0121B1042905D0082937D15E
:101AD00005E02E4F076036E02D4F076033E02A4FB8
:101AE0003F1F3F68C7F38056274F3F1F3F6807F0EF
:101AF0003F036EB1264FB7FBF3F7DFF88CC0ACF1B4
:101B0000040CDCF800C0CCF3881C07FB0CF40CE0E0
:101B10001E4FB7FBF3F7DFF870C0ACF1040CDCF834
:101B200000C0CCF3881C07FB0CF4174F3F1F3F6825
:101B3000C7F301477F1C7D00B4FBF5F7076002E0A7
:101B4000124F076000BF00BF0F4F3F6807F0F00162
:101B50000909104F7A5C0768D74047600A4F3F6811
:101B600007F4E051890A0B4F7A5C4768D7408760D9
:101B7000054F3F6807F46041490B064F7A5C4768A0
:101B8000D740C760F0BD0000083802400024F400D0
:101B900000127A00000000207047000000B587B0F6
:101BA00001211020FFF774FF01210846FFF750FFC5
:101BB000072209212A48FEF743FC07220A21284868
:101BC000FEF73EFC02208DF8180000208DF81A0068
:101BD0004FF4C060059001208DF81B0002208DF8A5
:101BE000190005A91E48FEF7E3FB072209211C483E
:101BF000FEF726FC07220A211948FEF721FC4FF4C4
:101C0000165001900020ADF810000C20ADF80E0029
:101C10000020ADF80C00ADF80A00ADF8080001A9ED
:101C2000104800F067FC012240F225510D4800F0F9
:101C30003BFC4FF4A060FFF773FB25208DF80000FC
:101C400001208DF803008DF801008DF80200684630
:101C5000FFF72AFB0121034800F00DFC07B000BD8F
:101C600000000240001001400CB5002001900090DF
:101C70003348006840F480303149086000BF304884
:101C8000006800F4003000900198401C019000981A
:101C900018B90198B0F5A04FF1D12948006800F4B7
:101CA000003010B10120009001E000200090009869
:101CB000012844D122484030006840F0805020493B
:101CC000403108601F48006840F440401D490860EA
:101CD0001B48083000681A49083108600846006847
:101CE00008600846006840F4805008601648091FE4
:101CF0000860081F006840F08070091F086000BF7E
:101D00000F48006800F000700028F9D040F205701C
:101D10000E4908600A480830006820F003000849AE
:101D2000083108600846006840F00200086000BF03
:101D300003480830006800F00C000828F8D10CBDFA
:101D4000003802400070004008544107003C024047
:101D500000B500F059FB00BD10B51548006840F40F
:101D60007000134908601348006840F001001149F1
:101D7000086000200F49083108600E4800680E49CD
:101D800008400C4908600D48091D0860081F0068DC
:101D900020F48020091F0860002006490C310860EB
:101DA000FFF762FF4FF0006001498039086010BD05
:101DB00088ED00E000380240FFFFF6FE10300024FE
:101DC000F0B50C46154600210022068C4FF6FE7732
:101DD0003E400684018B028C4FF60C7631407E1C0F
:101DE00006EA03162E4331434FF6F576324044F0AF
:101DF0000106324301830284F0BDF0B50C4615465E
:101E0000002100220026078C4FF6EF7C07EA0C0722
:101E10000784018B028C4FF6FF7707EA041640F621
:101E2000FF4739404FF6FF7707EA033739434FF64C
:101E3000FF7707EA052739434FF65F773A4046F0C8
:101E400010073A4301830284F0BDF0B50C461546F5
:101E5000002100220026078C4FF6FF6C07EA0C07D2
:101E60000784818B028C4FF6FF7707EA04264FF632
:101E70000C7739404FF6FF7707EA03172F433943B2
:101E80004FF2FF573A4046F480773A438183028409
:101E9000F0BDF0B50C461546002100220026078C47
:101EA0004EF6FF7C07EA0C070784818B028C4FF605
:101EB000FF7707EA043640F6FF4739404FF6FF77D1
:101EC00007EA052739434FF6FF7707EA0337394317
:101ED00045F6FF773A4046F480573A4381830284BF
:101EE000F0BD000010B54FF08040008A00F0040003
:101EF000002854D04FF0804000F068F8294908606D
:101F00004FF08040008A20F004004FF080410882AA
:101F100024480068B0F57A6F03DD0020224908608C
:101F200010BD20480068B0F5617F38DB1D480068AF
:101F300040F63401884232DC1B48006800282BDB65
:101F400019480068082827DA164801681648026808
:101F50000068401C144B1860144840F822101846C2
:101F6000006808281BD100201946086000BF10E057
:101F70000E4A52F82010B1F5617F01DA4FF4617119
:101F800040F63402914200DD1146094B23F810104F
:101F9000401C0828ECDB02E000200349086000BF79
:101FA000BEE70000140000201C000020C400002038
:101FB0002800002021B1028842F00102028004E0E2
:101FC00002884FF6FE731A40028070470146886B04
:101FD000704770B505460C46208850B92389A28801
:101FE00061882846FFF7ECFEE188284600F09DF95D
:101FF00025E0208804280AD12389A2886188284600
:10200000FFF7FBFEE188284600F098F917E02088EA
:1020100008280AD12389A28861882846FFF715FF7E
:10202000E188284600F097F909E02389A2886188B1
:102030002846FFF72EFFE188284600F095F970BD8D
:102040001AB183890B43838102E083898B438381A7
:10205000704701894FF6F872114001817047000006
:1020600070B5002400220023058C4FF6FE76354023
:102070000584028C8388048B4FF68F752C40B51E27
:102080002C400D882C43751E2A408D892A434D888B
:102090002A43104DA84202D00F4DA84213D14FF64B
:1020A000F7752A40CD892A434FF6FB752A408D8863
:1020B0002A434FF6FF652B404FF6FF552B400D8A04
:1020C0002B434D8A2B43838004838D6845630284B0
:1020D00070BD000000000140000401400A460021DC
:1020E000018B4FF6F77319401143018370470000CD
:1020F00070B5002400220023058C4FF6EF763540A2
:102100000584028C8388048B48F6FF752C404FF6BB
:10211000FF452C400D884FF6FF7606EA05252C4337
:102120004FF6DF752A408D8906EA05152A434D884A
:1021300006EA05152A43154DA84202D0144DA842BF
:102140001DD14FF67F752A40CD894FF6FF7606EAFE
:1021500005152A434FF6BF752A408D8806EA0515F6
:102160002A434FF6FF352B404FF2FF752B400D8A67
:1021700006EA85052B434D8A06EA85052B438380B5
:1021800004838D688563028470BD000000000140F7
:10219000000401400A460021018B4FF2FF731940F1
:1021A0004FF6FF7303EA02231943018370470000CF
:1021B00070B5002400220023058C4FF6FF663540E1
:1021C0000584028C8388848B4FF68F752C404FF6E4
:1021D000FC752C400D882C434FF6FF552A408D8905
:1021E0004FF6FF7606EA05252A434D8806EA0525BF
:1021F0002A43154DA84202D0144DA8421DD14FF2DA
:10220000FF752A40CD894FF6FF7606EA05252A4359
:102210004FF6FF352A408D8806EA05252A434EF6FB
:10222000FF752B404DF6FF752B400D8A06EA05150C
:102230002B434D8A06EA05152B43838084838D68E2
:10224000C563028470BD000000000140000401402D
:102250000A460021818B4FF6F773194011438183A1
:102260007047000070B5002200230024058C4EF654
:10227000FF7635400584038C8488828B48F6FF7591
:102280002A404FF6FF452A400D884FF6FF7606EAB2
:1022900005252A434DF6FF752B408D8906EA053545
:1022A0002B434D8806EA05352B430A4DA84202D040
:1022B000094DA84208D14BF6FF752C400D8A4FF608
:1022C000FF7606EA85152C43848082838D68056439
:1022D000038470BD00000140000401400A46002153
:1022E000818B4FF2FF7319404FF6FF7303EA02230D
:1022F0001943818370470A46002101894FF68F7385
:10230000194011430181704702894FF6F8731A4052
:10231000028102890A4302817047416370478163E9
:102320007047C163704701647047028B4FF6F373C7
:102330001A400283028B0A4302837047028B4FF2DA
:10234000FF331A400283028B4FF6FF7303EA012327
:102350001A4302837047828B4FF6F3731A408283CD
:10236000828B0A4382837047828B4FF2FF331A407D
:102370008283828B4FF6FF7303EA01231A43828321
:102380007047000000220288184B98420ED0184B6C
:1023900098420BD0B0F1804F08D0164B984205D030
:1023A000154B984202D0154B984204D14FF68F73CB
:1023B0001A404B881A43124B984207D0114B98424F
:1023C00004D04FF6FF431A400B891A4302804B6832
:1023D000C3620B880385054B984202D0044B984298
:1023E00001D18B7A0386012383827047000001406C
:1023F000000401400004004000080040000C0040C0
:1024000000100040001400400448006820B1034858
:102410000068401E0149086070470000B4000020B9
:1024200010B540F22551094800F031F801280CD1CF
:10243000064800F0C9F806490870012005490870EF
:1024400040F22551014800F007F810BD001001408E
:10245000100000201100002010B50022002340F6DB
:102460006A14A14200D100BF0A1201249440A3B211
:10247000DC43048010BD21B1828942F40052828184
:1024800004E082894DF6FF731A408281704702464C
:102490000020B1F5007F00D100BF13880B400BB1C5
:1024A000012000E000207047F0B50346002400261C
:1024B0000025002040F66A17B94200D100BF184637
:1024C000C1F3421401F01F06012707FA06F5012C9B
:1024D00001D10C3004E0022C01D1103000E01430A6
:1024E0001AB107682F43076002E00768AF4307602F
:1024F000F0BD00002DE9FF4705460E460024A14629
:1025000000BFA046B08900B100BF2C8A24F440541B
:10251000F08804432C82AC8941F20C608443B0887B
:1025200031890843718908430443AC81AC8A24F49F
:102530004074B0890443AC826846FFF7B9FA20487A
:10254000854202D01F48854202D1DDF80C9001E09F
:10255000DDF80890A88900F4004040B109EBC900FB
:1025600000EB091031684900B0FBF1F707E009EB17
:10257000C90000EB091031688900B0FBF1F7642055
:10258000B7FBF0F004012009642101FB1078A88951
:1025900000F4004040B1322000EBC800B0FBF1F085
:1025A00000F00700044308E0322000EB081064212B
:1025B000B0FBF1F000F00F0004432C81BDE8FF8771
:1025C000001001400014014001468888C0F3080053
:1025D000704700BFFEE703B401984100009850EA3D
:1025E000C12018BF04204A0D18BF40F0010040F27E
:1025F000FF72B2EB515F08BF40F00200012808BF34
:10260000052002B07047000070B5C1482DED020BE7
:102610002DED0E8B82B0119D25F000449FEDBEDBA9
:102620009FEDBFEB84423EDBA4F140511098A1F135
:102630007F6108430FD0BC48844202DC28D1109847
:1026400030B39DED100B02B0BDEC0E8B02B0BDE8B7
:10265000704000F0A6BC9DED100B53EC1D2B51EC0F
:10266000100B01F011FD9DED100B41EC180B53EC1C
:102670001E2B51EC100B01F007FD53EC182B01F051
:1026800003FB41EC100B02B0BDEC0E8B02B070BD31
:102690000120FDF723FE02B0BDEC0E8B02B0BDE8B9
:1026A000704000F095BCA1489FEDA18B844256DAA2
:1026B0009DED100BB4F1795F0ADA51EC100BFFF7C6
:1026C0008AFF042808BF00F093FC9DED100BDAE7A9
:1026D00053EC102B51EC100B01F0D6FC41EC190B14
:1026E00095480621B0EE490AF0EE690A784400F0F8
:1026F000DCFB53EC192B51EC100B01F0C5FC41EC49
:102700001A0B8E48B0EE490AF0EE690A04217844AB
:1027100000F0CBFB53EC192B51EC100B01F0B4FC87
:1027200053EC182B01F0B0FA41EC100B51EC1A0BE2
:1027300053EC102B01F050FBCDE900019DED000B97
:1027400053EC102B9DED100B51EC100B01F09CFC89
:102750009DED101B53EC112B01F096FAD2E09DED8C
:10276000100B51EC100B00F00DFD53EC182B01F089
:1027700089FD9FED730BCDE9000153EC102B9DED0E
:10278000000B51EC100B01F07FFC41EC190B6E4873
:102790000621B0EE490AF0EE690A784400F085FBA4
:1027A00053EC192B51EC100B01F06EFC41EC1B0BA0
:1027B0006648B0EE490AF0EE690A0421784400F058
:1027C00074FB53EC192B51EC100B01F05DFC53EC36
:1027D000182B01F059FA41EC1C0B51EC190B01F0CC
:1027E0008DF841EC180B5A489FED5BABA04222DC00
:1027F00053EC1C2B51EC1B0B01F0EEFACDE9000160
:102800009DED000B51EC180B53EC102B01F03CFC30
:1028100053EC182B01F038FA53EC1A2B01F034FC6E
:1028200053EC1D2B01F006FE53EC1E2B01F02AFD8C
:1028300041EC100B5FE08DED008B002000909DEDD2
:10284000000B51EC180B53EC102B01F01DFA9DED11
:10285000000B41EC1E0B53EC102B51EC100B01F054
:1028600013FC53EC192B01F00DFD53EC1E2B01F062
:10287000B3FA41EC190B53EC1C2B51EC1B0B01F080
:10288000ABFA41EC1B0B53EC1A2B51EC190B01F07A
:10289000FBFB53EC1D2B01F0F5FC41EC190B53EC49
:1028A0001A2B51EC180B01F0EFFB53EC1B2B01F032
:1028B000EBFB53EC192B01F0BDFD9DED000B41EC42
:1028C000180B53EC1A2B51EC100B01F0DDFB9FEDB4
:1028D000249B53EC192B01F0D5FC41EC100B51EC6F
:1028E000180B53EC102B01F0A5FD53EC192B01F044
:1028F000C9FC41EC100B002D3FF7C5AE51EC100B9D
:1029000001F084F941EC100BBDE60000000000006E
:102910000000F03F00000000075C143326A6913C45
:10292000182D4454FB21F93F0000F07F0000E03FE8
:10293000000000000000F03F58260000662600005E
:10294000000000000000E03FAA250000B8250000BC
:102950003333EF3F000000000000000000000040A3
:10296000182D4454FB21E93F70B59B482DED020B17
:102970002DED068B079D25F00044A04218DC9748FA
:10298000844202DC0AD1069840B19DED060BBDECF5
:10299000068B02B0BDE8704000F003BB002DCCBF39
:1029A0009FED8F0B9FED900BBDEC068B02B070BDC1
:1029B0008F48A04215DD8F48A042D8BF4FF0FF34AA
:1029C00058DD9DED060B51EC100BFFF704FE0428BB
:1029D00008BF00F00DFB9DED060BBDEC068B02B0B1
:1029E00070BD9DED060B51EC100B00F0CBFBCDE95B
:1029F000060181489FED828BA0423CDD8248A042C7
:102A00001FDD00249FED82AB9DED060B53EC1A2BCE
:102A100051EC100B01F038F99DED060B41EC190B50
:102A200053EC1A2B51EC100B01F02EFB53EC182B2E
:102A300001F000FD53EC192B01F0CEF9CDE90601B0
:102A400049E09DED060B012453EC182B51EC100BC3
:102A500001F01AF99DED060B41EC190B53EC182B04
:102A600051EC100B01F0E6FC53EC192B01F0B4F91A
:102A7000CDE906012FE06848A0421FDD02249FED4A
:102A8000689B9DED060B53EC192B51EC100B01F0DC
:102A9000FBFA53EC182B01F0F7F89DED060B41EC17
:102AA000180B53EC192B51EC100B01F0C3FC53EC39
:102AB000182B01F091F9CDE906010CE09DED060B14
:102AC000032453EC102B9FED580B51EC100B01F02D
:102AD00083F9CDE906019DED060B53EC102B51EC6B
:102AE000100B01F0D1FA41EC180B53EC182B01F04C
:102AF000CBFA41EC190B4E480621B0EE490AF0EE34
:102B0000690A784400F0D1F953EC182B51EC100B02
:102B100001F0BAFA41EC180B4648B0EE490AF0EE63
:102B2000690A0521784400F0C0F953EC192B51ECE7
:102B3000100B01F0A9FA41EC100B51EC180B53ECFF
:102B4000102B002C0EDA01F09FF89DED061B53ECC4
:102B5000112B01F099FA9DED061B53EC112B01F09E
:102B600091FB35E001F090F89DED061B53EC112B25
:102B700001F08AFA41EC100B2F48784400EBC400B6
:102B800090ED001B51EC100B53EC112B01F052FC9B
:102B90009DED061B53EC112B01F04CFC41EC100B8E
:102BA0002648784400EBC40090ED001B51EC100B5C
:102BB00053EC112B01F066FB41EC100B002DA2BF72
:102BC000BDEC068B02B070BD51EC100B01F01EF88D
:102BD00041EC100B01E70000000010440000F07F02
:102BE000182D4454FB21F93F182D4454FB21F9BF03
:102BF0000000DC3F0000203E0000F33F000000002A
:102C0000000000000000F03F0000E63F0000000070
:102C100000000000000000400080034000000000B1
:102C2000000000000000F83F000000000000F0BFBE
:102C3000FA220000B02200003A220000F221000037
:102C400070B56B4E2DED040B2DED028B82B0DDF8CF
:102C50001CC0DDE905235C422CF000411C4341EA25
:102C6000D474049D22F00040B44205D86C422C4339
:102C700040EAD474B4420BD99DED061B9DED040BC4
:102C800002B0BDEC028B04B0BDE8704000F093B917
:102C9000ACF14054A4F17F641C430BD0022404EA3D
:102CA000AC7444EAD27405439FED538B9FED542BD3
:102CB00007D015E09DED040B51EC100B00F0A8F9C6
:102CC00042E0002C11BF012C9DED040B02B0BDECC5
:102CD000028B04BF04B070BD022C38D0032C3BD053
:102CE0000B439FED491B9FED4A0B0AD0B14218D10F
:102CF000B04209D121F0804120F080400791059039
:102D00000FE0002A15DA10E0434B7B44002C08BF8B
:102D100093ED000B0DD0012C10D0022C17D0032CFA
:102D20001AD0B0421DD1002A03DAB0EE410AF0EE0B
:102D3000610A02B0BDEC028B04B070BD93ED000BD4
:102D400051EC100B00F062FF41EC100BF1E7B0EE1C
:102D5000480AF0EE680AECE7B0EE420AF0EE620ACA
:102D6000E7E7401A00153C28C8BF8DED000B19DCC1
:102D7000BCF1000FBEBF10F13C0F9FED290B8DED94
:102D8000000B0FDB9DED060B53EC102B9DED040BA0
:102D900051EC100B01F020F800F0F4F900F038F9D4
:102DA000CDE90001002C08BF9DED000BC1D0012C26
:102DB00010D0022C9FED1C0B53EC102B9DED000B43
:102DC00051EC100B0DD001F035FB53EC182B01F03A
:102DD00031FBB9E7019880F0004001909DED000BB8
:102DE000A7E701F027FB53EC182B01F04BFAABE7F8
:102DF0000000F07F00000000182D4454FB21094022
:102E0000182D4454FB2109C0182D4454FB21F9BF4F
:102E1000182D4454FB21F93F22210000000000003E
:102E20000000000000000000075C143326A6A13C4F
:102E300000B52DED048BB0EE409AF0EE609A83B0B1
:102E400051EC190B01F02AFA41EC180B18EE100A9C
:102E500018EE901A8DED008B002818BF0120084352
:102E600020F00040C0F17F6000F1E040C00F14D0BE
:102E700019EE101A19EE900A8DED009B002918BF6B
:102E80000121084320F00040C0F17F6000F1E040E4
:102E9000C00F04BF0120FDF721FAB0EE480A03B0CD
:102EA000F0EE680ABDEC048B00BD70B504462DED54
:102EB000028B4D1E00EBC500B0EE408AF0EE608A3A
:102EC00090ED000B35F0060017D053EC182B51ECA9
:102ED000100B01F0D9F841EC100B6D1E04EBC5008E
:102EE00090ED001B51EC100B53EC112B00F0CCFEBD
:102EF00041EC100B35F00600E7D1022D36D0042D41
:102F00001CD0062D1CBFBDEC028B70BD53EC182BE2
:102F100051EC100B01F0B8F894ED0A1B53EC112B97
:102F200000F0B2FE53EC182B01F0AEF894ED081B44
:102F300053EC112B00F0A8FE41EC100B53EC182BB6
:102F400051EC100B01F0A0F894ED061B53EC112B83
:102F500000F09AFE53EC182B01F096F894ED040B58
:102F600053EC102B00F090FE41EC100B53EC182B9F
:102F700051EC100B01F088F894ED021B53EC112B6F
:102F800000F082FE53EC182B01F07EF894ED001B4C
:102F900053EC112B00F078FEBDEC028B41EC100BD2
:102FA00070BD10B553EC102B51EC100B00F06CFE03
:102FB00041EC100B10BD10B553EC112B51EC100B64
:102FC00000F062FE41EC100B10BD0000000000009C
:102FD0009FED050B10B553EC102B51EC100B00F0CE
:102FE000FBFE41EC100B10BD0000000000000000D3
:102FF0009FED050B10B553EC102B51EC100B01F0AD
:1030000043F841EC100B10BD000000000000001060
:1030100010B541EC100BFFF7A7FC51EC100B10BDE5
:10302000F0EE401AF4EEE01AF1EE10FA02D2B0EE31
:10303000600A7047F4EEC11AF1EE10FA02DDB0EE4C
:10304000410AF6E7B0EE610AF3E70000B0EE401A7D
:10305000B1EE600AB4EEC01AF1EE10FA07DDB4EE7C
:10306000E01AF1EE10FA02D29FED020A7047B0EEBC
:10307000410AFBE7000000001CB53BE03A483B4931
:103080003B4B3C4ACDE900103B493C48FDF7B0FFC3
:103090003B488089394909884942084400B2384987
:1030A00088810846C089344909884942084400B2E9
:1030B0003349C8810846008A2D4909884942084495
:1030C00000B22F4908820846408A284909884942A7
:1030D000084400B22A4948820846808A2249098861
:1030E0004942084400B22649888208460088401CAC
:1030F00000B208802248B0F900003228BEDD204826
:10310000B0F90C001E49B1F9001090FBF1F000B2CB
:103110001B4948800846B0F90E00B1F9001090FB39
:10312000F1F000B2164988800846B0F91000B1F9F4
:10313000001090FBF1F000B21149C8800846B0F9C8
:103140001200B1F9001090FBF1F000B20C490881B7
:103150000846B0F91400B1F9001090FBF1F000B28C
:10316000074948811CBD00006E0000206C00002053
:103170006A00002068000020660000206400002033
:10318000E400002082B0CDE9000121F00040019070
:103190009DED000B02B051EC100B704710B52DEDFA
:1031A000088B04469FED450AB0EE40AA9FED440A05
:1031B000F0EE40AA9FED420AB0EE40BA9FED410A00
:1031C000F0EE40BA4048C088A0F2DC5000EE100A91
:1031D000B8EEC00ADFED3D0A80EE201AB0EE418A5B
:1031E00039484088A0F2DC5000EE100AB8EEC00A60
:1031F000DFED360A80EE201AF0EE418A3248008870
:10320000A0F2DC5000EE100AB8EEC00ADFED2F0A83
:1032100080EE201AB0EE419AB7EE001AFFEE000AD7
:10322000B0EE480AFFF7FCFEF0EE409ADFED280A08
:10323000FFF70CFFB0EE408AB7EE001AFFEE000A6F
:10324000B0EE680AFFF7ECFEF0EE409ADFED200AE0
:10325000FFF7FCFEF0EE408AB7EE001AFFEE000A20
:10326000B0EE490AFFF7DCFEF0EE409ADFED180AF7
:10327000FFF7ECFEB0EE409AB1EE490ADFED110A1D
:1032800060EE200A134890ED001A134890ED000AF2
:1032900000EE810A84ED000AB1EE680ADFED080A4B
:1032A00020EE200A84ED010A9FED050A28EE000AAF
:1032B00084ED020ABDEC088B10BD000035FA8E3C8F
:1032C000F366DF3E920A0640280000200000FA4321
:1032D000CDCC4C3DB8000020BC00002030B50246EB
:1032E0000B4600202DE0002112E000EB400403EB30
:1032F000840404EB810494ED000A00EB400502F124
:103300000C0404EB850404EB810484ED000A491CE1
:103310000329EADB9FED0C0A02F1300101EB800189
:1033200081ED000A9FED080A02EB800181ED000AA1
:103330009FED050A02F13C0101EB800181ED000ADD
:10334000401C0328CFDB30BD0000000000B593B067
:1033500024220A490AA8FCF787FF242207492431BE
:1033600001A8FCF781FF0AA90548FFF7B7FF01A9EB
:103370000448FFF7B3FF13B000BD0000004D000884
:103380003001002078010020F0EE400AF6EE001A2D
:1033900060EEA11AB0EE611AB0EE600A10EE100AEB
:1033A0000749A1EB600000EE100A21EE002AF7EEBB
:1033B000081A42EE401A61EE801AB0EE610A7047B8
:1033C000865A375F2DED108B86B0FEF755F8FEF765
:1033D000E5FBFDF7BBFEFEF77FFAFDF75FFEFCF7AE
:1033E000CDFFFDF790F8FEF70FFAFFF7AFFF4FF4B0
:1033F000FA60FEF703FB4FF4FA60FEF709FB4FF4A7
:10340000FA60FEF70FFB4FF4FA60FEF715FB15E0CC
:10341000FE480088401C00B2FC490880FC4AFD4977
:10342000FD48FDF717F9FDA201210846FEF7F2F865
:10343000F74890ED000AFB4880ED000AF348B0F928
:1034400000006428E4DBFFF717FE4FF47A70FEF704
:10345000D5FA4FF47A70FEF7DBFA4FF47A70FEF784
:10346000E1FA4FF47A70FEF7E7FA15E0E7480088D2
:10347000401C00B2E5490880E54AE649E648FDF708
:10348000E9F8E6A201210846FEF7C4F8E04890ED0D
:10349000000AE44880ED000ADC48B0F900009628F4
:1034A000E4DBF2E1E048FEF703FBD94AD949DA4808
:1034B000FDF7D0F803A8DD4991ED001AD549D1ED0B
:1034C000000AD54991ED000AFEF782F9D84AD94998
:1034D000D948FDF77DF8D64890ED001AD548D0EDD3
:1034E000000AD54890ED000AFEF768F9FDF766F886
:1034F000B0EE40FAFEF75CF96846FFF74FFECF48A2
:10350000808840F24C41884201DAFEF737F9CC4A14
:1035100003A96846FEF7B2F8C8488488B4F57A7FF4
:1035200001DA4FF47A74B4F5FA6F01DD4FF4FA64FE
:103530009FEDC4CAC44890ED000ADFEDC20A60EEF8
:10354000200A00EE104AB8EE400A9FEDC01A41EE84
:10355000000AC0ED000ADFEDBECA90ED000ADFED03
:10356000BD0A70EE600A9FEDBC1A9FEDBC0AB0EE7A
:10357000408A00EE818A9FEDB90AB4EEC08AF1EE6E
:1035800010FA0DD890ED000ADFEDB50A70EE600A72
:103590009FEDAF0AB0EE001A00EE810AB0EE408A4D
:1035A000B3EE04DAF3EE04DAB2EE04EADFEDADEAEC
:1035B000A34890ED000ADFEDAB0A20EE200AAA48EE
:1035C000D0ED000A9FEDA91A00EE810A80ED000AF5
:1035D0009B4890ED010ADFEDA30A20EE200AA248E5
:1035E000D0ED010A9FEDA11A00EE810A80ED010ADB
:1035F000934890ED020ADFED9B0A20EE200A9A48DC
:10360000D0ED020A9FED991A00EE810A80ED020AC0
:1036100090ED020AF3EE040A60EE208A90ED010AB2
:10362000F3EE040A20EE209A90ED000AF2EE040A6E
:1036300060EE209A38EE490A30EE280A30EE29AAC8
:1036400038EE490A30EE680A70EE69AA38EE090AC7
:1036500030EE680A30EE29BA38EE090A30EE280A50
:1036600070EE69BA9FED7A0AB4EEC0AAF1EE10FAD4
:1036700003D29FED770AB0EE40AA9FED750AF4EEF3
:10368000C0AAF1EE10FA03D29FED710AF0EE40AA43
:103690009FED6F0AB4EEC0BAF1EE10FA03D29FEDBF
:1036A0006C0AB0EE40BA9FED6A0AF4EEC0BAF1EED1
:1036B00010FA03D29FED660AF0EE40BA5F488088A8
:1036C00040F21A41884210DA9FED610AF0EE40BAEA
:1036D000B0EE40BAF0EE40AAB0EE40AA64480088CE
:1036E000401C00B2624908800FE05448808840F2D4
:1036F000DC51884206D15E480088401C00B25C491B
:10370000088002E000205A4908805948B0F90000BA
:10371000142809DB9FED570AF0EE40BAB0EE40BA2C
:10372000F0EE40AAB0EE40AABCEECA0A10EE101AA3
:1037300088B2FEF763F9BCEEEA0A10EE101A88B2FE
:10374000FEF766F9BCEEEB0A10EE101A88B2FEF72F
:1037500069F9BCEECB0A10EE101A88B2FEF76CF9CC
:103760002B4890ED000A2F48D0ED000A30EE600A99
:103770002E4880ED000A0523BCEEC80A10EE102A80
:103780000A210120FDF724FF2C484288052301214E
:103790000220FDF71DFF2948C28805230A210220C7
:1037A000FDF716FF0423BCEECA0A10EE102A012111
:1037B0000320FDF70DFF0423BCEEEA0A10EE102AE9
:1037C00008210320FDF704FF0423BCEECB0A10EE12
:1037D000102A08211846FDF7FBFE0423BCEEEB0A75
:1037E00010EE102A01211846FDF7F2FE0748B0F945
:1037F0000000FA2843DA05480088401C00B203495B
:103800000880034890ED000A064835E08600002055
:1038100094000020900000208C00002077616974E3
:10382000696E670098000020080100209C000020BD
:10383000A8000020A4000020A000002028000020F4
:10384000FC000020CDCCCC3EB00000209A99193F5E
:103850000040834400808944C3F5A83E00C0A844CA
:1038600000007A44CDCC4C3F18010020CCCC4C3E1B
:103870008800002000407A4480ED000A04E003A2A2
:1038800001210846FDF7C6FE00BF0BE6636F6D70B1
:103890006C6574650000000030B504460D4694ED7B
:1038A000000AF0EE404A95ED000AB0EE404A92ED73
:1038B000000AB0EE403A93ED000AF0EE403A64EEB2
:1038C000A40A44EE040A43EE030A43EEA30AB0EE50
:1038D000600AFFF759FDF0EE402A24EEA20A84EDBB
:1038E000000A24EE220A85ED000A23EE220A82ED68
:1038F000000A23EEA20A83ED000A30BD00B52DEDCB
:10390000048B83B041EC190B00F0C8FC41EC180BA0
:1039100018EE100A18EE901A8DED008B002818BFD3
:103920000120084320F00040C0F17F6000F1E0403A
:10393000C00F14D019EE101A19EE900A8DED009BED
:10394000002918BF0121084320F00040C0F17F602A
:1039500000F1E040C00F04BF0120FCF7BFFC51ECB8
:10396000180B03B0BDEC048B00BD00002DE9F04145
:103970002DED108B04460E46B0EE408AF0EE608AC4
:10398000002008E09FED9B0A04F13C0101EB80015F
:1039900081ED000A401C0328F4DB00201AE004F14A
:1039A0003C0101EB800191ED000A00EB400204F1C3
:1039B0000C0101EB8201D1ED000A06EB800191EDD3
:1039C000001A00EE810A04F13C0101EB800181ED57
:1039D000000A401C0328E2DB002071E006EB8001B6
:1039E00091ED000AB0EEC00AB4EEE80AF1EE10FA6A
:1039F00010DD04F1300101EB800191ED000ADFEDF3
:103A00007E0A20EE200A04F1300101EB800181EDF5
:103A1000000A1BE000EB400204F10C0101EB820103
:103A200091ED010A06EB8001D1ED000A60EE200A5B
:103A300004F1300101EB800191ED000A00EE880AEB
:103A400004F1300101EB800181ED000A04F1300145
:103A500001EB800191ED000AB0EEC00AF0EE000A21
:103A6000B4EEE00AF1EE10FA15DD04F1300101EBDD
:103A7000800191ED000AB5EEC00AF1EE10FA02DD08
:103A8000B0EE000A01E0B8EE000A04F1300101EBEB
:103A9000800181ED000A04F13C0101EB800191ED10
:103AA000000A04F1300101EB8001D1ED000A30EE93
:103AB000200A04F13C0101EB800181ED000A401C69
:103AC00003288BDB9FED4D0AB4EEC08AF1EE10FAAD
:103AD00002DDB0EE480A01E09FED480AB0EE40FA80
:103AE000002573E006EB850090ED000A04EB8500ED
:103AF000D0ED000A30EE600A414880ED000A90EDFA
:103B0000000AB5EEC00AF1EE10FA43DD012D41D1F5
:103B100090ED000AC0EE0F0A10EE907A384600F0E1
:103B200073FD41EC1C0B05EB450204F10C0000EBAE
:103B3000820090ED020A10EE101A084600F064FDB3
:103B400041EC1E0B9FED2F0B53EC102B00F09CFA59
:103B500041EC1D0B53EC1C2B00F096FA41EC1A0BB8
:103B600004F13C0000EB850090ED000A10EE101A05
:103B7000084600F049FD41EC1B0B53EC1A2B00F0FA
:103B800083F841EC190B00F04DF804F13C0141F8C9
:103B900025001AE01A4890ED000AC0EE0F0A04F161
:103BA0003C0000EB850090ED000A05EB450104F1B7
:103BB0000C0000EB810090ED021A01EE200A04F1E6
:103BC0003C0000EB850080ED000A6D1C032D89DBB5
:103BD000002008E006EB800191ED000A04EB800173
:103BE00081ED000A401C0328F4DBBDEC108BBDE81E
:103BF000F0810000000000009A99993EBD3786359B
:103C0000C0000020000000000000F83F81F00041EB
:103C1000704780F00040704721F00041704720F06D
:103C20000040704721F00042A2F16052B2F5801FBF
:103C300001F0004328BFD2F17F6C0BD95FEA001C72
:103C400043EAC20242EB507018BF704728BF20F011
:103C500001007047B2F5801FBCBF184670474FEA9D
:103C6000410C1CF5001F02D2084600F043BD70B5A0
:103C700000F0B4FA00000089FFF7F6BF4FF00040F3
:103C8000A0F580007047000010B591EA030F48BF0F
:103C900083F0004300F1D683841A71EB030C05D244
:103CA000121943EB0C03001B61EB0C01DFF824E15C
:103CB0004FEA1154A4EB135C1EEA430F18BF9EEAAF
:103CC000445F73D023EA0E03DCF1200E21EA045195
:103CD00043F4801332D322FA0CFE10EB0E0023FAC9
:103CE0000CFE41EB0E01CCF1200E03FA0EFE10EBA0
:103CF0000E0051F10001B1F5801FCCF1200E32D23F
:103D000001EB045112FA0EF2BDE8104058BF7047A3
:103D1000401C38BF5FEA420218BF7047002814BF3A
:103D200020F0010041F100014FEA410313F5001FAB
:103D300038BF7047A1F1C04100F09EBA012A43EBA1
:103D40000302ACF1200CDCF11F0E32BF4FF0000E6D
:103D500023FA0CF310EB030041EB0451B4EB115FB9
:103D6000D0D0A1EB045101F5801149085FEA300081
:103D700001EB04510ED350F1000038BF12FA0EFED1
:103D800008D1BDE81040C9E7401C38BF5FEA4202D5
:103D9000CAD1C3E7BDE810404FEA410313F5001F45
:103DA00038BF7047A1F1C04100F066BA9EEA445F97
:103DB00008D011EA5E0FBDE8104004BF01F00041D9
:103DC00000207047BDE8104070B500F007FA00BF52
:103DD00064FBBE3E0000E0FF2DE9C04130B4DFF8D7
:103DE000A0C23CEA111418BF3CEA131400F0EC80A6
:103DF00081EA03051CEA111444EAD57418BF1CEAD1
:103E0000131500F0C780A4EB05044FF0004545EA08
:103E1000C12145EAC32341EA505143EA525304F118
:103E20007F74994204F500344FEAC0204FEAC22261
:103E300008BF904200F09C804FEA13650FF24016D5
:103E4000765D4FEA134506FB05F7C7F1807706FB61
:103E500007F74FEAD737A7FB03687642C8F58038E3
:103E6000A7FB06CE38BFA8F1010807FB08E64FF014
:103E7000000EA6FB028CE6FB03CEDCF1000CCEF1BB
:103E8000004E38BFAEF1010EA6FB0C584FF00007F4
:103E90004FF00005E6FB0E87A1FB08C6A0FB07CE8E
:103EA00016EB0E0645F10005E1FB076515F1E04E46
:103EB0007EBFA4F580345FEA46066D4116F18007A7
:103EC00045F100054FEA17274FEA066647EA0567FE
:103ED000A6F1DE46B6F1805F4FEA15251FD93846B8
:103EE00024F0010C05EBC471BCF1FE6F01EB0C1169
:103EF00002D8F0BCBDE8008124425CBF01F5801E01
:103F00009EEAC47F02D4F0BCBDE80081244238D4CC
:103F1000F0BCA1F1C041BDE8004100F0ADB94FEAED
:103F2000D22242EA43524FEAD323A7FB02864FEA4A
:103F3000D02040EA415007FB03661EEA0E0F4FEA0D
:103F4000D12105FB026658BFA6EB0056B6EB005622
:103F50004FEA520E4EEAC37E18EB0E0E56EB530E8E
:103F6000BDD518EB02085E417F1C55F10005B6E790
:103F70004FF480154FF000074FF000064FF0000897
:103F8000ADE7F0BC4FF0000001F1C04101F000418D
:103F9000BDE8008111EA0C1F0CEA131500D00CE0FB
:103FA00013EA0C1F00F025804FF00000F0BC81EAFE
:103FB000030101F00041BDE80081F0BCBDE8004113
:103FC00081EA030100F058B9F0BCBDE8004170B5CA
:103FD00000F004F9097EFC3E00F007B881EA030115
:103FE0004FF0000001F00041704781EA030100F04A
:103FF00043B9F0BCBDE800414FF0000021497047D3
:10400000FFFDFBF9F7F5F4F2F0EEEDEBE9E8E6E49D
:10401000E3E1E0DEDDDBDAD8D7D5D4D3D1D0CFCD24
:10402000CCCBCAC8C7C6C5C4C2C1C0BFBEBDBCBB5D
:10403000BAB9B8B7B6B5B4B3B2B1B0AFAEADACAB58
:10404000AAA9A8A8A7A6A5A4A3A3A2A1A09F9F9E32
:104050009D9C9C9B9A9999989797969595949393E4
:10406000929191908F8F8E8E8D8C8C8B8B8A89897B
:1040700088888787868585848483838282818180FE
:104080000000FF070000F87FDFF848C170B51CEAA8
:10409000111E1EBF1CEA13159EEA0C0F95EA0C0FA9
:1040A00000F06F8081EA030423EA4C134EEAD47EC9
:1040B00021EA4C1141F4801143F48013AE44A1FB7A
:1040C000024CA0FB0365AEF17F7E361955EB0C0563
:1040D000A1FB034C4CF10003A0FB021C16EB0C06E9
:1040E000654153F10003094218BF46F0010613F47D
:1040F000007F0BD14FEA03314FEA0530340341EA28
:10410000155140EA16506FF003020AE04FEAC3214E
:104110004FEAC520F40241EA555140EA56506FF08B
:10412000020202EB2E4201EB025585EACE710AD063
:104130005FEA440C18BF24F0004450F1000041F144
:10414000000120EAD47040F2FE7C624500D270BDCE
:10415000A84214BF4FF080444FF04044002E08BFE7
:104160000024BEF1806FA8BFA1F1C041BDE870403E
:1041700080F282804FF0000001F1C04101F0004167
:1041800070479EEA0C0F0CEA131518BF95EA0C0F46
:1041900006D04FF0000081EA030E0EF0004170BD22
:1041A00000F01CF88900013E00F007B800F009B8E3
:1041B0004FEA430C5FEA5C5C08D081EA030100F03F
:1041C0005BB84FEA410C5FEA5C5CF6D14FF000004F
:1041D000014970470000FF070000F87F0EF1020E52
:1041E0002EF0030E5EF8046B364205D4012A43EB31
:1041F000030515F5001F12D8012841EB010C1CF531
:10420000001F0CD80ED14FEAD17C15F5001F0CEB26
:104210004C0C0CF1020C08BF4CEBD37C04E04FF0CB
:10422000080C01E04FEAD37C0CEB4C0526FA05F6AE
:1042300006F00706B6F1040C06D20EEB860CBDE8BC
:1042400070404CF0010C6047DFE80CF0090B0202F3
:104250004FF000414FF00000A1F5002170BD19465C
:104260001046012851EB010418BFD4F5001484BF97
:10427000002001F0004170BD0808A0F500114FEAD0
:104280003101704791EA030F10B581F000413FF50D
:1042900003AD83F0004300F0D5B800002DE9F041F4
:1042A00001F5801CBCF5001FC0F2A9804FEA115C2B
:1042B00021EA0C510CF1FD0C41F480115FEA5C0C19
:1042C0000CF5C07C01D34000494130A4890241EA89
:1042D000905187028E0E0A0CA45D04FB04F602FBCB
:1042E00006F6C6F14046A4FB0662F60D46EA4226F3
:1042F00006FB06F4A4FB01235242C3F1404338BF3E
:104300005B1EA6FB02420024E6FB0324D20B42EA1A
:104310004446A6FB0623A1FB02E2A3FB07E4E3FB62
:1043200061426442C2F1404E38BFAEF1010EA6FBBD
:1043300004234FF00002E6FB0E32A2FB03463400DA
:10434000E2FB6264A1FB06E6A4FB07E8E4FB61680C
:104350007642C8F1405838BFA8F10108A2FB06E434
:10436000A3FB08E5E2FB6854A1FB05E6A7FB04E814
:10437000E1FB648618F1200556F10006A809A8F1B2
:104380001B08B10908F03F08B8F10A0F40EA86603F
:104390001CD901EB0C51BDE8F08100BFFCF5EEE843
:1043A000E2DDD8D3CFCBC7C3C0BDB9B6B4B1AEACD4
:1043B000A9A7A5A3A19F9D9B9A9896959392908F4C
:1043C0008D8C8B898887868584838281A0FB006899
:1043D00000FB01F208EB4208B8EB872807D5341838
:1043E00058EB0104D5D5401C51F10001D1E7341A36
:1043F00078EB0104CDD4401E71F10001C9E75FEAFA
:104400004C0C5FEA9C5C0DD105D34FF0000001F02D
:104410000041BDE8F081BDE8F04170B5FFF7DEFE78
:104420006DDBFFBEBDE8F0414FF000000049704772
:104430000000F87F10B591EA030F48BF83F00043F6
:104440003FF52AAC841A71EB030C07D212198CF0D9
:10445000004C43EB0C03001B61EB0C01DFF8A4E103
:104460004FEA1154A4EB135C1EEA430F18BF9EEAF7
:10447000445F00F0B08023EA6E03524221EA045107
:10448000C3EB6E0338BF5B1EDCF1200E25D322FA8E
:104490000CFE10EB0E0043FA0CFE41EB0E01CCF1CA
:1044A000200E03FA0EFE10EB0E0051F10001CCF1CC
:1044B000200E29D412FA0EF201EB0451BDE810408F
:1044C00058BF7047401C1CBFB2F1004F7047002816
:1044D0000CBF491C20F00100704712EB020E43EBA9
:1044E000030218BF4FF0010E4EEA4202ACF1200C5D
:1044F000DCF11E0E54D943FA0CFE10EB0E0051F104
:10450000FF31CCF11E0ED5D50EF1010E12FA0EFEC2
:10451000404141EB010101EB445C5FEA5C5C10D976
:1045200010EBDE7001EB045138BFBEF1004FBDE867
:10453000104018BF704700280CBF491C20F0010034
:10454000704730D24FEAD42C11F5001124F40064E6
:104550001BD0B1FA81F20B3AA41AA41ED2F12003A7
:10456000914030FA03F31943904001EBCC71002CD9
:1045700001EB0451BDE81040A8BF704701F1C041F4
:104580004FF0000001F000417047B0FA80F310FADC
:1045900003F100D110BDE41A173C4805C90AE4E74D
:1045A00001EB045110BD491001EB0451BDE810406E
:1045B0004FEA300002E04FF0000170474A0008BFA8
:1045C0000042F8D0B2F5001F28BF704701F000414B
:1045D0004FF0000070479EEA445F07D011EA5E0F7B
:1045E000BDE8104004BF002100207047BDE8104026
:1045F00070B5FFF7F3FD00BF40DFF63E83F00041EA
:10460000104670470000E0FF43004FEAD30C4FEA2A
:104610003C0C43401FBF40070CF1605113F0FE4FAC
:1046200070471CF0006F03D100200CF00041704770
:104630000CF0004343EA507010B540EACC0000F0A3
:104640000EF800BF000000924FEA0001FFF714BE11
:104650004FF000414FF00000A1F5002170470EF12E
:10466000020E2EF0030E5EF8044B244204D44FEAEF
:104670004102B2F17F4F11D84FEA4003B3F17F4FAF
:104680000CD80ED14FEAD07CB2F17F4F0CEB4C0C22
:104690000CF1020C08BF4CEBD17C04E04FF0080C8D
:1046A00001E04FEAD17C0CEB4C0324FA03F404F054
:1046B0000704B4F1040C06D20EEB840CBDE81040E4
:1046C0004CF0010C6047DFE80CF0070802024FF0E5
:1046D0000040A0F5800010BD0846420018BFD2F18E
:1046E000807288BF00F0004010BD4FF04070E1EED6
:1046F000100A7047FF2141EAD050C0057047000002
:1047000000000000000000000000000000000000A9
:1047100000F800000000000000333000000000102E
:104720000C06100C0600000000000000000040C055
:104730007840C0784000043F04043F040400007047
:1047400088FC08300000001820FF211E0000F0083F
:10475000F000E018000000211C031E211E0000F0E4
:104760000888700000001E2123241927211010162C
:104770000E0000000000000000000000000000002B
:1047800000E01804020000000007182040000002AA
:104790000418E0000000004020180700000040401E
:1047A00080F0804040000202010F01020200000080
:1047B00000F0000000000101011F010101000000E4
:1047C00000000000000080B0700000000000000049
:1047D00000000000000000010101010101010000D2
:1047E0000000000000000030300000000000000069
:1047F000000080601804006018060100000000E05E
:1048000010080810E000000F102020100F0000100A
:1048100010F8000000000020203F20200000007061
:104820000808088870000030282422213000003059
:104830000888884830000018202020110E00000051
:10484000C02010F8000000070424243F240000F8D2
:104850000888880808000019212020110E0000E0B7
:10486000108888180000000F112020110E00003859
:104870000808C83808000000003F00000000007071
:10488000880808887000001C222121221C0000E0FA
:1048900010080810E0000000312222110F00000073
:1048A00000C0C00000000000003030000000000028
:1048B0000080000000000000806000000000000098
:1048C0008040201008000001020408102000404031
:1048D0004040404040000404040404040400000874
:1048E0001020408000000020100804020100007029
:1048F00048080808F0000000003036010000C03011
:10490000C828E810E0000718272423140B00000033
:10491000C038E0000000203C23020227382008F8BD
:10492000888888700000203F202020110E00C030B1
:10493000080808083800071820202010080008F888
:1049400008080810E000203F202020100F0008F881
:104950008888E8081000203F20202320180008F84D
:104960008888E8081000203F200003000000C030C5
:1049700008080838000007182020221E020008F846
:1049800008000008F808203F210101213F2000080D
:1049900008F8080800000020203F20200000000048
:1049A0000808F8080800C08080807F00000008F830
:1049B00088C028180800203F20012638200008F869
:1049C000080000000000203F20202020300008F8D0
:1049D000F800F8F80800203F003F003F200008F8EA
:1049E00030C00008F808203F200007183F00E01002
:1049F00008080810E0000F10202020100F0008F811
:104A000008080808F000203F210101010000E01023
:104A100008080810E0000F18242438504F0008F848
:104A2000888888887000203F2000030C30200070A8
:104A30008808080838000038202121221C001808A6
:104A400008F8080818000000203F2000000008F8BF
:104A500008000008F808001F202020201F00087808
:104A6000880000C83808000007380E010000F80868
:104A700000F80008F800033C0700073C0300081892
:104A800068808068180820302C03032C30200838F8
:104A9000C800C83808000000203F200000001008AF
:104AA0000808C838080020382621202018000000F7
:104AB00000FE020202000000007F40404000000CA7
:104AC00030C000000000000000010638C0000002F5
:104AD0000202FE000000004040407F000000000095
:104AE00004020202040000000000000000000000B8
:104AF00000000000000080808080808080800002B4
:104B0000020400000000000000000000000000009F
:104B10008080808000000019242222223F2008F893
:104B2000008080000000003F112020110E000000D6
:104B3000008080800000000E112020201100000065
:104B400000808088F800000E112020103F20000017
:104B5000808080800000001F22222222130000801B
:104B600080F0888888180020203F20200000000066
:104B7000808080808000006B94949493600008F89B
:104B8000008080800000203F210000203F20008026
:104B90009898000000000020203F20200000000026
:104BA00000809898000000C08080807F000008F896
:104BB000000080808000203F24022D30200000086B
:104BC00008F8000000000020203F20200000808026
:104BD000808080808000203F20003F20003F808038
:104BE000008080800000203F210000203F20000046
:104BF000808080800000001F202020201F008080F7
:104C000000808000000080FFA12020110E00000025
:104C1000008080808000000E112020A0FF80808016
:104C200080008080800020203F21200001000000C3
:104C30008080808080000033242424241900008098
:104C400080E0808000000000001F202000008080A5
:104C5000000000808000001F202020103F20808066
:104C600080000080808000010E30080601008080F6
:104C70000080008080800F300C030C300F0000801B
:104C80008000808080000020312E0E312000808046
:104C900080000080808080818E7018060100008076
:104CA0008080808080000021302C22213000000094
:104CB0000000807C020200000000003F4040000035
:104CC0000000FF00000000000000FF0000000002E4
:104CD000027C800000000040403F00000000000611
:104CE00001010202040400000000000000000000B6
:104CF00000000040CDCCCC3E0000C03F35FA8E3CD9
:104D0000CDCCCC3D000000000AD7A33B9A99193EB8
:104D100000000000CDCC4C3DCDCC4C3E000000004E
:104D2000CDCC4C3DCDCC8C3F00000040CDCC4C3D9B
:104D30000000803F0000803FCDCC4C3DCDCCCC3E30
:104D40000000003FCDCCCC3D555555555555C53F80
:104D50007D6FEB0312D6D4BF5544880E55C1C93FB1
:104D60003B8F68B52882A4BF88B20175E0EF493F48
:104D700009F7FD0DE13D023F4B2D8A1C273A03C088
:104D8000C88A599CE52A004059018D1B6C06E6BF74
:104D900082922EB1C5B8B33F4FBB610567ACDD3F12
:104DA000182D4454FB21E93F9BF681D20B73EF3F52
:104DB000182D4454FB21F93FE2652F227F2B7A3CCA
:104DC000075C143326A6813CBDCBF07A8807703C83
:104DD000075C143326A6913CC4EB98999999C9BFF6
:104DE000711623FEC671BCBF6D9A74AFF2B0B3BF2B
:104DF0009AFDDE522DDEADBF2F6C6A2C44B4A2BFEB
:104E00000D5555555555D53FFF8300922449C23F56
:104E10006E204CC5CD45B73F513DD0A0660DB13F8A
:104E2000EB0D76244B7BA93F11DA22E33AAD903F9C
:104E30000000000000000000584E000800000020A4
:104E4000C4000000C40100081C4F0008C40000207A
:104E50006C070000E00100080000000001020304EC
:104E6000010203040607080900000000000000001A
:104E70000000000000000000000000000000000032
:104E8000DC05DC05E803DC05DC05DC05DC05DC0510
:104E90000000803F00000000000000000000000053
:104EA0000000000000000000000000000000000002
:104EB0007B14AE3DEB0FC33D00000000000000007E
:104EC00000000000000000000000000000000000E2
:104ED00000000000000000000000000000000000D2
:104EE00000000000000000000000000000000000C2
:104EF00000000000000000000000000000000000B2
:104F0000000000000000000000007A4400000000E3
:0C4F10000000803F0000000000000000D6
:040000050800018965
:00000001FF
