:020000040800F2
:10000000E026002029020008150C00080907000856
:10001000850B0008DB040008D7380008000000004A
:10002000000000000000000000000000212D00087A
:10003000DF0400080000000039030008792E0008E2
:100040004902000849020008490200084902000864
:100050004902000849020008490200084902000854
:100060004902000849020008490200084902000844
:100070004902000849020008490200084902000834
:100080004902000849020008490200084902000824
:100090004902000849020008490200084902000814
:1000A0004902000849020008490200084902000804
:1000B000C12F00084902000849020008490200084F
:1000C00049020008490200084902000849020008E4
:1000D00049020008A9360008490200084902000840
:1000E00049020008490200084902000849020008C4
:1000F00049020008490200084902000849020008B4
:1001000049020008490200084902000849020008A3
:100110004902000849020008490200084902000893
:100120004902000849020008490200084902000883
:100130004902000849020008490200084902000873
:100140004902000849020008490200084902000863
:100150004902000849020008490200084902000853
:100160004902000849020008490200084902000843
:100170004902000849020008490200084902000833
:10018000490200084902000800F002F800F03CF8BB
:100190000AA090E8000C82448344AAF10107DA45E2
:1001A00001D100F031F8AFF2090EBAE80F0013F0F8
:1001B000010F18BFFB1A43F001031847E03E00008F
:1001C000003F0000103A24BF78C878C1FAD852071F
:1001D00024BF30C830C144BF04680C6070470000C1
:1001E0000023002400250026103A28BF78C1FBD840
:1001F000520728BF30C148BF0B6070471FB503F0DE
:1002000093FB1FBD10B510BD00F025F91146FFF797
:10021000F5FF03F075FB00F043F903B4FFF7F2FFBD
:1002200003BC00F04BF900000B4880470B488047A7
:1002300003F066FBFEE7FEE7FEE7FEE7FEE7FEE70C
:10024000FEE7FEE7FEE7FEE7FEE70000044805499B
:10025000054A064B7047000083030008710200083E
:10026000E0200020E0260020E0220020E022002004
:1002700008480949094AA2F1040283588B50002A10
:10028000F9D107480749A1F104014FF00003435099
:100290000029F8D1BC400008000000209C000000AC
:1002A0009C0000204426000072B602B4EFF31181D6
:1002B00080F31188BFF34F8FBFF36F8F084602BCE6
:1002C00062B6704772B680F31188BFF34F8FBFF3E9
:1002D0006F8F62B6704772B64E484FF0FF010170E3
:1002E000002080F309884C48016881F3088801F0F8
:1002F000E1FC4A480121017049484A490A780270E4
:1003000049484A490A680260106880F30988EFF397
:10031000148040F0020080F31488BFF36F8FBDE8B3
:10032000F04F0FBCBDE8005006BC62B6084740481D
:100330004FF0805101607047EFF3098020E9F04FE2
:10034000394D29680860744601F0B4FC34483549D9
:100350000A78027035490A682A6044F0040E106871
:10036000B0E8F04F80F3098840F20002C0F20002CA
:1003700072B682F31188BFF34F8FBFF36F8F62B6EF
:1003800070472C48016841F4A0210160016811F414
:10039000003FFBD028484FF00201016027484FF092
:1003A000000141F0080141F4A84141F4803141F4D9
:1003B000800101601F48016841F08071016001689F
:1003C00011F0007FFBD01E484FF0000141F000010A
:1003D00041F4805141F0000141F0020101600168E7
:1003E00001F00C02082AFAD116484FF0000141F042
:1003F000050101601348144941604FF0000181601C
:100400004FF007010160114841F0A061016062B640
:100410007047000022ED00E074000020360000204C
:100420002B0000202C0000203C0000204400002075
:1004300004ED00E000380240003C02400438024075
:100440000838024010E000E01F48010020ED00E005
:10045000704770477047754600F02CF8AE460500AF
:100460006946534620F00700854618B020B5FFF7CF
:10047000EDFEBDE820404FF000064FF000074FF0C2
:1004800000084FF0000B21F00701AC46ACE8C009B2
:10049000ACE8C009ACE8C009ACE8C0098D467047BB
:1004A00010B50446AFF300802046BDE81040FFF7CA
:1004B000B4BE000000487047802000200149182089
:1004C000ABBEFEE7260002007047704770477047DA
:1004D0007047704770477047704700BFFEE770472E
:1004E00046F2A81300FB03F2114600E0491E002962
:1004F000FCDA70471CB50121084602F06DFB0120B3
:100500008DF8040000208DF80600202000900020C7
:100510008DF8070002208DF805006946014800F0BB
:1005200003F81CBD00000240F0B50A46002100237C
:10053000002400BF3DE0012505FA01F3156805EA36
:1005400003049C4234D105684F000326BE40B543E6
:10055000056015794E00B54006683543056015798C
:10056000012D02D01579022D16D185684F00032682
:10057000BE40B543856055794E00B5408668354329
:100580008560456801268E40B5434560456896798B
:100590008E40B6B235434560C5684F000326BE4065
:1005A000B543C560D5794E00B540C6683543C560D2
:1005B000491C1029BFD3F0BDF0B5002300244D071E
:1005C000ED0E02FA05F3CE1000F1200555F8265085
:1005D0004E07F70E0F26BE40B543CF1000F12006A0
:1005E00046F82750CE1000F1200555F8265045EA70
:1005F0000304CE1000F1200545F82640F0BD0AB1F5
:10060000018300E04183704710B500F0BDFA00217E
:100610006A2000F02FFA0221372000F02BFA702117
:10062000002000F03FF86021012000F03BF800219D
:10063000022000F037F80021372000F01BFA2021BB
:100640006A2000F017FA1E20FFF74AFF10BD0000D5
:1006500070B505460E4642F210740DE0641E5CB99A
:1006600009A002F096FB0A48008800F0020010B1D1
:1006700008A002F08EFB05E03146284600F052F853
:100680000128EBD100BF70BD4552524F520000000F
:1006900018540040493243204275732042757379E3
:1006A0000000000070B504460D460121134800F01B
:1006B0005AF813491148FFF7CBFF00223C210F489D
:1006C00000F0E2F80F490D48FFF7C2FF21460B4842
:1006D00000F0E2F80B49891E0848FFF7B9FF2946E8
:1006E000064800F0D9F80749891C0448FFF7B0FF15
:1006F0000121024800F043F870BD000000540040A2
:10070000010003008200070000BFFEE721B102885C
:1007100042F48062028004E002884FF6FF331A4000
:100720000280704770B50246002400250023002097
:10073000958A138B1B0445EA030626F07F4404EADE
:1007400001068E4201D1012000E0002070BD21B1E0
:10075000028842F00102028004E002884FF6FE7334
:100760001A400280704721B1028842F480720280F0
:1007700004E002884FF6FF631A400280704721B1FF
:10078000028842F40072028004E002884FF6FF53B0
:100790001A400280704700002DE9FF4704460D46CD
:1007A0000026B1460427DFF8CC80A6884FF6C0703B
:1007B0000640684602F040FADDF808802E48B8FB93
:1007C000F0F01FFA80F946EA0906A68020884FF665
:1007D000FE710840208000262849286888420CD8ED
:1007E00028684000B8FBF0F087B2042F00DA042735
:1007F0003E4309F10100208427E0E8884BF6FF71B1
:10080000884206D1286800EB4000B8FBF0F087B2C0
:1008100009E0286800EBC00101EB0010B8FBF0F024
:1008200087B247F48047C7F30B0008B947F00107C8
:1008300047F4004006434FF4967009FB00F04FF474
:100840007A7190FBF1F0401C2084A683208840F050
:100850000100208026884FF6F5300640A888698977
:10086000084306432680A889298908432081BDE8DA
:10087000FF87000000127A0040420F00A0860100AE
:100880000146088AC0B2704712B141F0010101E08F
:1008900001F0FE0101827047018270472DE9F05F8F
:1008A00006460F4690469946DDE90AAB3B2000F02C
:1008B0006BF804463C2000F067F8054645EA042042
:1008C00000B230803D2000F05FF804463E2000F08A
:1008D0005BF8054645EA042000B238803F2000F06E
:1008E00053F80446402000F04FF8054645EA04203E
:1008F00000B2A8F80000432000F046F80446442067
:1009000000F042F8054645EA042000B2A9F80000CC
:10091000452000F039F80446462000F035F8054639
:1009200045EA042000B2AAF80000472000F02CF8A5
:100930000446482000F028F8054645EA042000B2A5
:10094000ABF80000BDE8F09F10B500F01DF90121E3
:100950006B2000F08FF800216C2000F08BF809214B
:10096000192000F087F806211A2000F083F81821DA
:100970001B2000F07FF818211C2000F07BF82021BC
:100980006A2000F077F810BD70B5044601212148B7
:10099000FFF7E9FE20491F4800F042F80022D0216D
:1009A0001C48FFF771FF1D491A4800F039F821462D
:1009B0001848FFF771FF1949891C164800F030F8F4
:1009C00001211448FFF7CFFE1349124800F028F820
:1009D0000122D0210F48FFF757FF0F49491C0D484E
:1009E00000F01EF800210B48FFF790FE0121094896
:1009F000FFF7C5FE08493F31064800F011F80548E9
:100A0000FFF73EFF054601210248FFF77FFE28461B
:100A100070BD000000540040010003008200070088
:100A200070B505460E4642F210740DE0641E5CB9C6
:100A300009A002F0AEF90A48008800F0020010B1E7
:100A400008A002F0A6F905E031462846FFF76AFE45
:100A50000128EBD100BF70BD4552524F520000003B
:100A6000185400404932432042757320427573790F
:100A70000000000070B504460D4601211348FFF741
:100A800072FE13491148FFF7CBFF0022D0210F4817
:100A9000FFF7FAFE0F490D48FFF7C2FF21460B484A
:100AA000FFF7FAFE0B49891E0848FFF7B9FF2946F0
:100AB0000648FFF7F1FE0749891C0448FFF7B0FF1D
:100AC00001210248FFF75BFE70BD000000540040AA
:100AD00001000300820007002DE9F04106460F46A1
:100AE00090469E212520FFF7C5FF03212620FFF712
:100AF000C1FF86212720FFF7BDFF01216720FFF7F7
:100B0000B9FF4920FFF740FF04464A20FFF73CFFAA
:100B1000054645EA042000EE100AB8EEC00ADFEDF3
:100B2000180A80EE201A86ED001A4B20FFF72CFFE2
:100B300004464C20FFF728FF054645EA042000EE56
:100B4000100AB8EEC00ADFED0E0A80EE201A87ED1B
:100B5000001A4D20FFF718FF04464E20FFF714FF40
:100B6000054645EA042000EE100AB8EEC00ADFEDA3
:100B7000040A80EE201A88ED001ABDE8F08100001A
:100B80000000254400BFFEE700B587B001214805FD
:100B900002F032F80121022002F01EF802208DF846
:100BA000180001208DF81A004FF4407005900120C4
:100BB0008DF8190005A91548FFF7B6FC0422082195
:100BC0001248FFF7F9FC042209211048FFF7F4FC52
:100BD0000020ADF808004CF2503001904BF6FF7049
:100BE000ADF80A004FF48060ADF80E000001ADF8DA
:100BF00010000020ADF80C0001A90548FFF7CCFD5E
:100C000001210348FFF7A3FD07B000BD0004024027
:100C1000005400407047000070B5002100230F22EF
:100C2000C4781CB3174C246804F4E064C4F5E06491
:100C3000C4F30721C1F10404E3B20A4144789C40A3
:100C4000E1B28478144021430C07210E0E4C057844
:100C50006155047804F01F050124AC4005786D113E
:100C6000AD0005F1E025C5F8004109E0047804F085
:100C70001F050124AC40054D0678761145F8264045
:100C800070BD00000CED00E000E400E080E100E059
:100C900002490143024A1160704700000000FA0552
:100CA0000CED00E070B500240EE00021204600F0BD
:100CB000ECF8002504E0002000F06CF9681CC5B2D7
:100CC000802DF8DB601CC4B2082CEEDB70BD000088
:100CD0001CB50121022001F07FFF01208DF80400E6
:100CE0008DF806004FF48160009000208DF8070019
:100CF00001208DF8050069460648FFF715FC012222
:100D000091020448FFF77BFC012208210148FFF70C
:100D100076FC1CBD0004024070B50546002414E0BA
:100D20008020204100EA050208210F48FFF767FCF8
:100D3000012291020C48FFF762FC00224FF480610F
:100D40000948FFF75CFC601CC4B2082CE8DB0122F8
:100D500091020548FFF753FC00224FF480610248DE
:100D6000FFF74DFC70BD00000004024010B50122E9
:100D700008210A48FFF743FC012291020748FFF7C8
:100D80003EFC002208210548FFF739FC00224FF401
:100D900080610248FFF733FC10BD000000040240F0
:100DA00010B5002208210748FFF729FC0122910213
:100DB0000448FFF724FC012208210248FFF71FFC2A
:100DC00010BD00000004024070B5002406E00025BC
:100DD00000E06D1CB5F57A7FFBD3641CB4F57A7F17
:100DE000F5D3FFF775FFAE2000F0C4F8D52000F072
:100DF000C1F8802000F0BEF8A82000F0BBF83F202A
:100E000000F0B8F8D32000F0B5F8002000F0B2F8F8
:100E1000402000F0AFF8A12000F0ACF8C82000F0AE
:100E2000A9F8DA2000F0A6F8122000F0A3F881203B
:100E300000F0A0F8CF2000F09DF8D92000F09AF83B
:100E4000F12000F097F8DB2000F094F8302000F05B
:100E500091F8A42000F08EF8A62000F08BF88D20E9
:100E600000F088F8142000F085F8AF2000F082F838
:100E7000FFF718FF70BD10B50246012000E0504397
:100E80000B1EA1F10101FAD110BD70B505460C464B
:100E900045F0B00000F06EF8102141EA141000F0A7
:100EA00069F804F00F0000F065F870BD2DE9F0411D
:100EB00005460E461746721ED206110E6A1E5206CF
:100EC000100EFFF7E2FF002409E0A7F12001134A0A
:100ED00002EB0111085D00F05DF8601CC4B2082C43
:100EE000F3DB721ED206110E6A1E012303EB4202CF
:100EF000D0B2FFF7CAFF00240BE0A7F12001074A98
:100F000002EB011204F10801505C00F043F8601C90
:100F1000C4B2082CF1DBBDE8F0810000AA3A000859
:100F20002DE9F04781460E4690461F4600241DE0FD
:100F3000381B411E1020FFF79EFFB8FBF0F000F0B9
:100F40000F050A2D08DA05F13000C2B23019C1B21E
:100F50004846FFF7ABFF07E005F13700C2B2301992
:100F6000C1B24846FFF7A2FF601CC4B2BC42DFDB3F
:100F7000BDE8F08710B50446FFF7F8FE7820FFF7CC
:100F8000CBFE0020FFF7C8FE2046FFF7C5FEFFF7A7
:100F900007FF10BD10B50446FFF7E8FE7820FFF705
:100FA000BBFE4020FFF7B8FE2046FFF7B5FEFFF777
:100FB000F7FE10BD1D481E481E481F481F48204808
:100FC00020482148214822482248234823482448D1
:100FD00024482548254826482648274827482848A1
:100FE0002848294829482A482A482B482B482C4871
:100FF0002C482D482D482E482E482F482F48304841
:101000003048314831483248324833483348344810
:1010100034483548354836483648374837483848E0
:1010200038483948394800BF704700003439000853
:10103000383900083E390008403900083C390008BA
:101040004239000844390008463900084839000888
:101050004A3900084C3900084E3900085039000858
:101060005239000854390008563900085839000828
:101070005A3900085C3900085E39000860390008F8
:1010800062390008643900086639000868390008C8
:101090006A3900086C3900086E3900087039000898
:1010A0007239000874390008763900087839000868
:1010B0007A3900087C3900087E3900088039000838
:1010C0008239000884390008863900088A39000806
:1010D0008C3900088E390008903900089C0F0020D8
:1010E0001C14002096390008983900089A39000825
:1010F0009C3900089E390008A0390008A239000870
:10110000A4390008A639000892390008A839000857
:101110002DE9F04105460E46144600271DB904206E
:101120002070BDE8F08116B90C202070F9E7144852
:10113000007810B112202070F3E72878012808D039
:10114000022807D0032802D0042804D100E000BF01
:1011500000BF00BF02E001202070E2E700BF00BF37
:101160006020FFF7A1F8074600BF6E6100BF384658
:10117000FFF7A8F800BF0020207000BFD1E70000F3
:101180002900002010B500F019F801F0F3F801F083
:101190001FF901F03FF901F0BDF801F07DF801F011
:1011A000D3F901F0FDF901F075F901F09BF900F0B8
:1011B00065FE00F025F8FFF7FDFE10BD0B484FF46B
:1011C000807102E0491E002204C00029FAD1084AB9
:1011D000084B1A601A46126822F007021A600022B1
:1011E000054B1A806022054B1A607047541400208A
:1011F0005418002074000020780000207C0000209B
:101200007047000006480078012808D1054800789A
:10121000FF2804D203480078401C02490870704738
:10122000360000202900002010B500241D48007859
:10123000012835D100BF6020FFF736F8044600BF13
:101240001948007820B118480078401E16490870E7
:1012500015480078F8B915480078E0B901F008FAA7
:1012600013481449097850F82100134908601148BF
:1012700000781249097888420DD00F480068006C48
:10128000401C0D49096808640D480068401C0C4961
:101290000860FFF74CF800BF2046FFF713F800BFC7
:1012A00010BD000036000020290000202A00002088
:1012B000DC0500202C000020440000202B00002032
:1012C0001000002010B500240D480078012816D128
:1012D00000BF6020FEF7E8FF044600BF0948007821
:1012E00040B909480078FF2804D207480078401C1C
:1012F0000549087000BF2046FEF7E4FF00BF10BD9F
:1013000036000020290000202A00002010B500240B
:101310001748007801282AD100BF6020FEF7C4FFDB
:10132000044600BF13480078E0B913480078A0B124
:1013300011480078401E104908700846007838B9F6
:1013400000BF2046FEF7BEFF00BF01F051F90EE0DE
:1013500000BF2046FEF7B6FF09E000BF2046FEF7BB
:10136000B1FF04E000BF2046FEF7ACFF00BF10BD98
:1013700036000020290000202A00002070B5054614
:1013800000261348007808B1002070BD00BF60201F
:10139000FEF78AFF064600BF0E480468006820B1C9
:1013A0000C48006840680B49086000BF3046FEF7F3
:1013B00089FF00BF4CB103202070258100206060B0
:1013C00005A06061204600F059FF2046DDE70000DF
:1013D00029000020140000203F0000002DE9F0410A
:1013E00005460E46144600271DB904202070BDE8AE
:1013F000F0812878032802D001202070F7E73A48CE
:10140000007810B102202070F1E73848007810B160
:101410000D202070EBE700BF6020FEF745FF074678
:1014200000BF288950B12889401E288100BF384656
:10143000FEF748FF00BF00202070D8E72C48006866
:1014400090F8380040F001002949096881F8380017
:1014500000202749096881F839002548006846635B
:10146000284600F0CDFE00BF3846FEF72BFF00BF38
:1014700001F0BEF800BF6020FEF716FF074600BF70
:101480001B48006890F8390020B1012809D00228D3
:1014900006D102E0002020700BE00E20207008E052
:1014A00000BF29461248006800F076FE0A2020702E
:1014B00000BF00BF00200E49096881F838000C49C0
:1014C000096881F839000A490968C861084909684A
:1014D000086207490968486200BF3846FEF7F2FE15
:1014E00000BF00BF83E70000290000202A00002081
:1014F0003C00002070B5044600250CB9042070BDE6
:101500002078032801D00120F9E700BF6020FEF712
:10151000CBFE054600BFA07A70B100230122194618
:10152000204600F0EFFD00BF2846FEF7CBFE00BFCF
:1015300001F05EF80020E2E720894FF6FF71884253
:1015400009D22089401C208100BF2846FEF7BAFE40
:1015500000BF0020D3E700BF2846FEF7B3FE00BF60
:101560003320CCE710B50B48007890B901F080F833
:10157000094800780949087009480749097850F86E
:101580002100084908600846006807490860FEF71E
:10159000A2FE10BD360000202C0000202B000020F1
:1015A000DC050020440000203C00002010B504466B
:1015B0002046FEF78AFF10BD2DE9FE4F06460F4676
:1015C00090461C464FF000093F2C02D92A20BDE866
:1015D000FE8F00BF6020FEF767FE814600BF2548F2
:1015E000007830B100BF4846FEF76CFE00BF3C20DB
:1015F000EDE7214850F8240098BB01201E4941F82E
:10160000240000BF4846FEF75DFE00BF00234246AF
:101610003946304600F08EFA824600200090019054
:101620000346024651460290204601F037F805462F
:1016300035B912480078012811D100F0D9FF0EE029
:1016400000BF6020FEF730FE814600BF00200A493F
:1016500041F8240000BF4846FEF734FE00BF28468C
:10166000B5E7FFE700BF4846FEF72CFE00BF282085
:10167000ADE7000029000020DC0500203600002036
:101680002DE9F04F85B081468A4693461C46DDE938
:101690000F78129D002003903F2C03D92A2005B01B
:1016A000BDE8F08F00BF6020FEF7FEFD039000BF95
:1016B0002748007830B100BF0398FEF703FE00BF53
:1016C0003C20ECE7234850F82400C0BB012021490E
:1016D00041F8240000BF0398FEF7F4FD00BF2A463E
:1016E0004146384601F048F92B465A46514648468D
:1016F00000F020FA04901198CDE9008002953A4656
:1017000020460E9B049900F0C9FF064636B91248E0
:101710000078012811D100F06BFF0EE000BF6020BF
:10172000FEF7C2FD039000BF00200A4941F82400E3
:1017300000BF0398FEF7C6FD00BF3046AFE7FFE7E6
:1017400000BF0398FEF7BEFD00BF2820A7E70000FA
:1017500029000020DC0500203600002010B50446DA
:101760002046FEF7B3FE10BD2DE9F04105460027E7
:101770005448007810B14020BDE8F0813F2D01D1E0
:101780003E20F9E73F2D03D3FF2D01D02A20F3E7B8
:1017900000BF6020FEF788FD074600BFFF2D03D184
:1017A0004948006890F83A50484850F8254034B904
:1017B00000BF3846FEF786FD00BF4320DCE7012C62
:1017C00006D100BF3846FEF77DFD00BF3D20D3E7C0
:1017D00014F83C0F3E49085C6178884321783C4A04
:1017E000505414F83C091146085C30B994F83E1086
:1017F00038480078884337490870E06918B12046B6
:10180000E16900F0C9FC206A18B12046216A00F0A5
:10181000DAFCE66A16B1304600F06AFD002060632B
:1018200084F8380084F839002B480078FF2804D267
:1018300029480078401C2849087000BF3846FEF748
:1018400041FD00BF00F05CFC00BF6020FEF72CFDF6
:10185000074600BF2048007820B11F480078401E8E
:101860001D490870204600F043F81C480078401ECF
:101870001A4908700020154941F82500A06930B9BF
:1018800000206169886116496069086005E0D4E953
:1018900005014861D4E9051088611248006860615B
:1018A0001048046010A0606500BF3846FEF70AFDCE
:1018B00000BF0E480078012801D100F099FE0020F9
:1018C0005AE70000290000203C000020DC05002031
:1018D0002E0000202D0000202A00002037000020CC
:1018E00048000020400000203F000000360000209B
:1018F00010B504462046FEF7EAFD10BD10B5FEF710
:10190000E7FD10BD2DE9F04105460F4614464FF0A6
:1019100000083F2D05D9FF2D03D02A202070BDE8F7
:10192000F08117B90C202070F9E71948007810B140
:1019300012202070F3E700BF6020FEF7B5FC804660
:1019400000BFFF2D03D11348006890F83A501248A9
:1019500050F825603EB900BF4046FEF7B3FC00BF1B
:1019600043202070DBE7012E07D100BF4046FEF781
:10197000A9FC00BF43202070D1E7776500BF404637
:10198000FEF7A0FC00BF0020207000BFC7E70000EA
:10199000290000203C000020DC05002070B5054631
:1019A00000263F2D01D32A2070BD00BF6020FEF726
:1019B0007BFC064600BF2A4850F8254034B900BFDA
:1019C0003046FEF77FFC00BF4620EDE7012C06D134
:1019D00000BF3046FEF776FC00BF4320E4E794F8F2
:1019E000380000F0080098B314F8380F00F0F70042
:1019F000207014F8380900F0370010BB606BD8B9BC
:101A00003C34A078174909780843164908702078B3
:101A10001549085C6178084314F83C19124A50547F
:101A200000BF3046FEF74EFC00BF1048007801288A
:101A30000CD100F0DDFD09E000BF3046FEF742FCAE
:101A400004E000BF3046FEF73DFC00BF0020ABE7DE
:101A5000FFE700BF3046FEF735FC00BF4420A3E798
:101A6000DC0500202D0000202E0000203600002084
:101A700010B504462046FEF72CFD10BD10B5FEF74C
:101A800029FD10BD2DE9F04706460C464FF0000A2F
:101A90003F2E04D9FF2E02D02A20BDE8F0870CB9D2
:101AA0000920FAE700202060606000BF6020FEF798
:101AB000FBFB824600BFFF2E03D11C48006890F854
:101AC0003A601B4850F8265035B900BF5046FEF723
:101AD000F9FB00BF4320E0E7012D06D100BF5046CF
:101AE000FEF7F0FB00BF4320D7E7287C00F00100A1
:101AF00030B900BF5046FEF7E5FB00BF4520CCE7FC
:101B00000027D5F80C90D5F8088000BF5046FEF7A6
:101B1000D9FB00BF00E07F1C58F8041B0029FAD055
:101B20002760A9EB070060600020B6E73C000020BA
:101B3000DC05002070B50446101D20F007004FF0B2
:101B40008076051F28462E60051F28462C60244EEF
:101B5000051F28462E604FF01236051F28462E60BE
:101B60004FF00336051F28462E604FF00236051F42
:101B700028462E607610051F28462E60051F284631
:101B800029606FF00206051F28462E604FF01136BF
:101B9000051F28462E604FF01036051F28462E6080
:101BA0004FF00936051F28462E604FF00836051FF6
:101BB00028462E604FF00736051F28462E604FF04E
:101BC0000636051F28462E604FF00536051F2846AD
:101BD0002E604FF00436051F28462E6070BD0000B1
:101BE000352800082DE9F04105464FF000083F2D4B
:101BF00002D14720BDE8F0813F2D03D3FF2D01D056
:101C00002A20F7E700BF6020FEF74EFB804600BFAA
:101C1000FF2D05D12348006890F83A50012608E0CE
:101C20002048006890F83A00A84201D1012600E05F
:101C300000261D4850F8254034B900BF4046FEF745
:101C400041FB00BF4820D5E7012C06D100BF40462C
:101C5000FEF738FB00BF4320CCE794F83C701348F4
:101C6000C05D94F83D1088431049C8550846C05DD2
:101C700030B994F83E100E48007888430C4908703B
:101C800094F8380040F0080084F8380000BF40465F
:101C9000FEF718FB00BF012E01D100F0A9FC0020C7
:101CA000A8E700003C000020DC0500202E000020FA
:101CB0002D00002010B5FEF70EFC10BD70B50546D6
:101CC00000261A48007800B170BD1948007800B1AC
:101CD000FAE745B300BF6020FEF7E6FA064600BF0C
:101CE0001448006890F83C401348005D11490968A9
:101CF00091F83D108843104908550846005D40B9E9
:101D00000C48006890F83E100C48007888430B4956
:101D1000087008480068456300BF3046FEF7D2FAF5
:101D200000BF00F065FC00BFCEE7000029000020E6
:101D30002A0000203C0000202E0000202D00002062
:101D400070B5002600F07CF800BF6020FEF7ACFA0A
:101D5000064600BF34480068401C3349086000BF95
:101D60003046FEF7AFFA00BF30480078012858D15E
:101D70002F48007820B1012804D0022809D103E0BF
:101D800001250BE0002509E0012501202849087004
:101D900004E0012500202649087000BF00BF05B9F6
:101DA00070BD2448046838E000BF6020FEF77CFA6C
:101DB000064600BF606B50B3606B401E6063606B93
:101DC00028BB94F8380000F0370040B114F8380F01
:101DD00000F0C800207001206070383C02E0002054
:101DE00084F8390094F8380000F0080078B93C34E1
:101DF000A0781149097808430F49087020780F49E5
:101E0000085C6178084314F83C190C4A5054646922
:101E100000BF3046FEF756FA00BF94F83A003F285C
:101E2000C2D100BFBCE700005C00002036000020EB
:101E30004C000020480000202D0000202E00002033
:101E400010B5FEF749FB07480088401C054908808B
:101E500008460088642803D30020088000F004F8B6
:101E600010BD00007800002010B503480068FFF79F
:101E700041FB0446204610BD6C000020F8B54FF42D
:101E80002071284800F056FB3821274800F052FB0B
:101E9000002514E0681C86B205EB8500214901EBA2
:101EA000C00406EB860001EBC00764202070002010
:101EB00084F82500E7601DA02062681C85B20F2D04
:101EC000E8D305EB8500174901EBC00464202070BE
:101ED000002084F82500E06014A02062002014494E
:101EE0000860144908801020134908800D481349E0
:101EF00008600120FFF742FA114908600020FFF74F
:101F00003DFA104908606A460FA10D480068FFF7C6
:101F1000FFF86A4611A10B480068FFF7F9F800F0D6
:101F200027F8F8BD9C0F00201C1400203F00000083
:101F3000640000206200002060000020700000208B
:101F4000680000206C00002075432F4F532D494935
:101F500020546D724C6F636B0000000075432F4F6F
:101F6000532D494920546D725369676E616C0000AE
:101F700000B587B00320002180220A4BCDE9013251
:101F8000CDE903104FF6FD703D23074A0090074846
:101F9000FFF776FB06AA06A13D20FFF7B3FC07B0CA
:101FA00000BD00001C12002018140020352000087D
:101FB00075432F4F532D494920546D720000000086
:101FC000F0B50B46032580F82550012B05D1174E9F
:101FD000C5693668354445610CE085692DB9134EF5
:101FE000C56936683544456104E0104E8569366838
:101FF0003544456107264569B5FBF6F706FB1754DE
:102000000B4D05EBC4010D682DB908600025C560B6
:1020100001258D8006E00A680860C26010618D8825
:102020006D1C8D8000250561F0BD0000640000205E
:102030001C14002008B500BF00BF6A4600211B48E1
:102040000068FFF7CBF9FFF73DF919480068401C1D
:1020500017490860084600680721B0FBF1F201FB50
:102060001208144800EBC8073C681AE0E6681049FB
:1020700060690968884213D1204600F01DF894F881
:102080002400022804D101212046FFF799FF02E035
:10209000022084F82500656815B12046A168A8478C
:1020A0003446002CE2D1FFF731F9C6E76C0000207E
:1020B000640000201C140020F0B507264569B5FB1C
:1020C000F6F706FB17540D4D05EBC4021568854263
:1020D00005D1C168116039B100250D6104E00169C5
:1020E000C368CB6003B11961012580F82550002534
:1020F000C560056195886D1E9580F0BD1C1400209B
:10210000704700002DE9F04F05460F46904699466E
:10211000A87A1D490E5C05F10B00805D11F800B036
:102120000BEBC60000F0FF0A184850F82A400020C8
:102130002834E0602760207C20EA0800207484F8BE
:102140001190207C283C00F0080068B994F83E000B
:102150000F49097808430E4908700E48805D94F8CD
:102160003D1008430B4988552946204600F014F8D5
:10217000206A30B12046216A00F025F80020206254
:1021800065625046BDE8F08FAA390008DC050020E2
:102190002D0000202E00002010B590F83C2001F109
:1021A0000B039B5C90F83D40A34301F10B04A35447
:1021B00023469B5C23B98B7A90F83E40A3438B72F5
:1021C0000023C36110BDF0B5024612F83C4F95786C
:1021D00056783C3A0B4618680FE000F10B073F5D5C
:1021E000B74300F10B0C0CF8047067463F5D17B95C
:1021F000877AAF4387721B1D18680028EDD1F0BDA8
:1022000010B51B4A1268D061194A126892F83C3026
:1022100000F10B02D25C164B1B6893F83D301A4359
:10222000134B1B6893F83C4000F10B031A55827A5C
:102230000F4B1B6893F83E301A4382720C4A1268A7
:1022400092F83C100B4A525C094B1B6893F83D30E6
:102250009A43084B5A541A46525C42B9044A1268CF
:1022600092F83E30044A12789A43034B1A7010BD1C
:102270003C0000202E0000202D00002001460022FE
:102280008A72002005E0002301F10B021354421C66
:10229000D0B20828F7D370472DE9F04150211148FA
:1022A00000F048F900250DE0681C86B20D4800EBEF
:1022B000051400EB06170020207067600AA0E0609C
:1022C000681C85B2042DEFD3064800EB05140020EE
:1022D0002070606004A0E060024804490860BDE826
:1022E000F08100008C0100203F0000001800002059
:1022F00030B501464A6808682AB9CC68606028B1E0
:102300000025456002E0106000B142608B68002546
:10231000DD6230BD70B5F021134800F00BF90024E8
:1023200011E0601C85B204EB44000F4901EBC003CF
:1023300005EB450001EBC006002018705E600BA0A5
:102340005861601C84B2092CEBD304EB44000649AD
:1023500001EBC00300201870586004A058610846C3
:102360000349086070BD00009C0000203F00000091
:102370001400002000200B4908600B4908700B492D
:1023800008700B4908700B4908700B4908600B492D
:1023900008600B4908600B4908600B4908700B493D
:1023A000087070475C000020290000202A000020EF
:1023B00037000020360000201000002038000020E8
:1023C00024000020200000202800002058000020C9
:1023D00000210A4A1170002004E00021084A11542B
:1023E000411CC8B20828F8D30021064A1170064AD9
:1023F0001170064A1160064A116070472D000020D6
:102400002E0000202B0000202C0000204400002083
:102410003C00002070B54FF4FD61194800F08AF8C7
:102420004FF48071174800F085F8002413E0601C19
:10243000C5B2C4EBC40000EB0410114901EB8003EA
:10244000C5EBC50000EB051001EB80065E610EA038
:102450005865601CC4B2152CE9D3C4EBC40000EB72
:102460000410074901EB80030020586106A058655D
:1024700000200649086002480549086070BD000058
:10248000DC060020DC0500203F00000048000020A2
:102490004000002000B587B00320002180220A4BB5
:1024A000CDE90132CDE903104FF6FF703F23074A13
:1024B00000900748FFF7E4F806AA06A13F20FFF7BF
:1024C00021FA07B000BD0000DC030020D805002081
:1024D0000528000875432F4F532D49492049646C46
:1024E0006500000000B587B00320002180220A4B60
:1024F000CDE90132CDE903104FF6FE703E23074AC5
:1025000000900748FFF7BCF806AA06A13E20FFF797
:10251000F9F907B000BD0000DC010020D80300205D
:102520004D28000875432F4F532D4949205374619E
:102530007400000004E0002200F8012B4A1E91B252
:102540000029F8D17047000070B578211148FFF7D5
:10255000F1FF00240EE004EB44000E4901EBC0053E
:10256000601C00EB400001EBC00068600AA06861DD
:10257000601C84B2042CEED304EB4400054901EB4B
:10258000C0050020686004A068610846034908602F
:1025900070BD0000C40E00203F000000500000206D
:1025A0002DE9F04160211048FFF7C4FF00240DE041
:1025B000601C86B204EB44000B4901EBC00506EB3E
:1025C000460001EBC0072F60601C84B2032CEFD3E0
:1025D00004EB4400044901EBC005002028600846D4
:1025E00002490860BDE8F0813C0F00205400002043
:1025F00010B5002400BF6020FDF756FE044600BF62
:1026000014480078F8B914480078E0B900F030F8C0
:1026100012481349097850F82100124908601048FF
:1026200000781149097888420DD00E480068006C86
:10263000401C0C49096808640C480068401C0B49A0
:102640000860FDF774FE00BF2046FDF73BFE00BFAB
:1026500010BD0000290000202A000020DC05002019
:102660002C000020440000202B000020100000203F
:102670000649074A1278885C0649095C034A515C9E
:1026800001EBC001044A117070470000AA3900082C
:102690002D0000202E0000202C0000202DE9F84FF6
:1026A00005460F4690469946DDE90AAB00200090AA
:1026B00000BF6020FDF7F8FD009000BF4A480468A5
:1026C000002C7DD048496069086000BF0098FDF784
:1026D000F9FD00BF203444F8207CA5760020207648
:1026E0006076606144F81CBC44F814AC44F8188C63
:1026F0000C9824F8100C24F80E9C0020E077E810C9
:10270000207705F00700E076217F01208840A07740
:10271000E17E012088406077002044F8040C2060AE
:102720006060E060A0602062A0626062E06220639E
:102730002EA06063203C002606E0002104F1580032
:1027400040F82610701CC6B2002EF6D02046FEF7C8
:102750002DFF00BF6020FDF7A7FD009000BF2448BB
:1027600040F8254000BF0098FDF7ACFD00BF2046B3
:10277000FEF7F4FF00BF6020FDF796FD009000BF5C
:102780001C48006860610020A0611A48006810B110
:10279000184800688461174804603C34A0781649E2
:1027A000097808431449087020781449085C617856
:1027B000084314F83C19114A50541148007800E0BD
:1027C0000AE0401C0E49087000BF0098FDF77AFD32
:1027D00000BF0020BDE8F88F00BF0098FDF772FD34
:1027E00000BF4220F6E70000400000203F0000004C
:1027F000DC050020480000202D0000202E000020D5
:1028000037000020002400BF00BF6020FDF74CFD12
:10281000044600BF06480068401C0549086000BF28
:102820002046FDF74FFD00BFFFF768F8ECE700001A
:102830003800002010B504480068FFF719F9FF20A0
:10284000FEF792FF10BD00003C000020002500BFF5
:1028500002E0C820FFF732FA334800780028F8D0A9
:10286000324800686421B0FBF1F030490860084646
:10287000006828B900202E490870FF20FFF7B2F940
:1028800000BF6020FDF710FD054600BF2748006827
:10289000642148432749086000BF2846FDF712FD20
:1028A00000BF00BF0120FFF709FA00BF6020FDF75D
:1028B000FBFC054600BF00201E49086000BF2846FB
:1028C000FDF700FD00BF6420FFF7F8F900BF6020AE
:1028D000FDF7EAFC054600BF164800681649086087
:1028E00000BF2846FDF7EEFC00BF134800680F4903
:1028F0000968B0FBF1F040B2C0F1640044B2002CB2
:1029000002DB0B490C7009E00020094908700A48F5
:1029100000686421B0FBF1F004490860FFF7AEF8ED
:1029200000F00CF8BEE70000280000202000002086
:102930001C00002038000020240000207CB5002569
:1029400014E069462846FFF79DF8064666B909482F
:1029500050F8254044B1012C06D0D4E9020100EB27
:102960008100E06401982065681CC5B23F2DE8D95C
:102970007CBD0000DC05002002F0010343B102F041
:1029800002032BB102E0491E002308C00029FAD13E
:102990007047000000B589B00121084600F01CF91D
:1029A0000121084600F028F9012211462C48FDF7C4
:1029B00003FE02208DF8200007908DF823000320ED
:1029C0008DF8210007A92648FDF7AEFD0020ADF8DF
:1029D0001800ADF812005320ADF810004FF6FF704C
:1029E000059000208DF81A0004A94FF0804000F0F7
:1029F0003DFD0420ADF804000F20ADF80C000020D0
:102A0000ADF80600ADF80A000120ADF8080001A9F4
:102A1000800700F052FB60214FF0804000F0DFFCA7
:102A20000421080700F0E4FC01220421080700F05B
:102A30007BFB4FF4A060FEF72BF91C208DF8000003
:102A400001208DF803008DF801008DF80200684622
:102A5000FEF7E2F80121880700F020FB09B000BD75
:102A60000000024000B58DB00121022000F0C4F842
:102A70000121084600F0B0F80121022000F0ACF876
:102A8000022206213D48FDF797FD022207213B481F
:102A9000FDF792FD022200213948FDF78DFD02224B
:102AA00001213748FDF788FD02208DF83000002015
:102AB0008DF8320001208DF83300C0200B900220E9
:102AC0008DF831000BA92D48FDF72EFD02208DF861
:102AD000280000208DF82A0001208DF82B0003200B
:102AE000099002208DF8290009A92548FDF71CFD51
:102AF000244800F022FB0020ADF82000ADF81A00B9
:102B000041F2873007905320ADF8180000208DF86F
:102B1000220006A91B4800F0A9FC6020ADF80400C3
:102B20000020ADF810000120ADF806000020039051
:102B300001A9144800F008FB0821124800F042FBEC
:102B400001A9104800F048FB08210E4800F096FB50
:102B500001A90C4800F0A0FB08210A4800F0ECFB9A
:102B600001A9084800F0F2FB0821064800F02AFC01
:102B70000121044800F092FA0DB000BD00000240AF
:102B8000000402400004004010B5044621460248FB
:102B900000F037FC10BD00000004004010B50446F2
:102BA0002146024800F02FFC10BD00000004004048
:102BB00010B504462146024800F027FC10BD000075
:102BC0000004004010B504462146024800F01FFCF6
:102BD00010BD00000004004029B1064A12680243FB
:102BE000044B1A6004E0034A12688243014B1A60E6
:102BF000704700003038024029B1064A126802438B
:102C0000044B1A6004E0034A12688243014B1A60C5
:102C1000704700004038024029B1064A126802435A
:102C2000044B1A6004E0034A12688243014B1A60A5
:102C30007047000044380240F0B500210022002413
:102C4000022500260223324F3F6807F00C0121B114
:102C5000042905D0082937D105E02E4F076036E05A
:102C60002D4F076033E02A4F3F1F3F68C7F3805660
:102C7000274F3F1F3F6807F03F036EB1264FB7FB5A
:102C8000F3F7DFF88CC0ACF1040CDCF800C0CCF337
:102C9000881C07FB0CF40CE01E4FB7FBF3F7DFF8C2
:102CA00070C0ACF1040CDCF800C0CCF3881C07FB4E
:102CB0000CF4174F3F1F3F68C7F301477F1C7D008F
:102CC000B4FBF5F7076002E0124F076000BF00BFDA
:102CD0000F4F3F6807F0F0010909104F7A5C076851
:102CE000D74047600A4F3F6807F4E051890A0B4F0D
:102CF0007A5C4768D7408760054F3F6807F46041BA
:102D0000490B064F7A5C4768D740C760F0BD0000AA
:102D1000083802400024F40040787D0100000020C3
:102D2000704710B50246012000E050430B1EA1F190
:102D30000101FAD110BD000010B504462146054836
:102D400000F0C5FD00BF8021024800F0F4FC00281F
:102D5000F9D010BD001001402DE9F04106460C46A7
:102D6000002512E0601B411E0A20FFF7DAFFB6FBC8
:102D7000F0F00A21B0FBF1F201FB120000F1300784
:102D80003846FFF7D9FF681CC5B2A542EADBBDE8AB
:102D9000F08170B50446002504E0605DFFF7CCFFCC
:102DA000681CC5B2605D0028F7D170BD00B587B062
:102DB00001211020FFF730FF01210846FFF70CFF2B
:102DC000072209212A48FDF7F7FB07220A21284894
:102DD000FDF7F2FB02208DF8180000208DF81A0094
:102DE0004FF4C060059001208DF81B0002208DF883
:102DF000190005A91E48FDF797FB072209211C4869
:102E0000FDF7DAFB07220A211948FDF7D5FB4FF43D
:102E1000FA3001900020ADF810000C20ADF80E0043
:102E20000020ADF80C00ADF80A00ADF8080001A9CB
:102E3000104800F0DDFC012240F225510D4800F061
:102E4000B1FC4FF4A060FDF723FF25208DF80000B2
:102E500001208DF803008DF801008DF8020068460E
:102E6000FDF7DAFE0121034800F059FC07B000BD70
:102E7000000002400010014010B500BF6020FDF7C7
:102E800013FA044600BFFEF7BDF900BF2046FDF768
:102E900019FA00BFFEF754FFFEF7C6F910BDF0B5F2
:102EA0000C46154600210022068C4FF6FE773E4068
:102EB0000684018B028C4FF60C7631407E1C06EAAC
:102EC00003162E4331434FF6F576324044F00106A7
:102ED000324301830284F0BDF0B50C461546002153
:102EE00000220026078C4FF6EF7C07EA0C070784C8
:102EF000018B028C4FF6FF7707EA041640F6FF4776
:102F000039404FF6FF7707EA033739434FF6FF772B
:102F100007EA052739434FF65F773A4046F0100736
:102F20003A4301830284F0BDF0B50C4615460021FA
:102F300000220026078C4FF6FF6C07EA0C07078477
:102F4000818B028C4FF6FF7707EA04264FF60C7749
:102F500039404FF6FF7707EA03172F4339434FF203
:102F6000FF573A4046F480773A4381830284F0BDAC
:102F7000F0B50C461546002100220026078C4EF6BF
:102F8000FF7C07EA0C070784818B028C4FF6FF77E2
:102F900007EA043640F6FF4739404FF6FF7707EA65
:102FA000052739434FF6FF7707EA0337394345F6DC
:102FB000FF773A4046F480573A4381830284F0BD5C
:102FC00010B54FF08040008A00F00400002854D073
:102FD0004FF0804000F06EF828490860084600680D
:102FE00040F69801884202DC012025490860244807
:102FF0000068012839D1214800682249224A126814
:1030000041F8220020480068401C1F49086008461B
:103010000068072829DD0020194908601A4908605E
:103020001848008919491A4A127821F812001848DC
:103030000078401C052190FBF1F201FB12001449BD
:10304000087014480078052805DA12480078401CFA
:103050001049087009E010480078401C052190FBD9
:10306000F1F201FB12000C4908704FF08040008A19
:1030700020F004004FF08041088210BD8400002041
:1030800088000020541800208C00002074180020B4
:10309000980000209A0000209900002021B10288A9
:1030A00042F00102028004E002884FF6FE731A40EB
:1030B000028070470146886B704770B505460C4624
:1030C000208850B92389A28861882846FFF7E7FE47
:1030D000E188284600F09DF925E0208804280AD1DF
:1030E0002389A28861882846FFF7F6FEE1882846F2
:1030F00000F098F917E0208808280AD12389A288CF
:1031000061882846FFF710FFE188284600F097F90C
:1031100009E02389A28861882846FFF729FFE18812
:10312000284600F095F970BD1AB183890B4383815D
:1031300002E083898B438381704701894FF6F872DF
:10314000114001817047000070B500240022002367
:10315000058C4FF6FE7635400584028C8388048BFF
:103160004FF68F752C40B51E2C400D882C43751ED4
:103170002A408D892A434D882A43104DA84202D007
:103180000F4DA84213D14FF6F7752A40CD892A4337
:103190004FF6FB752A408D882A434FF6FF652B407A
:1031A0004FF6FF552B400D8A2B434D8A2B438380CE
:1031B00004838D684563028470BD000000000140F7
:1031C000000401400A460021018B4FF6F7731940B5
:1031D000114301837047000070B5002400220023D2
:1031E000058C4FF6EF7635400584028C8388048B7E
:1031F00048F6FF752C404FF6FF452C400D884FF6E2
:10320000FF7606EA05252C434FF6DF752A408D89A7
:1032100006EA05152A434D8806EA05152A43154D89
:10322000A84202D0144DA8421DD14FF67F752A4006
:10323000CD894FF6FF7606EA05152A434FF6BF758E
:103240002A408D8806EA05152A434FF6FF352B40A4
:103250004FF2FF752B400D8A06EA85052B434D8AF8
:1032600006EA85052B43838004838D688563028489
:1032700070BD000000000140000401400A4600212A
:10328000018B4FF2FF7319404FF6FF7303EA0223DD
:10329000194301837047000070B500240022002309
:1032A000058C4FF6FF6635400584028C8388848B3D
:1032B0004FF68F752C404FF6FC752C400D882C4333
:1032C0004FF6FF552A408D894FF6FF7606EA052511
:1032D0002A434D8806EA05252A43154DA84202D007
:1032E000144DA8421DD14FF2FF752A40CD894FF6EB
:1032F000FF7606EA05252A434FF6FF352A408D88DA
:1033000006EA05252A434EF6FF752B404DF6FF755C
:103310002B400D8A06EA05152B434D8A06EA051552
:103320002B43838084838D68C563028470BD000055
:1033300000000140000401400A460021818B4FF645
:10334000F7731940114381837047000070B5002264
:1033500000230024058C4EF6FF7635400584038C4F
:103360008488828B48F6FF752A404FF6FF452A4035
:103370000D884FF6FF7606EA05252A434DF6FF75C0
:103380002B408D8906EA05352B434D8806EA053525
:103390002B430A4DA84202D0094DA84208D14BF652
:1033A000FF752C400D8A4FF6FF7606EA85152C43F3
:1033B000848082838D680564038470BD00000140B1
:1033C000000401400A460021818B4FF2FF7319402F
:1033D0004FF6FF7303EA02231943818370470A46BD
:1033E000002101894FF68F73194011430181704705
:1033F00002894FF6F8731A40028102890A4302815A
:1034000070474163704781637047C16370470164CF
:103410007047028B4FF6F3731A400283028B0A4304
:1034200002837047028B4FF2FF331A400283028BF4
:103430004FF6FF7303EA01231A4302837047828B1E
:103440004FF6F3731A408283828B0A43828370475C
:10345000828B4FF2FF331A408283828B4FF6FF73C9
:1034600003EA01231A438283704700000022028886
:10347000184B98420ED0184B98420BD0B0F1804FA9
:1034800008D0164B984205D0154B984202D0154BE8
:10349000984204D14FF68F731A404B881A43124B4F
:1034A000984207D0114B984204D04FF6FF431A4080
:1034B0000B891A4302804B68C3620B880385054B56
:1034C000984202D0044B984201D18B7A03860123A3
:1034D0008382704700000140000401400004004066
:1034E00000080040000C00400010004000140040A4
:1034F00009E001210620FFF72FFC0620FEF772FBF2
:103500006420FCF7EDFFF4E78CB055E001210720C3
:10351000FFF722FC06A807A908AB09AACDE900100D
:103520000AA90BA8FDF7BAF903AA04A905A8FDF793
:10353000D3FA0523BDF92C2001210220FDF7F0FC70
:103540000523BDF9282001210320FDF7E9FC05230F
:10355000BDF9242001210420FDF7E2FC0523BDF97B
:10356000202008210220FDF7DBFC0523BDF91C20EB
:1035700008210320FDF7D4FC0523BDF918200821FC
:103580000420FDF7CDFC05239DED050ABCEEC00A25
:1035900010EE102A01210846FDF7C2FC05239DED1F
:1035A000040ABCEEC00A10EE102A08210120FDF723
:1035B000B7FC6420FCF794FFA8E7000010B50446B0
:1035C00008200C49087005230B4A00210B48FDF721
:1035D000F3FF07230A4A00210A48FDF7EDFF0623FF
:1035E000094A00210948FDF7E7FF0420FEF7FAFA2F
:1035F00010BD0000800000207C1A00201136000859
:103600007C1C0020093500087C1E0020F1340008D5
:103610003FE0002500BF6020FCF746FE044600BFE7
:103620001C480078002813DD1B49097809B90421DA
:1036300002E019490978491EC8B2184931F81050FA
:1036400015490978164A11700021124A117000BFFD
:1036500000BF2046FCF736FE00BF0E480078002869
:1036600003DC1048006801280FD12846FFF78CFAC8
:103670002846FFF793FA2846FFF79AFA2846FFF7FD
:10368000A1FA01210520FFF767FB6420FEF716FB76
:1036900000BFBEE79A0000209800002074180020A8
:1036A000990000208800002010B5FDF7ABFD40F226
:1036B00025510F4800F04CF8B0B10D4800F002F968
:1036C0000C4908700C480078062802D1FEF78AFAE7
:1036D00002E00620FEF762F901200849087040F276
:1036E0002551034800F00CF8FDF79EFD10BD0000C9
:1036F00000100140800000202B00002081000020ED
:1037000010B50022002340F66A14A14200D100BF88
:103710000A1201249440A3B2DC43048010BD21B1FD
:10372000828942F40052828104E082894DF6FF735F
:103730001A408281704702460020B1F5007F00D117
:1037400000BF13880B400BB1012000E00020704740
:1037500070B50246002400230025002040F66A16BA
:10376000B14200D100BFC1F3421501F01F03012691
:1037700006FA03F3012D02D19689334006E0022DAB
:1037800002D1168A334001E0968A33400C1201269A
:1037900006FA04F41688344013B10CB1012000E09D
:1037A000002070BDF0B5034600240026002500204F
:1037B00040F66A17B94200D100BF1846C1F342145F
:1037C00001F01F06012707FA06F5012C01D10C3084
:1037D00004E0022C01D1103000E014301AB1076867
:1037E0002F43076002E00768AF430760F0BD0000A9
:1037F0002DE9FF4705460E460024A14600BFA0461E
:10380000B08900B100BF2C8A24F44054F0880443EE
:103810002C82AC8941F20C608443B0883189084322
:10382000718908430443AC81AC8A24F44074B089A4
:103830000443AC826846FFF7FFF92048854202D076
:103840001F48854202D1DDF80C9001E0DDF80890B8
:10385000A88900F4004040B109EBC90000EB091051
:1038600031684900B0FBF1F707E009EBC90000EB54
:10387000091031688900B0FBF1F76420B7FBF0F064
:1038800004012009642101FB1078A88900F400409C
:1038900040B1322000EBC800B0FBF1F000F00700AF
:1038A000044308E0322000EB08106421B0FBF1F083
:1038B00000F00F0004432C81BDE8FF870010014099
:1038C0000014014001468888C0F308007047C1F326
:1038D00008028280704700BFFEE710B5FDF774FA5A
:1038E000FFF764FAFDF750F9FDF72EF8FCF702FE3A
:1038F000FCF78AFEFFF7B6F8FFF74CF810BD0000A2
:1039000010B5FFF7EAFFFDF73DFC0423044A002150
:103910000448FDF751FEFDF725FE002010BD000014
:103920007C200020BD3500084FF04070E1EE100A09
:1039300070470000010000007856341201000A00B0
:1039400001001800F0000100010010001400020046
:10395000050001003F000100010005000100180002
:1039600078000100040001000400180008000100B4
:1039700004000100010001008000010016000100A8
:103980000100800001000100010040005C00E8032C
:1039900001007472000001001000010007000A001D
:1039A0002800800208003800131400000100020003
:1039B00001000300010002000100040001000200F8
:1039C00001000300010002000100050001000200E7
:1039D00001000300010002000100040001000200D8
:1039E00001000300010002000100060001000200C6
:1039F00001000300010002000100040001000200B8
:103A000001000300010002000100050001000200A6
:103A10000100030001000200010004000100020097
:103A20000100030001000200010007000100020084
:103A30000100030001000200010004000100020077
:103A40000100030001000200010005000100020066
:103A50000100030001000200010004000100020057
:103A60000100030001000200010006000100020045
:103A70000100030001000200010004000100020037
:103A80000100030001000200010005000100020026
:103A90000100030001000200010004000100020017
:103AA000010003000100020001000000000000000E
:103AB00000000000000000000000000000F800000E
:103AC0000000000000333000000000100C06100C55
:103AD0000600000000000000000040C07840C078F0
:103AE0004000043F04043F040400007088FC0830D8
:103AF0000000001820FF211E0000F008F000E01870
:103B0000000000211C031E211E0000F00888700028
:103B100000001E2123241927211010160E0000007A
:103B200000000000000000000000000000E0180499
:103B30000200000000071820400000020418E00006
:103B400000000040201807000000404080F0804046
:103B500040000202010F01020200000000F000001C
:103B600000000101011F0101010000000000000030
:103B7000000080B0700000000000000000000000A5
:103B8000000000010101010101010000000000002E
:103B900000000030300000000000000000008060E5
:103BA0001804006018060100000000E0100808106A
:103BB000E000000F102020100F00001010F800008F
:103BC00000000020203F2020000000700808088826
:103BD00070000030282422213000003008888848F6
:103BE00030000018202020110E000000C02010F826
:103BF000000000070424243F240000F808888808F7
:103C000008000019212020110E0000E010888818FB
:103C10000000000F112020110E0000380808C838DD
:103C200008000000003F00000000007088080888BD
:103C30007000001C222121221C0000E01008081046
:103C4000E0000000312222110F00000000C0C0007F
:103C50000000000000303000000000000080000084
:103C60000000000080600000000000008040201084
:103C7000080000010204081020004040404040407D
:103C800040000404040404040400000810204080E0
:103C90000000002010080402010000704808080815
:103CA000F0000000003036010000C030C828E810E5
:103CB000E0000718272423140B000000C038E000A0
:103CC0000000203C23020227382008F888888870EA
:103CD0000000203F202020110E00C03008080808F6
:103CE0003800071820202010080008F808080810DD
:103CF000E000203F202020100F0008F88888E80806
:103D00001000203F20202320180008F88888E808A9
:103D10001000203F200003000000C03008080838D1
:103D2000000007182020221E020008F808000008E2
:103D3000F808203F210101213F20000808F8080869
:103D400000000020203F2020000000000808F808A4
:103D50000800C08080807F00000008F888C0281814
:103D60000800203F20012638200008F80800000045
:103D70000000203F20202020300008F8F800F8F84C
:103D80000800203F003F003F200008F830C0000836
:103D9000F808203F200007183F00E010080808102E
:103DA000E0000F10202020100F0008F80808080875
:103DB000F000203F210101010000E0100808081078
:103DC000E0000F18242438504F0008F888888888AD
:103DD0007000203F2000030C302000708808080885
:103DE00038000038202121221C00180808F8080893
:103DF00018000000203F2000000008F8080000081C
:103E0000F808001F202020201F000878880000C824
:103E10003808000007380E010000F80800F8000814
:103E2000F800033C0700073C03000818688080681E
:103E3000180820302C03032C30200838C800C8385C
:103E400008000000203F2000000010080808C838C3
:103E500008002038262120201800000000FE020261
:103E600002000000007F40404000000C30C0000015
:103E70000000000000010638C00000020202FE003F
:103E80000000004040407F000000000004020202E9
:103E9000040000000000000000000000000000001E
:103EA000000080808080808080800002020400000A
:103EB0000000000000000000000000008080808002
:103EC00000000019242222223F2008F800808000F0
:103ED0000000003F112020110E00000000808080B3
:103EE0000000000E112020201100000000808088BA
:103EF000F800000E112020103F20000080808080FC
:103F00000000001F222222221300008080F08888F7
:103F100088180020203F2020000000008080808042
:103F20008000006B94949493600008F80080808077
:103F30000000203F210000203F20008098980000D2
:103F400000000020203F2020000000000080989802
:103F5000000000C08080807F000008F800008080A2
:103F60008000203F24022D302000000808F80000C7
:103F700000000020203F2020000080808080808082
:103F80008000203F20003F20003F80800080808014
:103F90000000203F210000203F2000008080808022
:103FA0000000001F202020201F0080800080800053
:103FB000000080FFA12020110E0000000080808002
:103FC0008000000E112020A0FF8080808000808073
:103FD000800020203F2120000100000080808080A0
:103FE00080000033242424241900008080E0808095
:103FF00000000000001F20200000808000000080E2
:104000008000001F202020103F2080808000008042
:10401000808000010E300806010080800080008052
:1040200080800F300C030C300F00008080008080F7
:1040300080000020312E0E31200080808000008022
:10404000808080818E7018060100008080808080D2
:1040500080000021302C2221300000000000807CF4
:10406000020200000000003F404000000000FF008E
:10407000000000000000FF0000000002027C800041
:1040800000000040403F0000000000060101020265
:10409000040400000000000000000000BC40000814
:1040A000000000209C000000C401000858410008E6
:1040B0009C00002044260000E001000800000000F1
:1040C00001020304010203040607080900000000BE
:1040D00000000000000000000000000000000000E0
:1040E00000000000000000000000000000000000D0
:1040F00000000000000000000000000000000000C0
:1041000000000000000000000000000000000000AF
:10411000000000000000000000000000000000009F
:10412000000000000000000000000000000000008F
:10413000000000000000000000000000000000007F
:10414000000000000000000000000000000000006F
:08415000000000000000000067
:040000050800018965
:00000001FF
