:020000040800F2
:10000000D806002029020008511100084F050008F9
:10001000F50F0008FF020008031C000800000000A4
:10002000000000000000000000000000E1160008D1
:100030000303000800000000B5150008BD19000802
:10004000430200084302000843020008430200087C
:10005000430200084302000843020008430200086C
:10006000430200084302000843020008430200085C
:10007000430200084302000843020008430200084C
:10008000430200084302000843020008430200083C
:10009000430200084302000843020008430200082C
:1000A000430200084302000843020008430200081C
:1000B000430200084302000843020008430200080C
:1000C00043020008430200084302000843020008FC
:1000D00043020008491A00084302000843020008CE
:1000E00043020008430200084302000843020008DC
:1000F00043020008430200084302000843020008CC
:1001000043020008430200084302000843020008BB
:1001100043020008430200084302000843020008AB
:10012000430200084302000843020008430200089B
:10013000430200084302000843020008430200088B
:10014000430200084302000843020008430200087B
:10015000430200084302000843020008430200086B
:10016000430200084302000843020008430200085B
:10017000430200084302000843020008430200084B
:10018000430200084302000800F002F800F03CF8C7
:100190000AA090E8000C82448344AAF10107DA45E2
:1001A00001D100F031F8AFF2090EBAE80F0013F0F8
:1001B000010F18BFFB1A43F001031847AC380000C9
:1001C000CC380000103A24BF78C878C1FAD852075A
:1001D00024BF30C830C144BF04680C6070470000C1
:1001E0000023002400250026103A28BF78C1FBD840
:1001F000520728BF30C148BF0B6070471FB503F0DE
:10020000B8F81FBD10B510BD00F044F81146FFF757
:10021000F5FF02F047FA00F062F803B4FFF7F2FFCF
:1002200003BC00F065F80000094880470948004712
:10023000FEE7FEE7FEE7FEE7FEE7FEE7FEE7FEE796
:10024000FEE7FEE704480549054A064B70470000F3
:10025000C519000889010008D8000020D806002030
:10026000D8020020D802002070477047704710B5B0
:1002700000F008F8006810BD10B5044600F002F860
:10028000046010BD004870477400002000487047AB
:10029000740000207546FFF7F9FFAE460500694679
:1002A000534620F00700854618B020B5FFF7CAFF77
:1002B000BDE820404FF000064FF000074FF0000867
:1002C0004FF0000B21F00701AC46ACE8C009ACE8E8
:1002D000C009ACE8C009ACE8C0098D46704710B54C
:1002E0000446AFF300802046BDE81040FFF795BFFD
:1002F00001491820ABBEFEE726000200704700BF90
:10030000FEE77047C0EB00135A00114600E0491E9B
:100310000029FCDA704700001CB50121084601F0F5
:100320004BF901208DF8040000208DF806002020F4
:10033000009000208DF8070002208DF80500694626
:10034000014800F003F81CBD00000240F0B50A4669
:1003500000210023002400BF3DE0012505FA01F340
:10036000156805EA03049C4234D105684F00032652
:10037000BE40B543056015794E00B540066835436B
:1003800005601579012D02D01579022D16D18568E9
:100390004F000326BE40B543856055794E00B540F9
:1003A000866835438560456801268E40B5434560C3
:1003B000456896798E40B6B235434560C5684F00B2
:1003C0000326BE40B543C560D5794E00B540C6682A
:1003D0003543C560491C1029BFD3F0BDF0B50023DB
:1003E00000244D07ED0E02FA05F3CE1000F12005B2
:1003F00055F826504E07F70E0F26BE40B543CF10D6
:1004000000F1200646F82750CE1000F1200555F8DF
:10041000265045EA0304CE1000F1200545F8264099
:10042000F0BD0246002013690B400BB1012000E033
:1004300000207047018370470AB1018300E04183C7
:1004400070472DE9F04706460F469046032000F01E
:1004500048F80446042000F044F8054645EA042024
:100460000FFA80F9A6F80090072000F03AF8044649
:10047000082000F036F8054645EA04200FFA80F916
:10048000A7F80090052000F02CF80446062000F0A4
:1004900028F8054645EA042000B2A8F80000BDE8A7
:1004A000F08710B500F0A8FD00216A2000F08BFD58
:1004B0000221372000F087FD1821002000F030F8DD
:1004C0006021012000F02CF80021022000F028F823
:1004D0000021372000F077FD20216A2000F073FD15
:1004E00010BD70B5044600F0FEFD3C2000F0E6FDB6
:1004F00000F0B0FD204600F0E1FD00F0ABFD00F0A3
:10050000F2FD3D2000F0DAFD00F0A4FD00F0B0FDAA
:100510000546012000F0C6FD00F0F3FD284670BD41
:1005200070B505460C4600F0DEFD3C2000F0C6FD2F
:1005300000F090FD284600F0C1FD00F08BFD204644
:1005400000F0BCFD00F086FD00F0DBFD70BD00BFDB
:10055000FEE7000070B52DED108BA8B004460D46E7
:100560001646FE4890ED000A20EE000AF0EE408AA2
:1005700090ED000AFA48D0ED000A20EE200AF0EED5
:1005800040CAF64890ED000AF648D0ED000A20EE89
:10059000200AF0EE40BAF14890ED000AF248D0EDA2
:1005A000000A20EE200AB0EE40DAED4890ED000A95
:1005B00020EE000AB0EE409A90ED000AE948D0ED36
:1005C000000A20EE200AF0EE40DAE54890ED000A3D
:1005D000E548D0ED000A20EE200AB0EE40CAE1481E
:1005E00090ED000A20EE000AF0EE409A90ED000A2D
:1005F000DD48D0ED000A20EE200AB0EE40EA90ED92
:10060000000A20EE000AB0EE40AAD848D849D94BDB
:10061000D94ACDE90010D949D94800F03FFCD94A60
:10062000D949DA48FFF70DFFD548B0F9000000EED0
:10063000100AB8EEC00ADFEDD60A20EE200A8DEDD2
:10064000260ACE48B0F9000000EE100AB8EEC00A43
:10065000DFEDCF0A20EE200A8DED250AC648B0F95D
:10066000000000EE100AB8EEC00ADFEDC90A20EE65
:10067000200A8DED240ABF48B0F90000353000EEA5
:10068000100AB8EEC00ADFEDC30A20EE200AF0EE31
:1006900040EAB748B0F900000C3000EE100AB8EE9E
:1006A000C00ADFEDBC0A20EE200AB0EE40FAAF48E7
:1006B000B0F900000F3000EE100AB8EEC00ADFED0E
:1006C000B50A20EE200AF0EE40FAB048B0F900007A
:1006D00000EE100AB8EEC00A8DED230AAA48B0F960
:1006E000000000EE100AB8EEC00A8DED220AA548FF
:1006F000B0F9000000EE100AB8EEC00A8DED210A34
:1007000024AB25AA26A9A44802F05AF821AB22AAB4
:1007100023A9A14802F054F8904890ED000A9148AE
:10072000D0ED000A9DED261A00EE810A8C48D0ED2E
:10073000000A9DED251A00EEC10A8848D0ED000A96
:100740009DED241A00EEC10AF0EE000A20EE200A08
:100750008DED1D0A824890ED000A8348D0ED000A15
:100760009DED261A00EEC10A7C48D0ED000A9DEDF1
:10077000251A00EEC10A7A48D0ED000A9DED241A30
:1007800000EE810AF0EE000A20EE200A8DED1E0A2E
:10079000744890ED000A7148D0ED000A9DED261ACC
:1007A00000EE810A7048D0ED000A9DED251A00EE9A
:1007B000C10A6C48D0ED000A9DED241A00EE810AB2
:1007C000F0EE000A20EE200A8DED1F0A664890ED3B
:1007D000000A6348D0ED000A9DED261A00EEC10A1A
:1007E0006048D0ED000A9DED251A00EEC10A5E4872
:1007F000D0ED000A9DED241A00EEC10AF0EE000AC9
:1008000020EE200A8DED200A38EE890A30EE690AC2
:1008100030EE4A0ADDED230A20EE200A7DEE8D0A35
:10082000B0EE001A60EE810A9DED221A00EE810AF8
:100830007CEE6B0AB0EE001A60EE810A9DED211A83
:1008400000EE810A8DED140A3DEECD0AF0EE000AAD
:1008500020EE200ADDED230A20EE200A78EEC90AF8
:1008600070EEA90A70EECA0A9DED221A00EE810A06
:100870007CEE8E0AB0EE001A60EE810A9DED211A20
:1008800000EE810A8DED130A3BEE8C0AF0EE000AB1
:1008900020EE200ADDED230A20EE200A7EEE6C0A0F
:1008A000B0EE001A60EE810A9DED221A00EE810A78
:1008B00078EEC90A70EEE90A70EE8A0A9DED211AF7
:1008C00000EE810AB0EE408A9DED140A60EE000A47
:1008D0009DED130A40EE000A10EE901A084602F051
:1008E000D7FCCDE904019DED040B01F0B9FD8DEDC0
:1008F000060B9DED060B51EC100B01F0D7FF0AEE35
:10090000900AB0EE48BA154890ED000A20EE2A0A87
:100910008DED120A124890ED000A20EE2A0A8DEDA4
:10092000110A104890ED000A20EE2A0A8DED100AF7
:100930000D4890ED000A20EE2A0A8DED0F0A0748B7
:1009400090ED000A20EE0B0A8DED0E0A044890EDA2
:10095000000A20EE0B0A8DED0D0A1FE014000020A6
:10096000180000201C000020200000204A00002069
:1009700048000020460000204400002042000020E3
:1009800040000020600000205E0000205C0000208D
:1009900040DAFF38D50A2E3C3C000020FE4890ED9E
:1009A000000A20EE0B0A8DED0C0AFC4890ED000ABF
:1009B00020EE0B0A8DED0B0A38EE890A30EE690A3B
:1009C00030EE4A0A20EE2A0A7CEE6B0AB0EE001ADC
:1009D00060EE810A00EE8B0ADDED230A30EE600A3C
:1009E0008DED0A0A3DEECD0AF0EE000A20EE200A57
:1009F00020EE2A0A7CEE8E0AB0EE001A60EE810A22
:100A000000EE8B0ADDED220A30EE600A8DED090A58
:100A10003BEE8C0AF0EE000A20EE200A20EE2A0AB5
:100A200078EEC90A70EEE90A70EE8A0A00EE8B0AC7
:100A3000DDED210A30EE600A8DED080A9DED120A07
:100A4000DDED0C0A70EE600A9DED0A0A20EE800AC8
:100A5000DDED0D0A9DED0F1A30EEC11ADDED090A2C
:100A600001EE200ADDED100A9DED0E1A30EE811A1E
:100A7000DDED080A01EE200AF0EE000A20EE200A61
:100A80008DED190A9DED110ADDED0B0A70EE200ABD
:100A90009DED0A0A20EE800ADDED100A9DED0E1A8A
:100AA00030EE811ADDED090A01EE200ADDED0F0AB4
:100AB0009DED0D1A30EEC11ADDED080A01EE200A97
:100AC000F0EE000A20EE200A8DED1A0A9DED100AC4
:100AD000F1EE400A9DED0E0A70EEC00A9DED0A0A85
:100AE00020EE800ADDED110A9DED0B1A30EE811A21
:100AF000DDED090A01EE200ADDED120A9DED0C1A6A
:100B000030EEC11ADDED080A01EE200AF0EE000A0F
:100B100020EE200A8DED1B0A9DED0D0ADDED0F0A7A
:100B200070EE600A9DED0A0A20EE800ADDED0C0AE7
:100B30009DED121A30EEC11ADDED090A01EE200A10
:100B4000DDED110A9DED0B1A30EE811ADDED080A7C
:100B500001EE200AF0EE000A20EE200A8DED1C0ABC
:100B6000B1EE6E0A8E48D0ED000A20EE200A8A48C7
:100B7000D0ED000A0FEE600A8848D0ED000A0FEEB3
:100B8000E00A884890ED001A8748D0ED000A40EE50
:100B9000010ACDED150A90ED000A2EEE800A7E487E
:100BA000D0ED000A0FEEA00A7C48D0ED000A0FEE4F
:100BB000600A7C4890ED001A7948D0ED000A40EEBA
:100BC000010ACDED160A784890ED000A2FEE000AD2
:100BD0007348D0ED000A0FEEE00A7048D0ED000A2D
:100BE0000EEEA00A6F4890ED001A6B48D0ED000A97
:100BF00040EE010ACDED170A6B4890ED000A2FEE8A
:100C0000800A6748D0ED000A0FEE200A6248D0ED56
:100C1000000A0EEEE00A634890ED001A5F48D0ED3E
:100C2000000A40EE010ACDED180A9DED1D0ADDED2A
:100C3000190A30EE200A5D4880ED000A9DED1E0A7B
:100C4000DDED1A0A30EE200A594880ED000A9DEDCC
:100C50001F0ADDED1B0A30EE200A564880ED000A1F
:100C60009DED200ADDED1C0A30EE200A524880ED91
:100C7000000A03464F4A4E494C4801F0A1FD9DED44
:100C8000150A4E48D0ED000A484890ED001A60EE73
:100C9000810A444890ED001A60EE810AB0EE001A15
:100CA00000EEC10A404880ED000A9DED160A434857
:100CB000D0ED000A3E4890ED001A60EE810A3948F6
:100CC00090ED001A60EE810AB0EE001A00EEC10A43
:100CD000334880ED000A9DED170A3848D0ED000A30
:100CE000344890ED001A60EE810A2E4890ED001A0B
:100CF00060EE810AB0EE001A00EEC10A264880EDCF
:100D0000000A9DED180A2D48D0ED000A2A4890ED02
:100D1000001A60EE810A234890ED001A60EE810A05
:100D2000B0EE001A00EEC10A1C4880ED000A03462E
:100D3000194A1B491C4801F043FD38EEC90A30EE40
:100D4000690A30EE0A0A10EE101A084602F0A0FAFC
:100D5000B0EE000A2EEE000AF0EE000A00EEAC0A39
:100D6000CDE9020110EE101A084602F091FACDE921
:100D700000019DED021B9DED000B01F079FA8DED58
:100D8000040B9FED0F0B53EC102B9DED040B51EC5E
:100D9000100B01F0BDFF17E01C0000202000002018
:100DA000180000203400002014000020240000203F
:100DB000280000202C0000203000002038000020F7
:100DC0000000006066A64C40CDE906019DED060BD3
:100DD00051EC100B01F06AFD28607BEECC0AB0EEFE
:100DE000000A20EE800A10EE101A084602F050FAAF
:100DF000CDE902019DED020B00F01EFF8DED040B0D
:100E00001FED110B53EC102B9DED040B51EC100B4F
:100E100001F07EFFCDE906019DED060B51EC100BB4
:100E200001F044FD206038EE890A30EE690A30EEA8
:100E30004A0A10EE101A084602F02AFAB0EE000A2A
:100E40002DEE000AF0EE000A00EEAD0ACDE9020137
:100E500010EE101A084602F01BFACDE900019DEDD4
:100E6000021B9DED000B01F003FA8DED040B1FED4D
:100E70002C0B53EC102B9DED040B51EC100B01F0DF
:100E800047FFCDE906019DED060B51EC100B01F07B
:100E90000DFD306028B0BDEC108B70BD2DE9F05F0A
:100EA00006460F4690469946DDE90AAB3B2000F026
:100EB0006BF804463C2000F067F8054645EA04203C
:100EC00000B230803D2000F05FF804463E2000F084
:100ED0005BF8054645EA042000B238803F2000F068
:100EE00053F80446402000F04FF8054645EA042038
:100EF00000B2A8F80000432000F046F80446442061
:100F000000F042F8054645EA042000B2A9F80000C6
:100F1000452000F039F80446462000F035F8054633
:100F200045EA042000B2AAF80000472000F02CF89F
:100F30000446482000F028F8054645EA042000B29F
:100F4000ABF80000BDE8F09F10B500F055F80121A6
:100F50006B2000F038F800216C2000F034F80921F3
:100F6000192000F030F806211A2000F02CF8182182
:100F70001B2000F028F808211C2000F024F8802114
:100F80006A2000F020F810BD70B5044600F0ABF800
:100F9000D02000F093F800F05DF8204600F08EF8C5
:100FA00000F058F800F09FF8D12000F087F800F02A
:100FB00051F800F05DF80546012000F073F800F0EC
:100FC000A0F8284670BD70B505460C4600F08BF8B9
:100FD000D02000F073F800F03DF8284600F06EF8DD
:100FE00000F038F8204600F069F800F033F800F01F
:100FF00088F870BD00BFFEE71CB50121022000F09B
:10100000DBFA01208DF804008DF806004FF44070E3
:10101000009000208DF8070001208DF8050069463A
:101020000448FFF793F94FF440710248FFF702FAC2
:101030001CBD00000004024010B54FF400710448CC
:10104000FFF7EFF904460A20FFF75CF9204610BDD0
:101050000004024010B5012000F06CF8012000F0FF
:101060005BF8FFF7E9FF0446002000F055F810BDDB
:1010700070B50025012000F05DF800240EE001208D
:1010800000F04AF8FFF7D8FF012802D18020204164
:101090000543002000F040F8601CC4B2082CEEDBD1
:1010A000284670BD10B50446204600F043F80120E4
:1010B00000F032F8002000F02FF810BD70B50546A2
:1010C00000240DE08021214101EA050000F032F802
:1010D000012000F021F8002000F01EF8601CC4B2CE
:1010E000082CEFDB70BD10B5012000F023F80120C3
:1010F00000F012F8002000F01DF8002000F00CF8BD
:1011000010BD10B5002000F015F8012000F004F823
:10111000012000F00FF810BD10B5044622464FF430
:1011200080710348FFF788F90A20FFF7EBF810BD3C
:101130000004024010B5044622464FF400710348F3
:10114000FFF77AF90A20FFF7DDF810BD000402402E
:101150007047000070B5002100230F22C4781CB333
:10116000174C246804F4E064C4F5E064C4F3072178
:10117000C1F10404E3B20A4144789C40E1B28478AE
:10118000144021430C07210E0E4C0578615504785C
:1011900004F01F050124AC4005786D11AD0005F188
:1011A000E025C5F8004109E0047804F01F0501249A
:1011B000AC40054D0678761145F8264070BD00001C
:1011C0000CED00E000E400E080E100E002490143B2
:1011D000024A1160704700000000FA050CED00E0C3
:1011E00070B500240EE00021204600F0ECF8002548
:1011F00004E0002000F0C4F9681CC5B2802DF8DBC3
:10120000601CC4B2082CEEDB70BD00001CB50121CF
:10121000022000F0D1F901208DF804008DF80600BD
:101220004FF48160009000208DF8070001208DF8B8
:10123000050069460648FFF789F801229102044833
:10124000FFF7FAF8012208210148FFF7F5F81CBD65
:101250000004024070B50546002414E080202041BF
:1012600000EA050208210F48FFF7E6F80122910283
:101270000C48FFF7E1F800224FF480610948FFF7BE
:10128000DBF8601CC4B2082CE8DB0122910205489F
:10129000FFF7D2F800224FF480610248FFF7CCF844
:1012A00070BD00000004024010B5012208210A4868
:1012B000FFF7C2F8012291020748FFF7BDF80022AC
:1012C00008210548FFF7B8F800224FF48061024872
:1012D000FFF7B2F810BD00000004024010B5002274
:1012E00008210748FFF7A8F8012291020448FFF7F8
:1012F000A3F8012208210248FFF79EF810BD000064
:101300000004024070B5002406E0002500E06D1CDA
:10131000B5F57A7FFBD3641CB4F57A7FF5D3FFF77C
:1013200075FFAE2000F01CF9D52000F019F98020DF
:1013300000F016F9A82000F013F93F2000F010F992
:10134000D32000F00DF9002000F00AF9402000F051
:1013500007F9A12000F004F9C82000F001F9DA2013
:1013600000F0FEF8122000F0FBF8812000F0F8F801
:10137000CF2000F0F5F8D92000F0F2F8F12000F0CD
:10138000EFF8DB2000F0ECF8302000F0E9F8A420C2
:1013900000F0E6F8A62000F0E3F88D2000F0E0F879
:1013A000142000F0DDF8AF2000F0DAF8FFF718FFA6
:1013B00070BD10B50246012000E050430B1EA1F1A4
:1013C0000101FAD110BD70B505460C4645F0B000DC
:1013D00000F0C6F8102141EA141000F0C1F804F042
:1013E0000F0000F0BDF870BD2DE9F04105460E4636
:1013F0001746721ED206110E6A1E5206100EFFF715
:10140000E2FF002409E0A7F12001134A02EB0111D9
:10141000085D00F0B5F8601CC4B2082CF3DB721E46
:10142000D206110E6A1E012303EB4202D0B2FFF76F
:10143000CAFF00240BE0A7F12001074A02EB0112CA
:1014400004F10801505C00F09BF8601CC4B2082C49
:10145000F1DBBDE8F0810000863300082DE9F05F84
:101460002DED028B82460E46B0EE408A1546984618
:101470004FF00109B5EEC08AF1EE10FA07DB2B221E
:1014800031465046FFF7B0FFF0EE488A06E02D22C5
:1014900031465046FFF7A8FFF1EE488A41460A2040
:1014A000FFF787FF00EE100AB8EE400A20EE280A88
:1014B000BDEEC00A10EE107A2C4637E0A5EB08000E
:1014C000A0421DD130194844C1B22E225046FFF728
:1014D0008BFF4FF00009291B0A20FFF76AFFB7FBBB
:1014E000F0F00A21B0FBF1F201FB120000F1300B29
:1014F00030194844C1B25A465046FFF775FF13E011
:10150000291B0A20FFF755FFB7FBF0F00A21B0FBBB
:10151000F1F201FB120000F1300B30194844C1B266
:101520005A465046FFF760FF601EC4B2002CC5DC6F
:10153000BDEC028BBDE8F09F2DE9F04107460E4659
:101540001546002407E02A5D3019C1B23846FFF77E
:101550004BFF601CC4B2285D0028F4D1BDE8F081C7
:1015600010B50446FFF7A0FE7820FFF773FE0020B9
:10157000FFF770FE2046FFF76DFEFFF7AFFE10BDD0
:1015800010B50446FFF790FE7820FFF763FE402079
:10159000FFF760FE2046FFF75DFEFFF79FFE10BDE0
:1015A00010B504462146024800F040FA10BD000084
:1015B000000400407047000029B1064A1268024347
:1015C000044B1A6004E0034A12688243014B1A601C
:1015D000704700003038024029B1064A12680243C1
:1015E000044B1A6004E0034A12688243014B1A60FC
:1015F0007047000044380240F0B50021002200246A
:10160000022500260223324F3F6807F00C0121B16A
:10161000042905D0082937D105E02E4F076036E0B0
:101620002D4F076033E02A4F3F1F3F68C7F38056B6
:10163000274F3F1F3F6807F03F036EB1264FB7FBB0
:10164000F3F7DFF88CC0ACF1040CDCF800C0CCF38D
:10165000881C07FB0CF40CE01E4FB7FBF3F7DFF818
:1016600070C0ACF1040CDCF800C0CCF3881C07FBA4
:101670000CF4174F3F1F3F68C7F301477F1C7D00E5
:10168000B4FBF5F7076002E0124F076000BF00BF30
:101690000F4F3F6807F0F0010909104F7A5C0768A7
:1016A000D74047600A4F3F6807F4E051890A0B4F63
:1016B0007A5C4768D7408760054F3F6807F4604110
:1016C000490B064F7A5C4768D740C760F0BD000001
:1016D000083802400024F40040787D01000000201A
:1016E000704710B50246012000E050430B1EA1F1E7
:1016F0000101FAD110BD000010B50446214605488D
:1017000000F07BFA00BF8021024800F0D4F90028E5
:10171000F9D010BD001001402DE9F0412DED028BF4
:10172000B0EE408A0646B5EEC08AF1EE10FA06D257
:101730002D20FFF7E1FFB1EE480AB0EE408ABDEE82
:10174000C80A10EE104A31460A20FFF7CAFF00EE21
:10175000100AF8EE400A00EE104AB8EEC00A38EE61
:10176000400A20EE800ABCEEC00A10EE105A1CB9E6
:101770003020FFF7C1FF0FE00027A04604E0781CEF
:10178000C7B20A2098FBF0F8B8F1000FF7DC394631
:10179000204600F00CF800BF2E20FFF7ADFF3146C9
:1017A000284600F004F8BDEC028BBDE8F0812DE97D
:1017B000F04106460C46002512E0601B411E0A203F
:1017C000FFF78FFFB6FBF0F00A21B0FBF1F201FB4F
:1017D000120000F130073846FFF78EFF681CC5B2D3
:1017E000A542EADBBDE8F08170B50446002504E0BF
:1017F000605DFFF781FF681CC5B2605D0028F7D10E
:1018000070BD000000B587B001211020FFF7E4FE95
:1018100001210846FFF7D0FE072209212A48FEF7DA
:10182000DDFD07220A212848FEF7D8FD02208DF8A9
:10183000180000208DF81A004FF4C06005900120B8
:101840008DF81B0002208DF8190005A91E48FEF72F
:101850007DFD072209211C48FEF7C0FD07220A2151
:101860001948FEF7BBFD4FF4E13001900020ADF8C0
:1018700010000C20ADF80E000020ADF80C00ADF803
:101880000A00ADF8080001A9104800F047F901224C
:1018900040F225510D4800F01BF94FF4A060FFF70E
:1018A00095FC25208DF8000001208DF803008DF8AF
:1018B00001008DF802006846FFF74CFC0121034847
:1018C00000F0EDF807B000BD00000240001001403C
:1018D0000CB50020019000903448006840F480303E
:1018E0003249086000BF3148006800F400300090C1
:1018F0000198401C0190009818B90198B0F5A04FCC
:10190000F1D12A48006800F4003010B101200090A5
:1019100001E0002000900098012846D12348403083
:10192000006840F08050214940310860204800683C
:1019300040F440401E4908601C48083000681B49BC
:10194000083108600846006840F400400860084616
:10195000006840F4A05008601648091F0860081F7E
:10196000006840F08070091F086000BF0F480068E1
:1019700000F000700028F9D040F205700E490860B0
:101980000A480830006820F0030008490831086060
:101990000846006840F00200086000BF03480830B5
:1019A000006800F00C000828F8D10CBD0038024097
:1019B0000070004019544007003C024000B500F0A0
:1019C00037F800BD10B51548006840F470001349A1
:1019D00008601348006840F00100114908600020C9
:1019E0000F49083108600E4800680E4908400C494C
:1019F00008600D48091D0860081F006820F4802059
:101A0000091F0860002006490C310860FFF760FFDD
:101A10004FF0006001498039086010BD88ED00E09A
:101A200000380240FFFFF6FE10300024416370478B
:101A30000448006820B103480068401E014908605E
:101A4000704700007000002010B540F22551094891
:101A500000F031F801280CD1064800F0C9F8064919
:101A6000087001200549087040F22551014800F036
:101A700007F810BD001001401000002011000020E8
:101A800010B50022002340F66A14A14200D100BF25
:101A90000A1201249440A3B2DC43048010BD21B19A
:101AA000828942F40052828104E082894DF6FF73FC
:101AB0001A408281704702460020B1F5007F00D1B4
:101AC00000BF13880B400BB1012000E000207047DD
:101AD000F0B50346002400260025002040F66A17D2
:101AE000B94200D100BF1846C1F3421401F01F06ED
:101AF000012707FA06F5012C01D10C3004E0022C75
:101B000001D1103000E014301AB107682F4307608C
:101B100002E00768AF430760F0BD00002DE9FF4712
:101B200005460E460024A14600BFA046B08900B17C
:101B300000BF2C8A24F44054F08804432C82AC89E2
:101B400041F20C608443B0883189084371890843AD
:101B50000443AC81AC8A24F44074B0890443AC8261
:101B60006846FFF749FD2048854202D01F4885425C
:101B700002D1DDF80C9001E0DDF80890A88900F4AE
:101B8000004040B109EBC90000EB09103168490081
:101B9000B0FBF1F707E009EBC90000EB0910316871
:101BA0008900B0FBF1F76420B7FBF0F004012009D5
:101BB000642101FB1078A88900F4004040B1322074
:101BC00000EBC800B0FBF1F000F00700044308E0B0
:101BD000322000EB08106421B0FBF1F000F00F00A0
:101BE00004432C81BDE8FF87001001400014014030
:101BF00001468888C0F308007047C1F3080282805C
:101C0000704700BFFEE703B401984100009850EA16
:101C1000C12018BF04204A0D18BF40F0010040F257
:101C2000FF72B2EB515F08BF40F00200012808BF0D
:101C3000052002B07047000070B5C1482DED020BC1
:101C40002DED0E8B82B0119D25F000449FEDBEDB83
:101C50009FEDBFEB84423EDBA4F140511098A1F10F
:101C60007F6108430FD0BC48844202DC28D1109821
:101C700030B39DED100B02B0BDEC0E8B02B0BDE891
:101C8000704000F0A6BC9DED100B53EC1D2B51ECE9
:101C9000100B01F03DF89DED100B41EC180B53ECCF
:101CA0001E2B51EC100B01F033F853EC182B00F005
:101CB0002FFE41EC100B02B0BDEC0E8B02B070BDDC
:101CC0000120FEF7D9FA02B0BDEC0E8B02B0BDE8E0
:101CD000704000F095BCA1489FEDA18B844256DA7C
:101CE0009DED100BB4F1795F0ADA51EC100BFFF7A0
:101CF0008AFF042808BF00F093FC9DED100BDAE783
:101D000053EC102B51EC100B01F002F841EC190BC5
:101D100095480621B0EE490AF0EE690A784400F0D1
:101D2000DCFB53EC192B51EC100B00F0F1FF41ECF4
:101D30001A0B8E48B0EE490AF0EE690A0421784485
:101D400000F0CBFB53EC192B51EC100B00F0E0FF33
:101D500053EC182B00F0DCFD41EC100B51EC1A0B8E
:101D600053EC102B00F07CFECDE900019DED000B43
:101D700053EC102B9DED100B51EC100B00F0C8FF35
:101D80009DED101B53EC112B00F0C2FDD2E09DED38
:101D9000100B51EC100B00F05BFC53EC182B01F016
:101DA000B5F89FED730BCDE9000153EC102B9DEDC1
:101DB000000B51EC100B00F0ABFF41EC190B6E481F
:101DC0000621B0EE490AF0EE690A784400F085FB7E
:101DD00053EC192B51EC100B00F09AFF41EC1B0B4C
:101DE0006648B0EE490AF0EE690A0421784400F032
:101DF00074FB53EC192B51EC100B00F089FF53ECE2
:101E0000182B00F085FD41EC1C0B51EC190B00F078
:101E100009FD41EC180B5A489FED5BABA04222DC58
:101E200053EC1C2B51EC1B0B00F01AFECDE900010A
:101E30009DED000B51EC180B53EC102B00F068FFDC
:101E400053EC182B00F064FD53EC1A2B00F060FFEC
:101E500053EC1D2B01F032F953EC1E2B01F056F818
:101E600041EC100B5FE08DED008B002000909DEDAC
:101E7000000B51EC180B53EC102B00F049FD9DEDBD
:101E8000000B41EC1E0B53EC102B51EC100B00F02F
:101E90003FFF53EC192B01F039F853EC1E2B00F0E7
:101EA000DFFD41EC190B53EC1C2B51EC1B0B00F02C
:101EB000D7FD41EC1B0B53EC1A2B51EC190B00F026
:101EC00027FF53EC1D2B01F021F841EC190B53ECCB
:101ED0001A2B51EC180B00F01BFF53EC1B2B00F0DE
:101EE00017FF53EC192B01F0E9F89DED000B41ECC5
:101EF000180B53EC1A2B51EC100B00F009FF9FED5F
:101F0000249B53EC192B01F001F841EC100B51EC20
:101F1000180B53EC102B01F0D1F853EC192B00F0F7
:101F2000F5FF41EC100B002D3FF7C5AE51EC100B47
:101F300000F0AFFC41EC100BBDE60000000000001B
:101F40000000F03F00000000075C143326A6913C1F
:101F5000182D4454FB21F93F0000F07F0000E03FC2
:101F6000000000000000F03F581C0000661C00004C
:101F7000000000000000E03FAA1B0000B81B0000AA
:101F80003333EF3F0000000000000000000000407D
:101F9000182D4454FB21E93F70B59B482DED020BF1
:101FA0002DED068B079D25F00044A04218DC9748D4
:101FB000844202DC0AD1069840B19DED060BBDECCF
:101FC000068B02B0BDE8704000F003BB002DCCBF13
:101FD0009FED8F0B9FED900BBDEC068B02B070BD9B
:101FE0008F48A04215DD8F48A042D8BF4FF0FF3484
:101FF00058DD9DED060B51EC100BFFF704FE042895
:1020000008BF00F00DFB9DED060BBDEC068B02B08A
:1020100070BD9DED060B51EC100B00F019FBCDE9E6
:10202000060181489FED828BA0423CDD8248A042A0
:102030001FDD00249FED82AB9DED060B53EC1A2BA8
:1020400051EC100B00F064FC9DED060B41EC190BFC
:1020500053EC1A2B51EC100B00F05AFE53EC182BDA
:1020600001F02CF853EC192B00F0FAFCCDE9060135
:1020700049E09DED060B012453EC182B51EC100B9D
:1020800000F046FC9DED060B41EC190B53EC182BB0
:1020900051EC100B01F012F853EC192B00F0E0FC9E
:1020A000CDE906012FE06848A0421FDD02249FED24
:1020B000689B9DED060B53EC192B51EC100B00F0B7
:1020C00027FE53EC182B00F023FC9DED060B41EC92
:1020D000180B53EC192B51EC100B00F0EFFF53ECE5
:1020E000182B00F0BDFCCDE906010CE09DED060BC0
:1020F000032453EC102B9FED580B51EC100B00F008
:10210000AFFCCDE906019DED060B53EC102B51EC15
:10211000100B00F0FDFD41EC180B53EC182B00F0F8
:10212000F7FD41EC190B4E480621B0EE490AF0EEDE
:10213000690A784400F0D1F953EC182B51EC100BDC
:1021400000F0E6FD41EC180B4648B0EE490AF0EE0F
:10215000690A0521784400F0C0F953EC192B51ECC1
:10216000100B00F0D5FD41EC100B51EC180B53ECAB
:10217000102B002C0EDA00F0CBFB9DED061B53EC70
:10218000112B00F0C5FD9DED061B53EC112B00F04B
:10219000BDFE35E000F0BCFB9DED061B53EC112BA2
:1021A00000F0B6FD41EC100B2F48784400EBC40062
:1021B00090ED001B51EC100B53EC112B00F07EFF47
:1021C0009DED061B53EC112B00F078FF41EC100B3A
:1021D0002648784400EBC40090ED001B51EC100B36
:1021E00053EC112B00F092FE41EC100B002DA2BF1E
:1021F000BDEC068B02B070BD51EC100B00F049FB3A
:1022000041EC100B01E70000000010440000F07FDB
:10221000182D4454FB21F93F182D4454FB21F9BFDC
:102220000000DC3F0000203E0000F33F0000000003
:10223000000000000000F03F0000E63F000000004A
:10224000000000000000004000800340000000008B
:10225000000000000000F83F000000000000F0BF98
:10226000FA180000B01800003A180000F217000039
:1022700070B56B4E2DED040B2DED028B82B0DDF8A9
:102280001CC0DDE905235C422CF000411C4341EAFF
:10229000D474049D22F00040B44205D86C422C4313
:1022A00040EAD474B4420BD99DED061B9DED040B9E
:1022B00002B0BDEC028B04B0BDE8704000F093B9F1
:1022C000ACF14054A4F17F641C430BD0022404EA17
:1022D000AC7444EAD27405439FED538B9FED542BAD
:1022E00007D015E09DED040B51EC100B00F0A8F9A0
:1022F00042E0002C11BF012C9DED040B02B0BDEC9F
:10230000028B04BF04B070BD022C38D0032C3BD02C
:102310000B439FED491B9FED4A0B0AD0B14218D1E8
:10232000B04209D121F0804120F080400791059012
:102330000FE0002A15DA10E0434B7B44002C08BF65
:1023400093ED000B0DD0012C10D0022C17D0032CD4
:102350001AD0B0421DD1002A03DAB0EE410AF0EEE5
:10236000610A02B0BDEC028B04B070BD93ED000BAE
:1023700051EC100B00F08DFA41EC100BF1E7B0EED0
:10238000480AF0EE680AECE7B0EE420AF0EE620AA4
:10239000E7E7401A00153C28C8BF8DED000B19DC9B
:1023A000BCF1000FBEBF10F13C0F9FED290B8DED6E
:1023B000000B0FDB9DED060B53EC102B9DED040B7A
:1023C00051EC100B00F04CFB00F042F900F038F932
:1023D000CDE90001002C08BF9DED000BC1D0012C00
:1023E00010D0022C9FED1C0B53EC102B9DED000B1D
:1023F00051EC100B0DD000F061FE53EC182B00F0E7
:102400005DFEB9E7019880F0004001909DED000B62
:10241000A7E700F053FE53EC182B00F077FDABE775
:102420000000F07F00000000182D4454FB210940FB
:10243000182D4454FB2109C0182D4454FB21F9BF29
:10244000182D4454FB21F93F221700000000000022
:102450000000000000000000075C143326A6A13C29
:1024600000B52DED048BB0EE409AF0EE609A83B08B
:1024700051EC190B00F056FD41EC180B18EE100A48
:1024800018EE901A8DED008B002818BF012008432C
:1024900020F00040C0F17F6000F1E040C00F14D098
:1024A00019EE101A19EE900A8DED009B002918BF45
:1024B0000121084320F00040C0F17F6000F1E040BE
:1024C000C00F04BF0120FDF7D7FEB0EE480A03B0ED
:1024D000F0EE680ABDEC048B00BD70B504462DED2E
:1024E000028B4D1E00EBC500B0EE408AF0EE608A14
:1024F00090ED000B35F0060017D053EC182B51EC83
:10250000100B00F005FC41EC100B6D1E04EBC50038
:1025100090ED001B51EC100B53EC112B00F0F8F96F
:1025200041EC100B35F00600E7D1022D36D0042D1A
:102530001CD0062D1CBFBDEC028B70BD53EC182BBC
:1025400051EC100B00F0E4FB94ED0A1B53EC112B43
:1025500000F0DEF953EC182B00F0DAFB94ED081BC9
:1025600053EC112B00F0D4F941EC100B53EC182B69
:1025700051EC100B00F0CCFB94ED061B53EC112B2F
:1025800000F0C6F953EC182B00F0C2FB94ED040BDD
:1025900053EC102B00F0BCF941EC100B53EC182B52
:1025A00051EC100B00F0B4FB94ED021B53EC112B1B
:1025B00000F0AEF953EC182B00F0AAFB94ED001BD1
:1025C00053EC112B00F0A4F9BDEC028B41EC100B85
:1025D00070BD10B553EC102B51EC100B00F098F9B6
:1025E00041EC100B10BD10B553EC112B51EC100B3E
:1025F00000F08EF941EC100B10BD0000000000004F
:102600009FED050B10B553EC102B51EC100B00F0A7
:1026100027FA41EC100B10BD000000000000000084
:102620009FED050B10B553EC102B51EC100B00F087
:102630006FFB41EC100B10BD00000000000000100B
:1026400010B541EC100BFFF7A7FC51EC100B10BDBF
:1026500082B0CDE9000121F0004001909DED000B1A
:1026600002B051EC100B7047F0EE400AF6EE001A83
:1026700060EEA11AB0EE611AB0EE600A10EE100A18
:102680000749A1EB600000EE100A21EE002AF7EEE8
:10269000081A42EE401A61EE801AB0EE610A7047E5
:1026A000865A375FFEF72EFEFFF7ACF8FEF7A4FC64
:1026B000FEF74AFCFDF730FEFDF7F3FE5BE02E4A25
:1026C0002E492F48FDF746FF2EA0FFF78DF8012079
:1026D0002A4991ED000AFFF71FF82DA0FFF784F8B3
:1026E0000120274991ED000AFFF716F82BA0FFF70C
:1026F0007BF80120204991ED000AFFF70DF829A091
:10270000FFF772F81C4890ED000ABDEEC00A10EE0B
:10271000100A00F5C87004B24FF4C870FEF740FF0D
:1027200021A201210220FEF707FF21A2012103209F
:10273000FEF702FF20A201210420FEF7FDFE022386
:1027400005220F4890ED000A08211846FEF786FE84
:1027500002230522094890ED000A08210320FEF714
:102760007DFE02230522044890ED000A0821042082
:10277000FEF774FE00BFA2E76C0000206800002096
:10278000640000207B22726F6C6C223A0000000013
:102790002C227069746368223A0000002C2279614F
:1027A00077223A007D0A000050697463683D00009A
:1027B000526F6C6C3D0000005961773D00000000D5
:1027C00030B504460D4694ED000AF0EE404A95ED12
:1027D000000AB0EE404A92ED000AB0EE403A93EDA6
:1027E000000AF0EE403A64EEA40A44EE040A43EE16
:1027F000030A43EEA30AB0EE600AFFF735FFF0EEDE
:10280000402A24EEA20A84ED000A24EE220A85ED75
:10281000000A23EE220A82ED000A23EEA20A83EDCB
:10282000000A30BD00B52DED048B83B041EC190BCF
:1028300000F078FB41EC180B18EE100A18EE901A15
:102840008DED008B002818BF0120084320F00040C8
:10285000C0F17F6000F1E040C00F14D019EE101AF3
:1028600019EE900A8DED009B002918BF0121084345
:1028700020F00040C0F17F6000F1E040C00F04BFD5
:102880000120FDF7F9FC51EC180B03B0BDEC048BF3
:1028900000BD81F00041704780F00040704721F09A
:1028A0000041704720F000407047000021F00042D6
:1028B000A2F16052B2F5801F01F0004328BFD2F1AF
:1028C0007F6C0BD95FEA001C43EAC20242EB5070F6
:1028D00018BF704728BF20F001007047B2F5801F75
:1028E000BCBF184670474FEA410C1CF5001F02D2CE
:1028F000084600F043BD70B500F0B4FA000000894E
:10290000FFF7F6BF4FF00040A0F5800070470000D1
:1029100010B591EA030F48BF83F0004300F1D6835E
:10292000841A71EB030C05D2121943EB0C03001B44
:1029300061EB0C01DFF824E14FEA1154A4EB135CC6
:102940001EEA430F18BF9EEA445F73D023EA0E03CA
:10295000DCF1200E21EA045143F4801332D322FA31
:102960000CFE10EB0E0023FA0CFE41EB0E01CCF135
:10297000200E03FA0EFE10EB0E0051F10001B1F52E
:10298000801FCCF1200E32D201EB045112FA0EF26C
:10299000BDE8104058BF7047401C38BF5FEA420294
:1029A00018BF7047002814BF20F0010041F100015A
:1029B0004FEA410313F5001F38BF7047A1F1C04132
:1029C00000F09EBA012A43EB0302ACF1200CDCF1CB
:1029D0001F0E32BF4FF0000E23FA0CF310EB030072
:1029E00041EB0451B4EB115FD0D0A1EB045101F5E0
:1029F000801149085FEA300001EB04510ED350F119
:102A0000000038BF12FA0EFE08D1BDE81040C9E739
:102A1000401C38BF5FEA4202CAD1C3E7BDE810409C
:102A20004FEA410313F5001F38BF7047A1F1C041C1
:102A300000F066BA9EEA445F08D011EA5E0FBDE876
:102A4000104004BF01F0004100207047BDE8104075
:102A500070B500F007FA00BF64FBBE3E0000E0FF67
:102A60002DE9C04130B4DFF8A0C23CEA111418BF10
:102A70003CEA131400F0EC8081EA03051CEA11140F
:102A800044EAD57418BF1CEA131500F0C780A4EB04
:102A900005044FF0004545EAC12145EAC32341EA58
:102AA000505143EA525304F17F74994204F50034C3
:102AB0004FEAC0204FEAC22208BF904200F09C803B
:102AC0004FEA13650FF24016765D4FEA134506FB99
:102AD00005F7C7F1807706FB07F74FEAD737A7FB63
:102AE00003687642C8F58038A7FB06CE38BFA8F148
:102AF000010807FB08E64FF0000EA6FB028CE6FB80
:102B000003CEDCF1000CCEF1004E38BFAEF1010E69
:102B1000A6FB0C584FF000074FF00005E6FB0E87B0
:102B2000A1FB08C6A0FB07CE16EB0E0645F100057B
:102B3000E1FB076515F1E04E7EBFA4F580345FEA46
:102B400046066D4116F1800745F100054FEA17274B
:102B50004FEA066647EA0567A6F1DE46B6F1805FF2
:102B60004FEA15251FD9384624F0010C05EBC47136
:102B7000BCF1FE6F01EB0C1102D8F0BCBDE8008186
:102B800024425CBF01F5801E9EEAC47F02D4F0BCE3
:102B9000BDE80081244238D4F0BCA1F1C041BDE8B9
:102BA000004100F0ADB94FEAD22242EA43524FEA67
:102BB000D323A7FB02864FEAD02040EA415007FB0F
:102BC00003661EEA0E0F4FEAD12105FB026658BFCD
:102BD000A6EB0056B6EB00564FEA520E4EEAC37E05
:102BE00018EB0E0E56EB530EBDD518EB02085E41E6
:102BF0007F1C55F10005B6E74FF480154FF0000734
:102C00004FF000064FF00008ADE7F0BC4FF00000B9
:102C100001F1C04101F00041BDE8008111EA0C1F43
:102C20000CEA131500D00CE013EA0C1F00F025800D
:102C30004FF00000F0BC81EA030101F00041BDE863
:102C40000081F0BCBDE8004181EA030100F058B901
:102C5000F0BCBDE8004170B500F004F9097EFC3E0F
:102C600000F007B881EA03014FF0000001F00041D5
:102C7000704781EA030100F043B9F0BCBDE80041B0
:102C80004FF0000021497047FFFDFBF9F7F5F4F222
:102C9000F0EEEDEBE9E8E6E4E3E1E0DEDDDBDAD8F7
:102CA000D7D5D4D3D1D0CFCDCCCBCAC8C7C6C5C455
:102CB000C2C1C0BFBEBDBCBBBAB9B8B7B6B5B4B36C
:102CC000B2B1B0AFAEADACABAAA9A8A8A7A6A5A457
:102CD000A3A3A2A1A09F9F9E9D9C9C9B9A9999981B
:102CE0009797969595949393929191908F8F8E8EBE
:102CF0008D8C8C8B8B8A898988888787868585844B
:102D000084838382828181800000FF070000F87F36
:102D1000DFF848C170B51CEA111E1EBF1CEA13156E
:102D20009EEA0C0F95EA0C0F00F06F8081EA030415
:102D300023EA4C134EEAD47E21EA4C1141F480116F
:102D400043F48013AE44A1FB024CA0FB0365AEF13B
:102D50007F7E361955EB0C05A1FB034C4CF10003AB
:102D6000A0FB021C16EB0C06654153F1000309425F
:102D700018BF46F0010613F4007F0BD14FEA033170
:102D80004FEA0530340341EA155140EA16506FF01E
:102D900003020AE04FEAC3214FEAC520F40241EAE8
:102DA000555140EA56506FF0020202EB2E4201EB01
:102DB000025585EACE710AD05FEA440C18BF24F0B0
:102DC000004450F1000041F1000120EAD47040F2CB
:102DD000FE7C624500D270BDA84214BF4FF0804413
:102DE0004FF04044002E08BF0024BEF1806FA8BF02
:102DF000A1F1C041BDE8704080F282804FF0000038
:102E000001F1C04101F0004170479EEA0C0F0CEA4D
:102E1000131518BF95EA0C0F06D04FF0000081EA99
:102E2000030E0EF0004170BD00F01CF88900013E59
:102E300000F007B800F009B84FEA430C5FEA5C5CA9
:102E400008D081EA030100F05BB84FEA410C5FEA69
:102E50005C5CF6D14FF00000014970470000FF07AD
:102E60000000F87F0EF1020E2EF0030E5EF8046BE8
:102E7000364205D4012A43EB030515F5001F12D88D
:102E8000012841EB010C1CF5001F0CD80ED14FEAB4
:102E9000D17C15F5001F0CEB4C0C0CF1020C08BF9B
:102EA0004CEBD37C04E04FF0080C01E04FEAD37CFC
:102EB0000CEB4C0526FA05F606F00706B6F1040CF5
:102EC00006D20EEB860CBDE870404CF0010C60475A
:102ED000DFE80CF0090B02024FF000414FF0000058
:102EE000A1F5002170BD19461046012851EB0104DF
:102EF00018BFD4F5001484BF002001F0004170BD5C
:102F00000808A0F500114FEA3101704791EA030F5C
:102F100010B581F000413FF503AD83F0004300F0B0
:102F2000D5B800002DE9F04101F5801CBCF5001F6B
:102F3000C0F2A9804FEA115C21EA0C510CF1FD0CA2
:102F400041F480115FEA5C0C0CF5C07C01D34000B9
:102F5000494130A4890241EA905187028E0E0A0C41
:102F6000A45D04FB04F602FB06F6C6F14046A4FB92
:102F70000662F60D46EA422606FB06F4A4FB012390
:102F80005242C3F1404338BF5B1EA6FB02420024FD
:102F9000E6FB0324D20B42EA4446A6FB0623A1FB30
:102FA00002E2A3FB07E4E3FB61426442C2F1404E4C
:102FB00038BFAEF1010EA6FB04234FF00002E6FB82
:102FC0000E32A2FB03463400E2FB6264A1FB06E67C
:102FD000A4FB07E8E4FB61687642C8F1405838BFBB
:102FE000A8F10108A2FB06E4A3FB08E5E2FB685494
:102FF000A1FB05E6A7FB04E8E1FB648618F12005C8
:1030000056F10006A809A8F11B08B10908F03F080D
:10301000B8F10A0F40EA86601CD901EB0C51BDE8FB
:10302000F08100BFFCF5EEE8E2DDD8D3CFCBC7C31B
:10303000C0BDB9B6B4B1AEACA9A7A5A3A19F9D9BD5
:103040009A9896959392908F8D8C8B898887868598
:1030500084838281A0FB006800FB01F208EB420838
:10306000B8EB872807D5341858EB0104D5D5401C98
:1030700051F10001D1E7341A78EB0104CDD4401EA0
:1030800071F10001C9E75FEA4C0C5FEA9C5C0DD16D
:1030900005D34FF0000001F00041BDE8F081BDE82C
:1030A000F04170B5FFF7DEFE6DDBFFBEBDE8F0411D
:1030B0004FF00000004970470000F87F10B591EA1A
:1030C000030F48BF83F000433FF52AAC841A71EB2D
:1030D000030C07D212198CF0004C43EB0C03001BBD
:1030E00061EB0C01DFF8A4E14FEA1154A4EB135C8F
:1030F0001EEA430F18BF9EEA445F00F0B08023EA47
:103100006E03524221EA0451C3EB6E0338BF5B1ECB
:10311000DCF1200E25D322FA0CFE10EB0E0043FA50
:103120000CFE41EB0E01CCF1200E03FA0EFE10EB6B
:103130000E0051F10001CCF1200E29D412FA0EF24A
:1031400001EB0451BDE8104058BF7047401C1CBF44
:10315000B2F1004F704700280CBF491C20F001005D
:10316000704712EB020E43EB030218BF4FF0010E43
:103170004EEA4202ACF1200CDCF11E0E54D943FAA7
:103180000CFE10EB0E0051F1FF31CCF11E0ED5D527
:103190000EF1010E12FA0EFE404141EB010101EB6E
:1031A000445C5FEA5C5C10D910EBDE7001EB04510B
:1031B00038BFBEF1004FBDE8104018BF704700286F
:1031C0000CBF491C20F00100704730D24FEAD42CCC
:1031D00011F5001124F400641BD0B1FA81F20B3A0E
:1031E000A41AA41ED2F12003914030FA03F319432C
:1031F000904001EBCC71002C01EB0451BDE8104074
:10320000A8BF704701F1C0414FF0000001F000413C
:103210007047B0FA80F310FA03F100D110BDE41A40
:10322000173C4805C90AE4E701EB045110BD4910F9
:1032300001EB0451BDE810404FEA300002E04FF0CE
:10324000000170474A0008BF0042F8D0B2F5001FE5
:1032500028BF704701F000414FF0000070479EEA20
:10326000445F07D011EA5E0FBDE8104004BF0021A3
:1032700000207047BDE8104070B5FFF7F3FD00BFB8
:1032800040DFF63E83F00041104670470000E0FF4B
:1032900043004FEAD30C4FEA3C0C43401FBF4007AA
:1032A0000CF1605113F0FE4F70471CF0006F03D11A
:1032B00000200CF0004170470CF0004343EA5070CE
:1032C00010B540EACC0000F00EF800BF00000092FC
:1032D0004FEA0001FFF714BE4FF000414FF000002D
:1032E000A1F5002170470EF1020E2EF0030E5EF8DC
:1032F000044B244204D44FEA4102B2F17F4F11D86B
:103300004FEA4003B3F17F4F0CD80ED14FEAD07C87
:10331000B2F17F4F0CEB4C0C0CF1020C08BF4CEBE4
:10332000D17C04E04FF0080C01E04FEAD17C0CEBBB
:103330004C0324FA03F404F00704B4F1040C06D29D
:103340000EEB840CBDE810404CF0010C6047DFE848
:103350000CF0070802024FF00040A0F5800010BDFD
:103360000846420018BFD2F1807288BF00F00040CA
:1033700010BD4FF04070E1EE100A7047FF2141EAA6
:10338000D050C005704700000000000000000000A1
:10339000000000000000000000F800000000000035
:1033A00000333000000000100C06100C0600000076
:1033B00000000000000040C07840C0784000043F9A
:1033C00004043F040400007088FC0830000000186A
:1033D00020FF211E0000F008F000E018000000218E
:1033E0001C031E211E0000F00888700000001E2132
:1033F00023241927211010160E00000000000000E1
:10340000000000000000000000E0180402000000BE
:1034100000071820400000020418E00000000040EF
:10342000201807000000404080F080404000020269
:10343000010F01020200000000F000000000010185
:10344000011F01010100000000000000000080B029
:1034500070000000000000000000000000000001FB
:103460000101010101010000000000000000003026
:1034700030000000000000000000806018040060C0
:1034800018060100000000E010080810E000000F1E
:10349000102020100F00001010F800000000002085
:1034A000203F2020000000700808088870000030CD
:1034B0002824222130000030088888483000001875
:1034C000202020110E000000C02010F8000000078E
:1034D0000424243F240000F8088888080800001904
:1034E000212020110E0000E0108888180000000F35
:1034F000112020110E0000380808C838080000000C
:10350000003F000000000070880808887000001C60
:10351000222121221C0000E010080810E000000019
:10352000312222110F00000000C0C0000000000086
:1035300000303000000000000080000000000000AB
:1035400080600000000000008040201008000001A2
:103550000204081020004040404040404000040465
:10356000040404040400000810204080000000202F
:10357000100804020100007048080808F00000006C
:10358000003036010000C030C828E810E0000718FD
:10359000272423140B000000C038E0000000203C6A
:1035A00023020227382008F8888888700000203F0E
:1035B000202020110E00C030080808083800071825
:1035C00020202010080008F808080810E000203F1C
:1035D000202020100F0008F88888E8081000203FFD
:1035E00020202320180008F88888E8081000203FD1
:1035F000200003000000C030080808380000071849
:103600002020221E020008F808000008F808203FC9
:10361000210101213F20000808F8080800000020CF
:10362000203F2020000000000808F8080800C080A3
:1036300080807F00000008F888C028180800203F1C
:1036400020012638200008F8080000000000203F74
:1036500020202020300008F8F800F8F80800203F6B
:10366000003F003F200008F830C00008F808203F65
:10367000200007183F00E01008080810E0000F10B5
:10368000202020100F0008F808080808F000203F4C
:10369000210101010000E01008080810E0000F18E7
:1036A000242438504F0008F8888888887000203F0C
:1036B0002000030C3020007088080808380000380B
:1036C000202121221C00180808F808081800000012
:1036D000203F2000000008F808000008F808001F3C
:1036E000202020201F000878880000C8380800002B
:1036F00007380E010000F80800F80008F800033C45
:103700000700073C0300081868808068180820300C
:103710002C03032C30200838C800C83808000000EB
:10372000203F2000000010080808C8380800203892
:10373000262120201800000000FE020202000000E6
:10374000007F40404000000C30C00000000000003E
:1037500000010638C00000020202FE000000004026
:1037600040407F000000000004020202040000004C
:103770000000000000000000000000000000808049
:103780008080808080800002020400000000000031
:103790000000000000000000808080800000001910
:1037A000242222223F2008F8008080000000003FF1
:1037B000112020110E000000008080800000000E0B
:1037C000112020201100000000808088F800000EE9
:1037D000112020103F200000808080800000001F0A
:1037E000222222221300008080F08888881800207E
:1037F000203F202000000000808080808000006B3F
:1038000094949493600008F8008080800000203F2A
:10381000210000203F200080989800000000002038
:10382000203F20200000000000809898000000C089
:103830008080807F000008F8000080808000203FAA
:1038400024022D302000000808F8000000000020AD
:10385000203F202000008080808080808000203FEA
:1038600020003F20003F8080008080800000203FBB
:10387000210000203F200000808080800000001F89
:10388000202020201F00808000808000000080FF1A
:10389000A12020110E000000008080808000000E1A
:1038A000112020A0FF808080800080808000202068
:1038B0003F212000010000008080808080000033D4
:1038C000242424241900008080E08080000000006F
:1038D000001F202000008080000000808000001F6A
:1038E000202020103F208080800000808080000108
:1038F0000E300806010080800080008080800F303C
:103900000C030C300F0000808000808080000020BD
:10391000312E0E31200080808000008080808081E8
:103920008E70180601000080808080808000002159
:10393000302C2221300000000000807C02020000B8
:103940000000003F404000000000FF0000000000B9
:103950000000FF0000000002027C80000000004028
:10396000403F0000000000060101020204040000C4
:103970000000000000000000555555555555C53F45
:103980007D6FEB0312D6D4BF5544880E55C1C93F95
:103990003B8F68B52882A4BF88B20175E0EF493F2C
:1039A00009F7FD0DE13D023F4B2D8A1C273A03C06C
:1039B000C88A599CE52A004059018D1B6C06E6BF58
:1039C00082922EB1C5B8B33F4FBB610567ACDD3FF6
:1039D000182D4454FB21E93F9BF681D20B73EF3F36
:1039E000182D4454FB21F93FE2652F227F2B7A3CAE
:1039F000075C143326A6813CBDCBF07A8807703C67
:103A0000075C143326A6913CC4EB98999999C9BFD9
:103A1000711623FEC671BCBF6D9A74AFF2B0B3BF0E
:103A20009AFDDE522DDEADBF2F6C6A2C44B4A2BFCE
:103A30000D5555555555D53FFF8300922449C23F3A
:103A40006E204CC5CD45B73F513DD0A0660DB13F6E
:103A5000EB0D76244B7BA93F11DA22E33AAD903F80
:103A60000000000000000000883A0008000000206C
:103A700074000000C4010008FC3A00087400002033
:103A800064060000E00100080000000001020304D9
:103A90000102030406070809000000000000803F3F
:103AA0000000000000000000000000000000000016
:103AB0000000000000000000000000000AD7A33B47
:103AC000FAEF5D3800000000000000000000000078
:103AD00000000000000000000000000000000000E6
:103AE00000000000000000000000000000000000D6
:0C3AF000000000000000000000000000CA
:040000050800018965
:00000001FF
