:020000040800F2
:10000000A0060020290200082D0800084F0500085E
:10001000CF060008E30200089B1100080000000062
:10002000000000000000000000000000090D0008B2
:10003000E702000800000000DF0B0008590F00086D
:10004000430200084302000843020008430200087C
:10005000430200084302000843020008430200086C
:10006000430200084302000843020008430200085C
:10007000430200084302000843020008430200084C
:10008000430200084302000843020008430200083C
:10009000430200084302000843020008430200082C
:1000A000430200084302000843020008430200081C
:1000B000430200084302000843020008430200080C
:1000C00043020008430200084302000843020008FC
:1000D00043020008E10F0008430200084302000841
:1000E00043020008430200084302000843020008DC
:1000F00043020008430200084302000843020008CC
:1001000043020008430200084302000843020008BB
:1001100043020008430200084302000843020008AB
:10012000430200084302000843020008430200089B
:10013000430200084302000843020008430200088B
:10014000430200084302000843020008430200087B
:10015000430200084302000843020008430200086B
:10016000430200084302000843020008430200085B
:10017000430200084302000843020008430200084B
:10018000430200084302000800F002F800F03CF8C7
:100190000AA090E8000C82448344AAF10107DA45E2
:1001A00001D100F031F8AFF2090EBAE80F0013F0F8
:1001B000010F18BFFB1A43F0010318479417000002
:1001C000B4170000103A24BF78C878C1FAD8520793
:1001D00024BF30C830C144BF04680C6070470000C1
:1001E0000023002400250026103A28BF78C1FBD840
:1001F000520728BF30C148BF0B6070471FB501F0E0
:10020000A9F81FBD10B510BD00F031F81146FFF779
:10021000F5FF00F0C5FF00F04FF803B4FFF7F2FF61
:1002200003BC00F057F80000094880470948004720
:10023000FEE7FEE7FEE7FEE7FEE7FEE7FEE7FEE796
:10024000FEE7FEE704480549054A064B70470000F3
:10025000610F000889010008A0000020A00600200E
:10026000A0020020A002002070477047704775462A
:1002700000F02CF8AE4605006946534620F0070012
:10028000854618B020B5FFF7DDFFBDE820404FF0F0
:1002900000064FF000074FF000084FF0000B21F070
:1002A0000701AC46ACE8C009ACE8C009ACE8C0093D
:1002B000ACE8C0098D46704710B50446AFF3008026
:1002C0002046BDE81040FFF7A8BF00000048704777
:1002D0003C00002001491820ABBEFEE726000200CA
:1002E000704700BFFEE7704746F2A81300FB03F219
:1002F000114600E0491E0029FCDA7047C0EB0013EC
:100300005A00114600E0491E0029FCDA704700003F
:100310001CB50121084600F063FC01208DF80400A3
:1003200000208DF806002020009000208DF80700A6
:1003300002208DF805006946014800F003F81CBD55
:1003400000000240F0B50A4600210023002400BF4F
:100350003DE0012505FA01F3156805EA03049C4216
:1003600034D105684F000326BE40B54305601579BA
:100370004E00B5400668354305601579012D02D061
:100380001579022D16D185684F000326BE40B5436E
:10039000856055794E00B54086683543856045686F
:1003A00001268E40B5434560456896798E40B6B2C9
:1003B00035434560C5684F000326BE40B543C56060
:1003C000D5794E00B540C6683543C560491C102933
:1003D000BFD3F0BDF0B5002300244D07ED0E02FAA7
:1003E00005F3CE1000F1200555F826504E07F70E04
:1003F0000F26BE40B543CF1000F1200646F8275027
:10040000CE1000F1200555F8265045EA0304CE1021
:1004100000F1200545F82640F0BD02460020136992
:100420000B400BB1012000E00020704701837047B2
:100430000AB1018300E04183704700002DE9F041DB
:1004400006460F469046032000F0F9F804460420C3
:1004500000F0F5F8054645EA042000EE100AB8EE73
:10046000C00ADFED1E0A80EE201ABDEEC10A10EEB2
:10047000100A00B23080072000F0E1F8044608209E
:1004800000F0DDF8054645EA042000EE100AB8EE5B
:10049000C00ADFED120A80EE201ABDEEC10A10EE8E
:1004A000100A00B23880052000F0C9F80446062082
:1004B00000F0C5F8054645EA042000EE100AB8EE43
:1004C000C00ADFED060A80EE201ABDEEC10A10EE6A
:1004D000100A00B2A8F80000BDE8F0810000254431
:1004E00010B500F0F7F800216A2000F0C7F80221EB
:1004F000372000F0C3F81821002000F011F8602127
:10050000012000F00DF80021022000F009F8002180
:10051000372000F0B3F820216A2000F0AFF810BDBA
:1005200070B505460C4600F04CF93C2000F034F95B
:1005300000F0FEF8284600F02FF900F0F9F8204608
:1005400000F02AF900F0F4F800F049F970BD00BF9E
:10055000FEE72DE9F05F06460F4690469946DDE935
:100560000AAB3B2000F06BF804463C2000F067F833
:10057000054645EA042000B230803D2000F05FF8D7
:1005800004463E2000F05BF8054645EA042000B230
:1005900038803F2000F053F80446402000F04FF828
:1005A000054645EA042000B2A8F80000432000F008
:1005B00046F80446442000F042F8054645EA042087
:1005C00000B2A9F80000452000F039F804464620A2
:1005D00000F035F8054645EA042000B2AAF800000C
:1005E000472000F02CF80446482000F028F8054683
:1005F00045EA042000B2ABF80000BDE8F09F10B55A
:1006000000F068F801216B2000F038F800216C2020
:1006100000F034F80921192000F030F806211A20E2
:1006200000F02CF818211B2000F028F808211C20CD
:1006300000F024F880216A2000F020F810BD70B589
:10064000044600F0BEF8D02000F0A6F800F070F8E4
:10065000204600F0A1F800F06BF800F0B2F8D120CD
:1006600000F09AF800F064F800F070F805460120F8
:1006700000F086F800F0B3F8284670BD70B5054666
:100680000C4600F09EF8D02000F086F800F050F8FC
:10069000284600F081F800F04BF8204600F07CF886
:1006A00000F046F800F09BF870BD10B5BC21252085
:1006B000FFF7E4FF03212620FFF7E0FF8621272034
:1006C000FFF7DCFF01216720FFF7D8FF10BD00BF57
:1006D000FEE700001CB50121022000F081FA012094
:1006E0008DF804008DF806004FF440700090002053
:1006F0008DF8070001208DF8050069460448FFF7D2
:1007000021FE4FF440710248FFF790FE1CBD00002F
:100710000004024010B54FF400710448FFF77DFE5D
:1007200004460A20FFF7EAFD204610BD00040240FF
:1007300010B5012000F06CF8012000F05BF8FFF725
:10074000E9FF0446002000F055F810BD70B5002503
:10075000012000F05DF800240EE0012000F04AF8CE
:10076000FFF7D8FF012802D1802020410543002057
:1007700000F040F8601CC4B2082CEEDB284670BDC7
:1007800010B50446204600F043F8012000F032F88E
:10079000002000F02FF810BD70B5054600240DE0D4
:1007A0008021214101EA050000F032F8012000F02B
:1007B00021F8002000F01EF8601CC4B2082CEFDB0A
:1007C00070BD10B5012000F023F8012000F012F8F0
:1007D000002000F01DF8002000F00CF810BD10B54E
:1007E000002000F015F8012000F004F8012000F0CE
:1007F0000FF810BD10B5044622464FF4807103482F
:10080000FFF716FE0A20FFF779FD10BD0004024035
:1008100010B5044622464FF400710348FFF708FE66
:100820000A20FFF76BFD10BD000402407047000076
:1008300070B5002100230F22C4781CB3174C246824
:1008400004F4E064C4F5E064C4F30721C1F10404D6
:10085000E3B20A4144789C40E1B2847814402143D9
:100860000C07210E0E4C05786155047804F01F0525
:100870000124AC4005786D11AD0005F1E025C5F807
:10088000004109E0047804F01F050124AC40054D47
:100890000678761145F8264070BD00000CED00E0AA
:1008A00000E400E080E100E002490143024A1160F7
:1008B000704700000000FA050CED00E070B5002460
:1008C0000EE00021204600F0ECF8002504E00020B6
:1008D00000F075F9681CC5B2802DF8DB601CC4B24D
:1008E000082CEEDB70BD00001CB50121022000F0D9
:1008F00077F901208DF804008DF806004FF481602F
:10090000009000208DF8070001208DF80500694651
:100910000648FFF717FD012291020448FFF788FD02
:10092000012208210148FFF783FD1CBD000402409D
:1009300070B50546002414E08020204100EA05023D
:1009400008210F48FFF774FD012291020C48FFF7C0
:100950006FFD00224FF480610948FFF769FD601CBC
:10096000C4B2082CE8DB012291020548FFF760FDC4
:1009700000224FF480610248FFF75AFD70BD00006D
:100980000004024010B5012208210A48FFF750FD7B
:10099000012291020748FFF74BFD0022082105487C
:1009A000FFF746FD00224FF480610248FFF740FD4B
:1009B00010BD00000004024010B5002208210748C5
:1009C000FFF736FD012291020448FFF731FD0122B5
:1009D00008210248FFF72CFD10BD00000004024072
:1009E00070B5002406E0002500E06D1CB5F57A7FA7
:1009F000FBD3641CB4F57A7FF5D3FFF775FFAE2007
:100A000000F0CDF8D52000F0CAF8802000F0C7F83B
:100A1000A82000F0C4F83F2000F0C1F8D32000F077
:100A2000BEF8002000F0BBF8402000F0B8F8A1208C
:100A300000F0B5F8C82000F0B2F8DA2000F0AFF806
:100A4000122000F0ACF8812000F0A9F8CF2000F0CF
:100A5000A6F8D92000F0A3F8F12000F0A0F8DB20E0
:100A600000F09DF8302000F09AF8A42000F097F8EC
:100A7000A62000F094F88D2000F091F8142000F0EA
:100A80008EF8AF2000F08BF8FFF718FF70BD10B59F
:100A90000246012000E050430B1EA1F10101FAD1F2
:100AA00010BD70B505460C4645F0B00000F077F873
:100AB000102141EA141000F072F804F00F0000F069
:100AC0006EF870BD2DE9F04105460E461746721EC0
:100AD000D206110E6A1E5206100EFFF7E2FF002426
:100AE00009E0A7F12001134A02EB0111085D00F0B3
:100AF00066F8601CC4B2082CF3DB721ED206110E1D
:100B00006A1E012303EB4202D0B2FFF7CAFF0024A2
:100B10000BE0A7F12001074A02EB011204F10801E2
:100B2000505C00F04CF8601CC4B2082CF1DBBDE84E
:100B3000F08100005E1300082DE9F04781468846E9
:100B400015461E46002D06DB2B2241464846FFF780
:100B5000B9FF2F4605E02D2241464846FFF7B2FF78
:100B60006F42002417E0301B411E0A20FFF78FFF61
:100B7000B7FBF0F00A21B0FBF1F201FB120000F12B
:100B8000300A08EB0400401CC1B252464846FFF749
:100B900099FF601CC4B2B442E5DBBDE8F08710B534
:100BA0000446FFF7EFFE7820FFF7C2FE0020FFF7B4
:100BB000BFFE2046FFF7BCFEFFF7FEFE10BD10B5DE
:100BC0000446FFF7DFFE7820FFF7B2FE4020FFF774
:100BD000AFFE2046FFF7ACFEFFF7EEFE10BD7047FC
:100BE00029B1064A12680243044B1A6004E0034A22
:100BF00012688243014B1A6070470000303802408F
:100C000029B1064A12680243044B1A6004E0034A01
:100C100012688243014B1A6070470000443802405A
:100C2000F0B5002100220024022500260223324FC5
:100C30003F6807F00C0121B1042905D0082937D1FC
:100C400005E02E4F076036E02D4F076033E02A4F56
:100C50003F1F3F68C7F38056274F3F1F3F6807F08D
:100C60003F036EB1264FB7FBF3F7DFF88CC0ACF152
:100C7000040CDCF800C0CCF3881C07FB0CF40CE07F
:100C80001E4FB7FBF3F7DFF870C0ACF1040CDCF8D3
:100C900000C0CCF3881C07FB0CF4174F3F1F3F68C4
:100CA000C7F301477F1C7D00B4FBF5F7076002E046
:100CB000124F076000BF00BF0F4F3F6807F0F00101
:100CC0000909104F7A5C0768D74047600A4F3F68B0
:100CD00007F4E051890A0B4F7A5C4768D740876078
:100CE000054F3F6807F46041490B064F7A5C47683F
:100CF000D740C760F0BD0000083802400024F4006F
:100D000040787D0100000020704700000148007815
:100D1000704700003800002010B50246012000E0B6
:100D200050430B1EA1F10101FAD110BD10B50446CC
:100D30002146054800F02DFA00BF8021024800F04E
:100D400086F90028F9D010BD001001402DE9F041CE
:100D500006460C46002512E0601B411E0A20FFF7E4
:100D6000DBFFB6FBF0F00A21B0FBF1F201FB120051
:100D700000F130073846FFF7D9FF681CC5B2A5421D
:100D8000EADBBDE8F08170B50446002504E0605D53
:100D9000FFF7CCFF681CC5B2605D0028F7D170BDBD
:100DA00000B587B001211020FFF72AFF0121084676
:100DB000FFF716FF072209212A48FFF70BFB07223E
:100DC0000A212848FFF706FB02208DF818000020B2
:100DD0008DF81A004FF4C060059001208DF81B00BB
:100DE00002208DF8190005A91E48FFF7ABFA07226B
:100DF00009211C48FFF7EEFA07220A211948FFF7DC
:100E0000E9FA4FF4E13001900020ADF810000C2019
:100E1000ADF80E000020ADF80C00ADF80A00ADF8FA
:100E2000080001A9104800F045F9012240F22551BF
:100E30000D4800F019F94FF4A060FFF735FD2520AB
:100E40008DF8000001208DF803008DF801008DF869
:100E500002006846FFF7ECFC0121034800F0EBF8C4
:100E600007B000BD00000240001001400CB500209A
:100E7000019000903448006840F4803032490860A6
:100E800000BF3148006800F4003000900198401C19
:100E90000190009818B90198B0F5A04FF1D12A48F7
:100EA000006800F4003010B10120009001E0002043
:100EB00000900098012846D123484030006840F057
:100EC00080502149403108602048006840F440408B
:100ED0001E4908601C48083000681B49083108603A
:100EE0000846006840F4004008600846006840F486
:100EF000A05008601648091F0860081F006840F0ED
:100F00008070091F086000BF0F48006800F0007083
:100F10000028F9D040F205700E4908600A480830F0
:100F2000006820F00300084908310860084600689E
:100F300040F00200086000BF03480830006800F07D
:100F40000C000828F8D10CBD0038024000700040A9
:100F500019544007003C024000B500F035F800BDD0
:100F600010B51548006840F4700013490860134834
:100F7000006840F001001149086000200F49083165
:100F800008600E4800680E4908400C4908600D488A
:100F9000091D0860081F006820F48020091F0860F0
:100FA000002006490C310860FFF760FF4FF0006039
:100FB00001498039086010BD88ED00E0003802402A
:100FC000FFFFF6FE103000240448006820B10348FB
:100FD0000068401E0149086070470000340000208E
:100FE00010B540F22551094800F031F801280CD124
:100FF000064800F0C9F80649087001200549087044
:1010000040F22551014800F007F810BD00100140E2
:10101000380000203900002010B50022002340F6DF
:101020006A14A14200D100BF0A1201249440A3B265
:10103000DC43048010BD21B1828942F400528281D8
:1010400004E082894DF6FF731A40828170470246A0
:101050000020B1F5007F00D100BF13880B400BB119
:10106000012000E000207047F0B503460024002670
:101070000025002040F66A17B94200D100BF18468B
:10108000C1F3421401F01F06012707FA06F5012CEF
:1010900001D10C3004E0022C01D1103000E01430FA
:1010A0001AB107682F43076002E00768AF43076083
:1010B000F0BD00002DE9FF4705460E460024A1467D
:1010C00000BFA046B08900B100BF2C8A24F4405470
:1010D000F08804432C82AC8941F20C608443B088D0
:1010E00031890843718908430443AC81AC8A24F4F4
:1010F0004074B0890443AC826846FFF791FD2048F4
:10110000854202D01F48854202D1DDF80C9001E0F3
:10111000DDF80890A88900F4004040B109EBC9004F
:1011200000EB091031684900B0FBF1F707E009EB6B
:10113000C90000EB091031688900B0FBF1F76420A9
:10114000B7FBF0F004012009642101FB1078A889A5
:1011500000F4004040B1322000EBC800B0FBF1F0D9
:1011600000F00700044308E0322000EB081064217F
:10117000B0FBF1F000F00F0004432C81BDE8FF87C5
:10118000001001400014014001468888C0F30800A7
:101190007047C1F308028280704700BFFEE700007D
:1011A0001CB5FFF71DFCFFF7FBFDFFF793FAFFF7F8
:1011B00026FAFFF7ADF8FFF793F9B4E0FFF7A6FDC5
:1011C000012847D16B20FFF73AFA57490880574862
:1011D0005749584B584ACDE9001058495848FFF72D
:1011E000B8F902215348B0F90000FFF7AFFD55A050
:1011F000FFF7C9FD02214E48B0F90000FFF7A6FD38
:1012000050A0FFF7C0FD02214848B0F90000FFF7E9
:101210009DFD4CA0FFF7B7FD02214948B0F9000041
:10122000FFF794FD47A0FFF7AEFD02214348B0F958
:101230000000FFF78BFD43A0FFF7A5FD02213E480C
:10124000B0F90000FFF782FD3EA0FFF79CFD64208F
:10125000FFF74AF8FFF75AFD022824D1FFF725FAD5
:10126000394A3A493A48FFF7E9F802213848B0F9D3
:101270000000FFF76BFD33A0FFF785FD0221334827
:10128000B0F90000FFF762FD2EA0FFF77CFD022100
:101290002D48B0F90000FFF759FD2AA0FFF773FDB4
:1012A0000A20FFF721F805232548B0F90020012185
:1012B0000220FFF741FC05232048B0F9002001215E
:1012C0000320FFF739FC05231B48B0F9002001215A
:1012D0000420FFF731FC05231648B0F9002008214F
:1012E0000220FFF729FC05231148B0F9002008214E
:1012F0000320FFF721FC05230C48B0F9002008214A
:101300000420FFF719FC05231148B0F90020012142
:101310000846FFF711FC05230C48B0F9002008210E
:101320000120FFF709FC49E71C0000201A000020FB
:1013300018000020160000201400002012000020D9
:10134000100000200A000000300000202E000020C5
:101350002C0000204FF04070E1EE100A70470000B2
:10136000000000000000000000000000000000007D
:1013700000F8000000000000003330000000001002
:101380000C06100C0600000000000000000040C029
:101390007840C0784000043F04043F04040000701B
:1013A00088FC08300000001820FF211E0000F00813
:1013B000F000E018000000211C031E211E0000F0B8
:1013C0000888700000001E21232419272110101600
:1013D0000E000000000000000000000000000000FF
:1013E00000E018040200000000071820400000027E
:1013F0000418E000000000402018070000004040F2
:1014000080F0804040000202010F01020200000053
:1014100000F0000000000101011F010101000000B7
:1014200000000000000080B070000000000000001C
:1014300000000000000000010101010101010000A5
:10144000000000000000003030000000000000003C
:10145000000080601804006018060100000000E031
:1014600010080810E000000F102020100F000010DE
:1014700010F8000000000020203F20200000007035
:10148000080808887000003028242221300000302D
:101490000888884830000018202020110E00000025
:1014A000C02010F8000000070424243F240000F8A6
:1014B0000888880808000019212020110E0000E08B
:1014C000108888180000000F112020110E0000382D
:1014D0000808C83808000000003F00000000007045
:1014E000880808887000001C222121221C0000E0CE
:1014F00010080810E0000000312222110F00000047
:1015000000C0C000000000000030300000000000FB
:10151000008000000000000080600000000000006B
:101520008040201008000001020408102000404004
:101530004040404040000404040404040400000847
:1015400010204080000000201008040201000070FC
:1015500048080808F0000000003036010000C030E4
:10156000C828E810E0000718272423140B00000007
:10157000C038E0000000203C23020227382008F891
:10158000888888700000203F202020110E00C03085
:10159000080808083800071820202010080008F85C
:1015A00008080810E000203F202020100F0008F855
:1015B0008888E8081000203F20202320180008F821
:1015C0008888E8081000203F200003000000C03099
:1015D00008080838000007182020221E020008F81A
:1015E00008000008F808203F210101213F200008E1
:1015F00008F8080800000020203F2020000000001C
:101600000808F8080800C08080807F00000008F803
:1016100088C028180800203F20012638200008F83C
:10162000080000000000203F20202020300008F8A3
:10163000F800F8F80800203F003F003F200008F8BD
:1016400030C00008F808203F200007183F00E010D5
:1016500008080810E0000F10202020100F0008F8E4
:1016600008080808F000203F210101010000E010F7
:1016700008080810E0000F18242438504F0008F81C
:10168000888888887000203F2000030C302000707C
:101690008808080838000038202121221C0018087A
:1016A00008F8080818000000203F2000000008F893
:1016B00008000008F808001F202020201F000878DC
:1016C000880000C83808000007380E010000F8083C
:1016D00000F80008F800033C0700073C0300081866
:1016E00068808068180820302C03032C30200838CC
:1016F000C800C83808000000203F20000000100883
:101700000808C838080020382621202018000000CA
:1017100000FE020202000000007F40404000000C7A
:1017200030C000000000000000010638C0000002C8
:101730000202FE000000004040407F000000000068
:10174000040202020400000000000000000000008B
:101750000000000000008080808080808080000287
:101760000204000000000000000000000000000073
:101770008080808000000019242222223F2008F867
:10178000008080000000003F112020110E000000AA
:10179000008080800000000E112020201100000039
:1017A00000808088F800000E112020103F200000EB
:1017B000808080800000001F2222222213000080EF
:1017C00080F0888888180020203F2020000000003A
:1017D000808080808000006B94949493600008F86F
:1017E000008080800000203F210000203F200080FA
:1017F0009898000000000020203F202000000000FA
:1018000000809898000000C08080807F000008F869
:10181000000080808000203F24022D30200000083E
:1018200008F8000000000020203F202000008080F9
:10183000808080808000203F20003F20003F80800B
:10184000008080800000203F210000203F20000019
:10185000808080800000001F202020201F008080CA
:1018600000808000000080FFA12020110E000000F9
:10187000008080808000000E112020A0FF808080EA
:1018800080008080800020203F2120000100000097
:10189000808080808000003324242424190000806C
:1018A00080E0808000000000001F20200000808079
:1018B000000000808000001F202020103F2080803A
:1018C00080000080808000010E30080601008080CA
:1018D0000080008080800F300C030C300F000080EF
:1018E0008000808080000020312E0E31200080801A
:1018F00080000080808080818E701806010000804A
:101900008080808080000021302C22213000000067
:101910000000807C020200000000003F4040000008
:101920000000FF00000000000000FF0000000002B7
:10193000027C800000000040403F000000000006E4
:101940000101020204040000000000000000000089
:1019500070190008000000203C000000C4010008CD
:10196000AC1900083C00002064060000E0010008FB
:101970000000000001020304010203040607080935
:101980000000000000000000000000000000000057
:101990000000000000000000000000000000000047
:0C19A0000000000000000000000000003B
:040000050800018965
:00000001FF
