:020000040800F2
:100000002827002029020008751500083907000874
:10001000E51400080B050008DF430008000000009D
:100020000000000000000000000000002937000868
:100030000F05000800000000390300081939000806
:100040004902000849020008490200084902000864
:100050004902000849020008490200084902000854
:100060004902000849020008490200084902000844
:100070004902000849020008490200084902000834
:100080004902000849020008490200084902000824
:100090004902000849020008490200084902000814
:1000A0004902000849020008490200084902000804
:1000B000613A0008490200084902000849020008A4
:1000C00049020008490200084902000849020008E4
:1000D00049020008B141000849020008490200082D
:1000E00049020008490200084902000849020008C4
:1000F00049020008490200084902000849020008B4
:1001000049020008490200084902000849020008A3
:100110004902000849020008490200084902000893
:100120004902000849020008490200084902000883
:100130004902000849020008490200084902000873
:100140004902000849020008490200084902000863
:100150004902000849020008490200084902000853
:100160004902000849020008490200084902000843
:100170004902000849020008490200084902000833
:10018000490200084902000800F002F800F03CF8BB
:100190000AA090E8000C82448344AAF10107DA45E2
:1001A00001D100F031F8AFF2090EBAE80F0013F0F8
:1001B000010F18BFFB1A43F0010318473461000018
:1001C00054610000103A24BF78C878C1FAD85207A9
:1001D00024BF30C830C144BF04680C6070470000C1
:1001E0000023002400250026103A28BF78C1FBD840
:1001F000520728BF30C148BF0B6070471FB505F0DC
:1002000040FC1FBD10B510BD00F042F91146FFF7CC
:10021000F5FF04F049FE00F060F903B4FFF7F2FFC8
:1002200003BC00F063F900000B4880470B4880478F
:1002300004F03AFEFEE7FEE7FEE7FEE7FEE7FEE734
:10024000FEE7FEE7FEE7FEE7FEE70000044805499B
:10025000054A064B7047000083030008710200083E
:1002600028210020282700202823002028230020E0
:1002700008480949094AA2F1040283588B50002A10
:10028000F9D107480749A1F104014FF00003435099
:100290000029F8D11063000800000020E0000000F1
:1002A000E00000204826000072B602B4EFF311818E
:1002B00080F31188BFF34F8FBFF36F8F084602BCE6
:1002C00062B6704772B680F31188BFF34F8FBFF3E9
:1002D0006F8F62B6704772B652484FF0FF010170DF
:1002E000002080F309885048016881F3088802F0F3
:1002F000E9F94E48012101704D484E490A780270D3
:100300004D484E490A680260106880F30988EFF38F
:10031000148040F0020080F31488BFF36F8FBDE8B3
:10032000F04F0FBCBDE8005006BC62B60847444819
:100330004FF0805101607047EFF3098020E9F04FE2
:100340003D4D29680860744602F0BCF938483949C7
:100350000A78027039490A682A6044F0040E10686D
:10036000B0E8F04F80F3098840F20002C0F20002CA
:1003700072B682F31188BFF34F8FBFF36F8F62B6EF
:1003800070473048016841F470010160BFF34F8F3E
:10039000BFF36F8F2C48016841F4A0210160016810
:1003A00011F4003FFBD029484FF0020101602848BA
:1003B0004FF0000141F0080141F4A84141F48031BF
:1003C00041F4800101602048016841F080710160C2
:1003D000016811F0007FFBD01E484FF0000141F092
:1003E000000141F4805141F0000141F0020101603F
:1003F000016801F00C02082AFAD117484FF00001F9
:1004000041F0050101601448144941604FF00001BA
:1004100081604FF007010160114841F0A061016067
:1004200062B6704722ED00E0D40000209600002064
:100430008B0000208C0000209C000020A4000020E5
:1004400004ED00E088ED00E000380240003C02408E
:10045000043802400838024010E000E01F48010064
:1004600020ED00E070477047704710B500F008F8C5
:10047000006810BD10B5044600F002F8046010BD1D
:1004800000487047C420002000487047C420002066
:100490007546FFF7F9FFAE4605006946534620F062
:1004A0000700854618B020B5FFF7D0FEBDE8204014
:1004B0004FF000064FF000074FF000084FF0000B20
:1004C00021F00701AC46ACE8C009ACE8C009ACE8D3
:1004D000C009ACE8C0098D46704710B50446AFF3BB
:1004E00000802046BDE81040FFF797BE0149182064
:1004F000ABBEFEE7260002007047704770477047AA
:100500007047704770477047704700BFFEE77047FD
:1005100046F2A81300FB03F2114600E0491E002931
:10052000FCDA70471CB50121084603F059F8012098
:100530008DF8040000208DF8060020200090002097
:100540008DF8070002208DF805006946014800F08B
:1005500003F81CBD00000240F0B50A46002100234C
:10056000002400BF3DE0012505FA01F3156805EA06
:1005700003049C4234D105684F000326BE40B543B6
:10058000056015794E00B54006683543056015795C
:10059000012D02D01579022D16D185684F00032652
:1005A000BE40B543856055794E00B54086683543F9
:1005B0008560456801268E40B5434560456896795B
:1005C0008E40B6B235434560C5684F000326BE4035
:1005D000B543C560D5794E00B540C6683543C560A2
:1005E000491C1029BFD3F0BDF0B5002300244D07EE
:1005F000ED0E02FA05F3CE1000F1200555F8265055
:100600004E07F70E0F26BE40B543CF1000F120066F
:1006100046F82750CE1000F1200555F8265045EA3F
:100620000304CE1000F1200545F82640F0BD0AB1C4
:10063000018300E04183704710B500F055FF0021B1
:100640006A2000F0C7FE0221372000F0C3FE7021AF
:10065000002000F03FF86021012000F03BF800216D
:10066000022000F037F80021372000F0B3FE2021EF
:100670006A2000F0AFFE1E20FFF74AFF10BD000009
:1006800070B505460E4642F210740DE0641E5CB96A
:1006900009A003F0CDF80A48008800F0020010B16C
:1006A00008A003F0C5F805E03146284600F052F8EE
:1006B0000128EBD100BF70BD4552524F52000000DF
:1006C00018540040493243204275732042757379B3
:1006D0000000000070B504460D460121134800F0EB
:1006E0005AF813491148FFF7CBFF00223C210F486D
:1006F00000F0E2F80F490D48FFF7C2FF21460B4812
:1007000000F0E2F80B49891E0848FFF7B9FF2946B7
:10071000064800F0D9F80749891C0448FFF7B0FFE4
:100720000121024800F043F870BD00000054004071
:10073000010003008200070000BFFEE721B102882C
:1007400042F48062028004E002884FF6FF331A40D0
:100750000280704770B50246002400250023002067
:10076000958A138B1B0445EA030626F07F4404EAAE
:1007700001068E4201D1012000E0002070BD21B1B0
:10078000028842F00102028004E002884FF6FE7304
:100790001A400280704721B1028842F480720280C0
:1007A00004E002884FF6FF631A400280704721B1CF
:1007B000028842F40072028004E002884FF6FF5380
:1007C0001A400280704700002DE9FF4704460D469D
:1007D0000026B1460427DFF8CC80A6884FF6C0700B
:1007E0000640684602F02CFFDDF808802E48B8FB72
:1007F000F0F01FFA80F946EA0906A68020884FF635
:10080000FE710840208000262849286888420CD8BC
:1008100028684000B8FBF0F087B2042F00DA042704
:100820003E4309F10100208427E0E8884BF6FF7180
:10083000884206D1286800EB4000B8FBF0F087B290
:1008400009E0286800EBC00101EB0010B8FBF0F0F4
:1008500087B247F48047C7F30B0008B947F0010798
:1008600047F4004006434FF4967009FB00F04FF444
:100870007A7190FBF1F0401C2084A683208840F020
:100880000100208026884FF6F5300640A888698947
:10089000084306432680A889298908432081BDE8AA
:1008A000FF87000000127A0040420F00A08601007E
:1008B0000146088AC0B2704712B141F0010101E05F
:1008C00001F0FE01018270470182704770B52DED85
:1008D000108BA8B004460D461646FE4890ED000A5F
:1008E00020EE000AF0EE408A90ED000AFA48D0EDC2
:1008F000000A20EE200AF0EE40CAF64890ED000A09
:10090000F648D0ED000A20EE200AF0EE40BAF14899
:1009100090ED000AF248D0ED000A20EE200AB0EE79
:1009200040DAED4890ED000A20EE000AB0EE409A61
:1009300090ED000AE948D0ED000A20EE200AB0EE62
:1009400040CAE54890ED000AE548D0ED000A20EEE7
:10095000200AF0EE40DAE14890ED000A20EE000AAD
:10096000F0EE409A90ED000ADD48D0ED000A20EE4E
:10097000200AB0EE40EA90ED000A20EE000AB0EE48
:1009800040AAD848D849D94BD94ACDE90010D9490D
:10099000D94800F033FCD94AD949DA4800F04CFD77
:1009A000D548B0F9000000EE100AB8EEC00ADFED3D
:1009B000D60A20EE200A8DED260ACE48B0F90000B6
:1009C00000EE100AB8EEC00ADFEDCF0A20EE200AD2
:1009D0008DED250AC648B0F9000000EE100AB8EE09
:1009E000C00ADFEDC90A20EE200A8DED240ABF48B7
:1009F000B0F90000353000EE100AB8EEC00ADFEDA5
:100A0000C30A20EE200AF0EE40EAB748B0F9000031
:100A10000C3000EE100AB8EEC00ADFEDBC0A20EE82
:100A2000200AB0EE40FAAF48B0F900000F3000EEF7
:100A3000100AB8EEC00ADFEDB50A20EE200AF0EE8B
:100A400040FAB04890ED000A8DED230AAC4890EDD5
:100A5000000A8DED220AA94890ED000A8DED210AC9
:100A600024AB25AA26A9AA4804F032FA994890EDA9
:100A7000000A9A48D0ED000A9DED261A00EE810A80
:100A80009548D0ED000A9DED251A00EEC10A914867
:100A9000D0ED000A9DED241A00EEC10AF0EE000A26
:100AA00020EE200A8DED1D0A8B4890ED000A8C483F
:100AB000D0ED000A9DED261A00EEC10A8548D0ED62
:100AC000000A9DED251A00EEC10A8348D0ED000A08
:100AD0009DED241A00EE810AF0EE000A20EE200AB5
:100AE0008DED1E0A7D4890ED000A7A48D0ED000A8F
:100AF0009DED261A00EE810A7948D0ED000A9DEDA1
:100B0000251A00EEC10A7548D0ED000A9DED241AA1
:100B100000EE810AF0EE000A20EE200A8DED1F0A99
:100B20006F4890ED000A6C48D0ED000A9DED261A42
:100B300000EEC10A6948D0ED000A9DED251A00EECD
:100B4000C10A6748D0ED000A9DED241A00EEC10AE3
:100B5000F0EE000A20EE200A8DED200A21AB22AA39
:100B600023A96B4804F0B4F938EE890A30EE690A1B
:100B700030EE4A0ADDED230A20EE200A7CEE0D0A53
:100B8000B0EE001A60EE810A9DED221A00EE810A95
:100B90007CEE6B0AB0EE001A60EE810A9DED211A20
:100BA00000EE810A8DED140A3CEE4D0AF0EE000ACB
:100BB00020EE200ADDED230A20EE200A78EEC90A95
:100BC00070EEA90A70EECA0A9DED221A00EE810AA3
:100BD0007CEE8E0AB0EE001A60EE810A9DED211ABD
:100BE00000EE810A8DED130A3BEEAD0AF0EE000A2D
:100BF00020EE200ADDED230A20EE200A7EEE6C0AAC
:100C0000B0EE001A60EE810A9DED221A00EE810A14
:100C100078EEC90A70EEE90A70EECA0A9DED211A53
:100C200000EE810AB0EE408A9DED140A60EE000AE3
:100C30009DED130A40EE000A10EE901A084604F0EB
:100C4000AFFECDE904019DED040B03F0F9FF8DED3E
:100C5000060B9DED060B51EC100B04F0AFF90AEEFC
:100C6000900AB0EE48BA38EE890A30EE690A30EEE2
:100C70004A0A20EE2A0A7DEEEB0AB0EE001A60EE78
:100C8000810A00EE8B0ADDED230A30EE600A8DED5D
:100C9000120A3CEE4D0AF0EE000A20EE200A20EE89
:100CA0002A0A7CEE8E0AB0EE001A60EE810A00EE8F
:100CB0008B0ADDED220A30EE600A8DED110A3BEE63
:100CC000AD0AF0EE000A20EE200A20EE2A0A78EEA5
:100CD000C90A1FE044000020480000204C0000200A
:100CE0005000002036000020340000203200002098
:100CF000300000202E0000202C00002040000020AA
:100D00003C0000203800002040DAFF38D50A2E3C95
:100D10006C00002070EEE90A70EE8A0A00EE8B0A81
:100D2000DDED210A30EE600A8DED100AFE4890EDEF
:100D3000000A20EE2A0A8DED0F0AFC4890ED000A09
:100D400020EE2A0A8DED0E0AF94890ED000A20EEF9
:100D50002A0A8DED0D0AF74890ED000A20EE2A0AC6
:100D60008DED0C0AF04890ED000A20EE0B0A8DED97
:100D70000B0AEE4890ED000A20EE0B0A8DED0A0AF0
:100D8000EB4890ED000A20EE0B0A8DED090AE948C8
:100D900090ED000A20EE0B0A8DED080A9DED0F0A7A
:100DA000DDED090A70EE600A9DED120A20EE800A60
:100DB000DDED0A0A9DED0C1A30EEC11ADDED110AC7
:100DC00001EE200ADDED0D0A9DED0B1A30EE811AC1
:100DD000DDED100A01EE200AF0EE000A20EE200AF6
:100DE0008DED190A9DED0E0ADDED080A70EE200A60
:100DF0009DED120A20EE800ADDED0D0A9DED0B1A25
:100E000030EE811ADDED110A01EE200ADDED0C0A4B
:100E10009DED0A1A30EEC11ADDED100A01EE200A2E
:100E2000F0EE000A20EE200A8DED1A0A9DED0D0A63
:100E3000F1EE400A9DED0B0A70EEC00A9DED120A1C
:100E400020EE800ADDED0E0A9DED081A30EE811AC3
:100E5000DDED110A01EE200ADDED0F0A9DED091A04
:100E600030EEC11ADDED100A01EE200AF0EE000AA4
:100E700020EE200A8DED1B0A9DED0A0ADDED0C0A1D
:100E800070EE600A9DED120A20EE800ADDED090A7F
:100E90009DED0F1A30EEC11ADDED110A01EE200AA8
:100EA000DDED0E0A9DED081A30EE811ADDED100A17
:100EB00001EE200AF0EE000A20EE200A8DED1C0A59
:100EC000B1EE6E0A9948D0ED000A20EE200A98484B
:100ED000D0ED000A0FEE600A9648D0ED000A0FEE42
:100EE000E00A954890ED001A8F48D0ED000A40EED8
:100EF000010ACDED150A90ED000A2EEE800A8C480D
:100F0000D0ED000A0FEEA00A8A48D0ED000A0FEEDD
:100F1000600A894890ED001A8448D0ED000A40EE3E
:100F2000010ACDED160A804890ED000A2FEE000A66
:100F30007E48D0ED000A0FEEE00A7E48D0ED000AB0
:100F40000EEEA00A7C4890ED001A7948D0ED000A18
:100F500040EE010ACDED170A734890ED000A2FEE1E
:100F6000800A7248D0ED000A0FEE200A7048D0EDDA
:100F7000000A0EEEE00A704890ED001A6D48D0EDC0
:100F8000000A40EE010ACDED180A9DED1D0ADDEDC7
:100F9000190A30EE200A694880ED000A9DED1E0A0C
:100FA000DDED1A0A30EE200A654880ED000A9DED5D
:100FB0001F0ADDED1B0A30EE200A624880ED000AB0
:100FC0009DED200ADDED1C0A30EE200A5E4880ED22
:100FD000000A03465B4A5A49584803F079FF9DEDE1
:100FE000150A5A48D0ED000A544890ED001A60EEF8
:100FF000810A514890ED001A60EE810AB0EE001AA5
:1010000000EEC10A484880ED000A9DED160A4F48DF
:10101000D0ED000A4A4890ED001A60EE810A464879
:1010200090ED001A60EE810AB0EE001A00EEC10ADF
:101030003E4880ED000A9DED170A4448D0ED000AB5
:10104000404890ED001A60EE810A3B4890ED001A8E
:1010500060EE810AB0EE001A00EEC10A344880ED5D
:10106000000A9DED180A3948D0ED000A364890ED87
:10107000001A60EE810A304890ED001A60EE810A95
:10108000B0EE001A00EEC10A2A4880ED000A0346BD
:10109000274A2649244803F01BFF38EEC90A30EEE0
:1010A000690A30EE0A0A10EE101A084604F078FCBD
:1010B000B0EE000A2EEE000AF0EE000A00EEAC0AD6
:1010C000CDE9020110EE101A084604F069FCCDE9E2
:1010D00000019DED021B9DED000B03F0B9FC8DEDB1
:1010E000040B9FED1B0B53EC102B9DED040B51ECEF
:1010F000100B04F095F9CDE906019DED060B51ECBE
:10110000100B03F05BFF20603BEEED0AF0EE000AEF
:1011100020EE200A10EE101A084604F041FCCDE93A
:1011200002019DED020B17E0440000204800002062
:101130004C000020500000206400002054000020DB
:10114000580000205C0000206000002068000020A3
:101150000000006066A64C4003F05EF98DED040BC4
:101160001FED050B53EC102B9DED040B51EC100BF8
:1011700004F056F9CDE906019DED060B51EC100B7C
:1011800003F01CFF286038EE890A30EE690A30EE61
:101190004A0A10EE101A084604F002FCB0EE000AEB
:1011A0002DEE000AF0EE000A00EE8C0ACDE90201F5
:1011B00010EE101A084604F0F3FBCDE900019DED96
:1011C000021B9DED000B03F043FC8DED040B1FEDA6
:1011D000200B53EC102B9DED040B51EC100B04F085
:1011E0001FF9CDE906019DED060B51EC100B03F044
:1011F000E5FE306028B0BDEC108B70BD2DE9F05FCE
:1012000006460F4690469946DDE90AAB3B2000F0C2
:101210006BF804463C2000F067F8054645EA0420D8
:1012200000B230803D2000F05FF804463E2000F020
:101230005BF8054645EA042000B238803F2000F004
:1012400053F80446402000F04FF8054645EA0420D4
:1012500000B2A8F80000432000F046F804464420FD
:1012600000F042F8054645EA042000B2A9F8000063
:10127000452000F039F80446462000F035F80546D0
:1012800045EA042000B2AAF80000472000F02CF83C
:101290000446482000F028F8054645EA042000B23C
:1012A000ABF80000BDE8F09F10B500F01DF901217A
:1012B0006B2000F08FF800216C2000F08BF80921E2
:1012C000192000F087F806211A2000F083F8182171
:1012D0001B2000F07FF818211C2000F07BF8202153
:1012E0006A2000F077F810BD70B50446012121484E
:1012F000FFF751FA20491F4800F042F80022D021A0
:101300001C48FFF7D9FA1D491A4800F039F8214660
:101310001848FFF7D9FA1949891C164800F030F827
:1013200001211448FFF737FA1349124800F028F852
:101330000122D0210F48FFF7BFFA0F49491C0D4881
:1013400000F01EF800210B48FFF7F8F901210948C9
:10135000FFF72DFA08493F31064800F011F805481B
:10136000FFF7A6FA054601210248FFF7E7F92846EC
:1013700070BD00000054004001000300820007001F
:1013800070B505460E4642F210740DE0641E5CB95D
:1013900009A002F04DFA0A48008800F0020010B1DE
:1013A00008A002F045FA05E031462846FFF7D2F9D9
:1013B0000128EBD100BF70BD4552524F52000000D2
:1013C00018540040493243204275732042757379A6
:1013D0000000000070B504460D4601211348FFF7D8
:1013E000DAF913491148FFF7CBFF0022D0210F484B
:1013F000FFF762FA0F490D48FFF7C2FF21460B487D
:10140000FFF762FA0B49891E0848FFF7B9FF294622
:101410000648FFF759FA0749891C0448FFF7B0FF4F
:1014200001210248FFF7C3F970BD000000540040DD
:1014300001000300820007002DE9F04106460F4637
:1014400090469E212520FFF7C5FF03212620FFF7A8
:10145000C1FF86212720FFF7BDFF01216720FFF78D
:10146000B9FF4920FFF740FF04464A20FFF73CFF41
:10147000054645EA042000EE100AB8EEC00ADFED8A
:10148000180A80EE201A86ED001A4B20FFF72CFF79
:1014900004464C20FFF728FF054645EA042000EEED
:1014A000100AB8EEC00ADFED0E0A80EE201A87EDB2
:1014B000001A4D20FFF718FF04464E20FFF714FFD7
:1014C000054645EA042000EE100AB8EEC00ADFED3A
:1014D000040A80EE201A88ED001ABDE8F0810000B1
:1014E0000000254400BFFEE700B587B00121480594
:1014F00002F086F80121022002F072F802208DF835
:10150000180001208DF81A004FF44070059001205A
:101510008DF8190005A91548FFF71EF804220821C7
:101520001248FFF761F8042209211048FFF75CF820
:101530000020ADF808004CF2503001904BF6FF70DF
:10154000ADF80A004FF48060ADF80E000001ADF870
:1015500010000020ADF80C0001A90548FFF734F990
:1015600001210348FFF70BF907B000BD000402405A
:10157000005400407047000070B5002100230F2286
:10158000C4781CB3174C246804F4E064C4F5E06428
:10159000C4F30721C1F10404E3B20A4144789C403A
:1015A000E1B28478144021430C07210E0E4C0578DB
:1015B0006155047804F01F050124AC4005786D11D5
:1015C000AD0005F1E025C5F8004109E0047804F01C
:1015D0001F050124AC40054D0678761145F82640DC
:1015E00070BD00000CED00E000E400E080E100E0F0
:1015F00002490143024A1160704700000000FA05E9
:101600000CED00E070B500240EE00021204600F053
:10161000ECF8002504E0002000F0C4F9681CC5B215
:10162000802DF8DB601CC4B2082CEEDB70BD00001E
:101630001CB50121022001F0D3FF01208DF8040028
:101640008DF806004FF48160009000208DF80700AF
:1016500001208DF8050069460648FEF77DFF01224E
:1016600091020448FEF7E3FF012208210148FEF73A
:10167000DEFF1CBD0004024070B50546002414E0E6
:101680008020204100EA050208210F48FEF7CFFF25
:10169000012291020C48FEF7CAFF00224FF480613C
:1016A0000948FEF7C4FF601CC4B2082CE8DB012225
:1016B00091020548FEF7BBFF00224FF4806102480B
:1016C000FEF7B5FF70BD00000004024010B5012216
:1016D00008210A48FEF7ABFF012291020748FEF7F6
:1016E000A6FF002208210548FEF7A1FF00224FF4C3
:1016F00080610248FEF79BFF10BD0000000402401D
:1017000010B5002208210748FEF791FF012291023F
:101710000448FEF78CFF012208210248FEF787FFEC
:1017200010BD00000004024070B5002406E0002552
:1017300000E06D1CB5F57A7FFBD3641CB4F57A7FAD
:10174000F5D3FFF775FFAE2000F01CF9D52000F0AF
:1017500019F9802000F016F9A82000F013F93F20B5
:1017600000F010F9D32000F00DF9002000F00AF984
:10177000402000F007F9A12000F004F9C82000F093
:1017800001F9DA2000F0FEF8122000F0FBF88120C9
:1017900000F0F8F8CF2000F0F5F8D92000F0F2F8CA
:1017A000F12000F0EFF8DB2000F0ECF8302000F042
:1017B000E9F8A42000F0E6F8A62000F0E3F88D2078
:1017C00000F0E0F8142000F0DDF8AF2000F0DAF8C7
:1017D000FFF718FF70BD10B50246012000E050432E
:1017E0000B1EA1F10101FAD110BD70B505460C46E2
:1017F00045F0B00000F0C6F8102141EA141000F0E6
:10180000C1F804F00F0000F0BDF870BD2DE9F04103
:1018100005460E461746721ED206110E6A1E520665
:10182000100EFFF7E2FF002409E0A7F12001134AA0
:1018300002EB0111085D00F0B5F8601CC4B2082C81
:10184000F3DB721ED206110E6A1E012303EB420265
:10185000D0B2FFF7CAFF00240BE0A7F12001074A2E
:1018600002EB011204F10801505C00F09BF8601CCF
:10187000C4B2082CF1DBBDE8F0810000965A0008E4
:101880002DE9F05F2DED028B82460E46B0EE408AC8
:10189000154698464FF00109B5EEC08AF1EE10FAF0
:1018A00007DB2B2231465046FFF7B0FFF0EE488AA7
:1018B00006E02D2231465046FFF7A8FFF1EE488A98
:1018C00041460A20FFF787FF00EE100AB8EE400AF3
:1018D00020EE280ABDEEC00A10EE107A2C4637E042
:1018E000A5EB0800A0421DD130194844C1B22E22F8
:1018F0005046FFF78BFF4FF00009291B0A20FFF726
:101900006AFFB7FBF0F00A21B0FBF1F201FB120015
:1019100000F1300B30194844C1B25A465046FFF727
:1019200075FF13E0291B0A20FFF755FFB7FBF0F006
:101930000A21B0FBF1F201FB120000F1300B30196B
:101940004844C1B25A465046FFF760FF601EC4B219
:10195000002CC5DCBDEC028BBDE8F09F2DE9F04109
:1019600007460E461546002407E02A5D3019C1B22D
:101970003846FFF74BFF601CC4B2285D0028F4D145
:10198000BDE8F08110B50446FFF7A0FE7820FFF710
:1019900073FE0020FFF770FE2046FFF76DFEFFF795
:1019A000AFFE10BD10B50446FFF790FE7820FFF79C
:1019B00063FE4020FFF760FE2046FFF75DFEFFF765
:1019C0009FFE10BD1D481E481E481F481F48204846
:1019D00020482148214822482248234823482448B7
:1019E0002448254825482648264827482748284887
:1019F0002848294829482A482A482B482B482C4857
:101A00002C482D482D482E482E482F482F48304826
:101A100030483148314832483248334833483448F6
:101A200034483548354836483648374837483848C6
:101A300038483948394800BF7047000088600008BE
:101A40008C600008926000089460000890600008B4
:101A500096600008986000089A6000089C60000882
:101A60009E600008A0600008A2600008A460000852
:101A7000A6600008A8600008AA600008AC60000822
:101A8000AE600008B0600008B2600008B4600008F2
:101A9000B6600008B8600008BA600008BC600008C2
:101AA000BE600008C0600008C2600008C460000892
:101AB000C6600008C8600008CA600008CC60000862
:101AC000CE600008D0600008D2600008D460000832
:101AD000D6600008D8600008DA600008DE60000800
:101AE000E0600008E2600008E46000080C180020D4
:101AF0008C1C0020EA600008EC600008EE60000822
:101B0000F0600008F2600008F4600008F660000869
:101B1000F8600008FA600008E6600008FC60000851
:101B20002DE9F04105460E46144600271DB9042054
:101B30002070BDE8F08116B90C202070F9E7144838
:101B4000007810B112202070F3E72878012808D01F
:101B5000022807D0032802D0042804D100E000BFE7
:101B600000BF00BF02E001202070E2E700BF00BF1D
:101B70006020FEF799FB074600BF6E6100BF384644
:101B8000FEF7A0FB00BF0020207000BFD1E70000DF
:101B90008900002010B500F019F801F0F1F801F00B
:101BA0001DF901F03DF901F0BBF801F07DF801F0FD
:101BB000D1F901F0FBF901F073F901F099F900F0A6
:101BC00065FE00F025F8FFF7FDFE10BD0B484FF451
:101BD000807102E0491E002204C00029FAD1084A9F
:101BE000084B1A601A46126822F007021A60002297
:101BF000054B1A806022054B1A607047C41C0020F8
:101C0000C4200020D4000020D8000020DC000020E8
:101C10007047000006480078012808D10548007880
:101C2000FF2804D203480078401C0249087070471E
:101C3000960000208900002010B500241D4800787F
:101C4000012835D100BF6020FEF72EFB044600BFFF
:101C50001948007820B118480078401E16490870CD
:101C600015480078F8B915480078E0B901F004FA91
:101C700013481449097850F82100134908601148A5
:101C800000781249097888420DD00F480068006C2E
:101C9000401C0D49096808640D480068401C0C4947
:101CA0000860FEF744FB00BF2046FEF70BFB00BFB9
:101CB00010BD000096000020890000208A0000204E
:101CC0004C0E00208C000020A40000208B0000207F
:101CD0007000002010B500240D480078012816D1AE
:101CE00000BF6020FEF7E0FA044600BF0948007814
:101CF00040B909480078FF2804D207480078401C02
:101D00000549087000BF2046FEF7DCFA00BF10BD91
:101D100096000020890000208A00002010B50024D1
:101D20001748007801282AD100BF6020FEF7BCFACE
:101D3000044600BF13480078E0B913480078A0B10A
:101D400011480078401E104908700846007838B9DC
:101D500000BF2046FEF7B6FA00BF01F04DF90EE0D5
:101D600000BF2046FEF7AEFA09E000BF2046FEF7AE
:101D7000A9FA04E000BF2046FEF7A4FA00BF10BD98
:101D800096000020890000208A00002070B50546DA
:101D900000261348007808B1002070BD00BF602005
:101DA000FEF782FA064600BF0E480468006820B1BC
:101DB0000C48006840680B49086000BF3046FEF7D9
:101DC00081FA00BF4CB103202070258100206060A3
:101DD00005A06061204600F059FF2046DDE70000C5
:101DE00089000020740000203F0000002DE9F04130
:101DF00005460E46144600271DB904202070BDE894
:101E0000F0812878032802D001202070F7E73A48B3
:101E1000007810B102202070F1E73848007810B146
:101E20000D202070EBE700BF6020FEF73DFA07466B
:101E300000BF288950B12889401E288100BF38463C
:101E4000FEF740FA00BF00202070D8E72C48006859
:101E500090F8380040F001002949096881F83800FD
:101E600000202749096881F8390025480068466341
:101E7000284600F0CDFE00BF3846FEF723FA00BF2B
:101E800001F0BAF800BF6020FEF70EFA074600BF67
:101E90001B48006890F8390020B1012809D00228B9
:101EA00006D102E0002020700BE00E20207008E038
:101EB00000BF29461248006800F076FE0A20207014
:101EC00000BF00BF00200E49096881F838000C49A6
:101ED000096881F839000A490968C8610849096830
:101EE000086207490968486200BF3846FEF7EAF908
:101EF00000BF00BF83E70000890000208A000020A7
:101F00009C00002070B5044600250CB9042070BD6B
:101F10002078032801D00120F9E700BF6020FEF7F8
:101F2000C3F9054600BFA07A70B10023012219460B
:101F3000204600F0EFFD00BF2846FEF7C3F900BFC2
:101F400001F05AF80020E2E720894FF6FF7188423D
:101F500009D22089401C208100BF2846FEF7B2F933
:101F600000BF0020D3E700BF2846FEF7ABF900BF53
:101F70003320CCE710B50B48007890B901F07CF81D
:101F8000094800780949087009480749097850F854
:101F90002100084908600846006807490860FEF704
:101FA0009AF910BD960000208C0000208B000020C4
:101FB0004C0E0020A40000209C00002010B5044618
:101FC0002046FEF79AFA10BD2DE9FE4F06460F4651
:101FD00090461C464FF000093F2C02D92A20BDE84C
:101FE000FE8F00BF6020FEF75FF9814600BF2548E5
:101FF000007830B100BF4846FEF764F900BF3C20CE
:10200000EDE7214850F8240098BB01201E4941F813
:10201000240000BF4846FEF755F900BF00234246A2
:102020003946304600F08EFA82460020009001903A
:102030000346024651460290204601F033F8054619
:1020400035B912480078012811D100F0D5FF0EE013
:1020500000BF6020FEF728F9814600BF00200A4932
:1020600041F8240000BF4846FEF72CF900BF28467F
:10207000B5E7FFE700BF4846FEF724F900BF282078
:10208000ADE70000890000204C0E002096000020E3
:102090002DE9F04F85B081468A4693461C46DDE91E
:1020A0000F78129D002003903F2C03D92A2005B001
:1020B000BDE8F08F00BF6020FEF7F6F8039000BF88
:1020C0002748007830B100BF0398FEF7FBF800BF47
:1020D0003C20ECE7234850F82400C0BB01202149F4
:1020E00041F8240000BF0398FEF7ECF800BF2A4631
:1020F0004146384601F044F92B465A465146484677
:1021000000F020FA04901198CDE9008002953A463B
:1021100020460E9B049900F0C5FF064636B91248CA
:102120000078012811D100F067FF0EE000BF6020A9
:10213000FEF7BAF8039000BF00200A4941F82400D6
:1021400000BF0398FEF7BEF800BF3046AFE7FFE7D9
:1021500000BF0398FEF7B6F800BF2820A7E70000ED
:10216000890000204C0E00209600002010B5044687
:102170002046FEF7C3F910BD2DE9F04105460027C2
:102180005448007810B14020BDE8F0813F2D01D1C6
:102190003E20F9E73F2D03D3FF2D01D02A20F3E79E
:1021A00000BF6020FEF780F8074600BFFF2D03D177
:1021B0004948006890F83A50484850F8254034B9EA
:1021C00000BF3846FEF77EF800BF4320DCE7012C55
:1021D00006D100BF3846FEF775F800BF3D20D3E7B3
:1021E00014F83C0F3E49085C6178884321783C4AEA
:1021F000505414F83C091146085C30B994F83E106C
:1022000038480078884337490870E06918B120469B
:10221000E16900F0C9FC206A18B12046216A00F08B
:10222000DAFCE66A16B1304600F068FD0020606313
:1022300084F8380084F839002B480078FF2804D24D
:1022400029480078401C2849087000BF3846FEF72E
:1022500039F800BF00F05CFC00BF6020FEF724F8F6
:10226000074600BF2048007820B11F480078401E74
:102270001D490870204600F043F81C480078401EB5
:102280001A4908700020154941F82500A06930B9A5
:1022900000206169886116496069086005E0D4E939
:1022A00005014861D4E90510886112480068606141
:1022B0001048046010A0606500BF3846FEF702F8C1
:1022C00000BF0E480078012801D100F095FE0020E3
:1022D0005AE70000890000209C0000204C0E0020DE
:1022E0008E0000208D0000208A0000209700002032
:1022F000A8000020A00000203F0000009600002061
:1023000010B504462046FEF7FAF810BD10B5FEF7EA
:10231000F7F810BD2DE9F04105460F4614464FF081
:1023200000083F2D05D9FF2D03D02A202070BDE8DD
:10233000F08117B90C202070F9E71948007810B126
:1023400012202070F3E700BF6020FDF7ADFF80464C
:1023500000BFFF2D03D11348006890F83A5012488F
:1023600050F825603EB900BF4046FDF7ABFF00BF07
:1023700043202070DBE7012E07D100BF4046FDF768
:10238000A1FF00BF43202070D1E7776500BF404622
:10239000FDF798FF00BF0020207000BFC7E70000D6
:1023A000890000209C0000204C0E002070B50546DE
:1023B00000263F2D01D32A2070BD00BF6020FDF70D
:1023C00073FF064600BF2A4850F8254034B900BFC5
:1023D0003046FDF777FF00BF4620EDE7012C06D120
:1023E00000BF3046FDF76EFF00BF4320E4E794F8DE
:1023F000380000F0080098B314F8380F00F0F70028
:10240000207014F8380900F0370010BB606BD8B9A1
:102410003C34A07817490978084316490870207899
:102420001549085C6178084314F83C19124A505465
:1024300000BF3046FDF746FF00BF10480078012876
:102440000CD100F0D9FD09E000BF3046FDF73AFF9E
:1024500004E000BF3046FDF735FF00BF0020ABE7CA
:10246000FFE700BF3046FDF72DFF00BF4420A3E784
:102470004C0E00208D0000208E00002096000020D1
:1024800010B504462046FEF73CF810BD10B5FEF727
:1024900039F810BD2DE9F04706460C464FF0000A0A
:1024A0003F2E04D9FF2E02D02A20BDE8F0870CB9B8
:1024B0000920FAE700202060606000BF6020FDF77F
:1024C000F3FE824600BFFF2E03D11C48006890F83F
:1024D0003A601B4850F8265035B900BF5046FDF70A
:1024E000F1FE00BF4320E0E7012D06D100BF5046BA
:1024F000FDF7E8FE00BF4320D7E7287C00F001008D
:1025000030B900BF5046FDF7DDFE00BF4520CCE7E7
:102510000027D5F80C90D5F8088000BF5046FDF78D
:10252000D1FE00BF00E07F1C58F8041B0029FAD040
:102530002760A9EB070060600020B6E79C00002040
:102540004C0E002070B50446101D20F007004FF01F
:102550008076051F28462E60051F28462C60244ED5
:10256000051F28462E604FF01236051F28462E60A4
:102570004FF00336051F28462E604FF00236051F28
:1025800028462E607610051F28462E60051F284617
:1025900029606FF00206051F28462E604FF01136A5
:1025A000051F28462E604FF01036051F28462E6066
:1025B0004FF00936051F28462E604FF00836051FDC
:1025C00028462E604FF00736051F28462E604FF034
:1025D0000636051F28462E604FF00536051F284693
:1025E0002E604FF00436051F28462E6070BD000097
:1025F0003D3200082DE9F04105464FF000083F2D1F
:1026000002D14720BDE8F0813F2D03D3FF2D01D03B
:102610002A20F7E700BF6020FDF746FE804600BF96
:10262000FF2D05D12348006890F83A50012608E0B4
:102630002048006890F83A00A84201D1012600E045
:1026400000261D4850F8254034B900BF4046FDF72C
:1026500039FE00BF4820D5E7012C06D100BF404617
:10266000FDF730FE00BF4320CCE794F83C701348E0
:10267000C05D94F83D1088431049C8550846C05DB8
:1026800030B994F83E100E48007888430C49087021
:1026900094F8380040F0080084F8380000BF404645
:1026A000FDF710FE00BF012E01D100F0A5FC0020B7
:1026B000A8E700009C0000204C0E00208E000020A7
:1026C0008D00002010B5FDF71EFF10BD70B505464A
:1026D00000261A48007800B170BD1948007800B192
:1026E000FAE745B300BF6020FDF7DEFD064600BFF8
:1026F0001448006890F83C401348005D114909688F
:1027000091F83D108843104908550846005D40B9CE
:102710000C48006890F83E100C48007888430B493C
:10272000087008480068456300BF3046FDF7CAFDE1
:1027300000BF00F061FC00BFCEE700008900002070
:102740008A0000209C0000208E0000208D000020C8
:1027500070B5002600F07CF800BF6020FDF7A4FDF6
:10276000064600BF34480068401C3349086000BF7B
:102770003046FDF7A7FD00BF30480078012858D14A
:102780002F48007820B1012804D0022809D103E0A5
:1027900001250BE0002509E00125012028490870EA
:1027A00004E0012500202649087000BF00BF05B9DC
:1027B00070BD2448046838E000BF6020FDF774FD58
:1027C000064600BF606B50B3606B401E6063606B79
:1027D00028BB94F8380000F0370040B114F8380FE7
:1027E00000F0C800207001206070383C02E000203A
:1027F00084F8390094F8380000F0080078B93C34C7
:10280000A0781149097808430F49087020780F49CA
:10281000085C6178084314F83C190C4A5054646908
:1028200000BF3046FDF74EFD00BF94F83A003F2848
:10283000C2D100BFBCE70000BC0000209600002011
:10284000AC000020A80000208D0000208E00002099
:1028500010B5FDF759FE07480088401C054908805F
:1028600008460088642803D30020088000F004F89C
:1028700010BD0000D800002010B503480068FFF725
:1028800041FB0446204610BDCC000020F8B54FF4B3
:102890002071284800F054FB3821274800F050FBF5
:1028A000002514E0681C86B205EB8500214901EB88
:1028B000C00406EB860001EBC007642020700020F6
:1028C00084F82500E7601DA02062681C85B20F2DEA
:1028D000E8D305EB8500174901EBC00464202070A4
:1028E000002084F82500E06014A020620020144934
:1028F0000860144908801020134908800D481349C6
:1029000008600120FFF742FA114908600020FFF734
:102910003DFA104908606A460FA10D480068FFF7AC
:10292000FFF86A4611A10B480068FFF7F9F800F0BC
:1029300027F8F8BD0C1800208C1C00203F00000078
:10294000C4000020C2000020C0000020D0000020F1
:10295000C8000020CC00002075432F4F532D49495B
:1029600020546D724C6F636B0000000075432F4F55
:10297000532D494920546D725369676E616C000094
:1029800000B587B00320002180220A4BCDE9013237
:10299000CDE903104FF6FD703D23074A009007482C
:1029A000FFF776FB06AA06A13D20FFF7B3FC07B0B0
:1029B00000BD00008C1A0020881C0020452A000859
:1029C00075432F4F532D494920546D72000000006C
:1029D000F0B50B46032580F82550012B05D1174E85
:1029E000C5693668354445610CE085692DB9134EDB
:1029F000C56936683544456104E0104E856936681E
:102A00003544456107264569B5FBF6F706FB1754C3
:102A10000B4D05EBC4010D682DB908600025C5609C
:102A200001258D8006E00A680860C26010618D880B
:102A30006D1C8D8000250561F0BD0000C4000020E4
:102A40008C1C002008B500BF00BF6A4600211B484F
:102A50000068FFF7CBF9FFF73DF919480068401C03
:102A600017490860084600680721B0FBF1F201FB36
:102A70001208144800EBC8073C681AE0E6681049E1
:102A800060690968884213D1204600F01DF894F867
:102A90002400022804D101212046FFF799FF02E01B
:102AA000022084F82500656815B12046A168A84772
:102AB0003446002CE2D1FFF731F9C6E7CC00002004
:102AC000C40000208C1C0020F0B507264569B5FB2A
:102AD000F6F706FB17540D4D05EBC4021568854249
:102AE00005D1C168116039B100250D6104E00169AB
:102AF000C368CB6003B11961012580F8255000251A
:102B0000C560056195886D1E9580F0BD8C1C002008
:102B1000704700002DE9F04F05460F469046994654
:102B2000A87A1D490E5C05F10B00805D11F800B01C
:102B30000BEBC60000F0FF0A184850F82A400020AE
:102B40002834E0602760207C20EA0800207484F8A4
:102B50001190207C283C00F0080068B994F83E00F1
:102B60000F49097808430E4908700E48805D94F8B3
:102B70003D1008430B4988552946204600F014F8BB
:102B8000206A30B12046216A00F025F8002020623A
:102B900065625046BDE8F08FFE6000084C0E0020D4
:102BA0008D0000208E00002010B590F83C2001F12F
:102BB0000B039B5C90F83D40A34301F10B04A3542D
:102BC00023469B5C23B98B7A90F83E40A3438B72DB
:102BD0000023C36110BDF0B5024612F83C4F957852
:102BE00056783C3A0B4618680FE000F10B073F5D42
:102BF000B74300F10B0C0CF8047067463F5D17B942
:102C0000877AAF4387721B1D18680028EDD1F0BD8D
:102C100010B51B4A1268D061194A126892F83C300C
:102C200000F10B02D25C164B1B6893F83D301A433F
:102C3000134B1B6893F83C4000F10B031A55827A42
:102C40000F4B1B6893F83E301A4382720C4A12688D
:102C500092F83C100B4A525C094B1B6893F83D30CC
:102C60009A43084B5A541A46525C42B9044A1268B5
:102C700092F83E30044A12789A43034B1A7010BD02
:102C80009C0000208E0000208D00002001460022C4
:102C90008A72002005E0002301F10B021354421C4C
:102CA000D0B20828F7D3704770B55021104800F013
:102CB00047F900240DE0601C85B20D4800EB0413B9
:102CC00000EB0516002018705E600AA0D860601C3A
:102CD00084B2042CEFD3064800EB041300201870D4
:102CE000586004A0D86002480349086070BD000025
:102CF000FC0900203F0000007800002030B50146AC
:102D00004A6808682AB9CC68606028B10025456027
:102D100002E0106000B142608B680025DD6230BDCA
:102D200070B5F021134800F00BF9002411E0601C8D
:102D300085B204EB44000F4901EBC00305EB4500ED
:102D400001EBC006002018705E600BA05861601C8B
:102D500084B2092CEBD304EB4400064901EBC00319
:102D600000201870586004A05861084603490860A4
:102D700070BD00000C0900203F000000740000201E
:102D800000200B4908600B4908700B4908700B497B
:102D900008700B4908700B4908600B4908600B4923
:102DA00008600B4908600B4908700B4908707047B0
:102DB000BC000020890000208A000020970000202D
:102DC0009600002070000020980000208400002061
:102DD0008000002088000020B800002000210A4A5E
:102DE0001170002004E00021084A1154411CC8B2AF
:102DF0000828F8D30021064A1170064A1170064AC5
:102E00001160064A116070478D0000208E0000207E
:102E10008B0000208C000020A40000209C000020DB
:102E200070B54FF4FD61194800F08AF84FF48071D5
:102E3000174800F085F8002413E0601CC5B2C4EB0D
:102E4000C40000EB0410114901EB8003C5EBC50081
:102E500000EB051001EB80065E610EA05865601C5A
:102E6000C4B2152CE9D3C4EBC40000EB041007492D
:102E700001EB80030020586106A058650020064938
:102E8000086002480549086070BD00004C0F002032
:102E90004C0E00203F000000A8000020A0000020F1
:102EA00000B587B00320002180220A4BCDE9013212
:102EB000CDE903104FF6FF703F23074A0090074803
:102EC000FFF7E6F806AA06A13F20FFF723FA07B0AE
:102ED00000BD00004C0C0020480E00200D32000800
:102EE00075432F4F532D49492049646C65000000FC
:102EF00000B587B00320002180220A4BCDE90132C2
:102F0000CDE903104FF6FE703E23074A00900748B4
:102F1000FFF7BEF806AA06A13E20FFF7FBF907B0AF
:102F200000BD00004C0A0020480C0020553200086B
:102F300075432F4F532D494920537461740000008D
:102F400004E0002200F8012B4A1E91B20029F8D1BA
:102F50007047000010B578211148FFF7F1FF0023FA
:102F60000EE003EB43000E4901EBC004581C00EBDC
:102F7000400001EBC00060600AA06061581C83B291
:102F8000042BEED303EB4300054901EBC004002002
:102F9000606004A0606108460349086010BD00003D
:102FA000341700203F000000B000002070B5602101
:102FB0000F48FFF7C5FF00230DE0581C85B203EB57
:102FC00043000B4901EBC00405EB450001EBC006D3
:102FD0002660581C83B2032BEFD303EB4300044954
:102FE00001EBC0040020206008460249086070BD63
:102FF000AC170020B400002010B5002400BF6020F2
:10300000FDF752F9044600BF14480078F8B9144897
:103010000078E0B900F030F812481349097850F808
:103020002100124908601048007811490978884247
:103030000DD00E480068006C401C0C4909680864FB
:103040000C480068401C0B490860FDF770F900BF90
:103050002046FDF737F900BF10BD000089000020B1
:103060008A0000204C0E00208C000020A4000020CC
:103070008B000020700000200649074A1278885C07
:103080000649095C034A515C01EBC001044A117016
:1030900070470000FE6000088D0000208E000020B8
:1030A0008C0000202DE9F84F05460F4690469946C2
:1030B000DDE90AAB0020009000BF6020FDF7F4F8C6
:1030C000009000BF4A480468002C7DD048496069E0
:1030D000086000BF0098FDF7F5F800BF203444F801
:1030E000207CA576002020766076606144F81CBCC8
:1030F00044F814AC44F8188C0C9824F8100C24F8FC
:103100000E9C0020E077E810207705F00700E076BD
:10311000217F01208840A077E17E012088406077F0
:10312000002044F8040C20606060E060A060206231
:10313000A0626062E06220632EA06063203C0026F3
:1031400006E0002104F1580040F82610701CC6B2B9
:10315000002EF6D02046FEF731FF00BF6020FDF7BD
:10316000A3F8009000BF244840F8254000BF009815
:10317000FDF7A8F800BF2046FEF7F8FF00BF60206B
:10318000FDF792F8009000BF1C48006860610020C5
:10319000A0611A48006810B1184800688461174897
:1031A00004603C34A0781649097808431449087033
:1031B00020781449085C6178084314F83C19114AD6
:1031C00050541148007800E00AE0401C0E49087095
:1031D00000BF0098FDF776F800BF0020BDE8F88F2B
:1031E00000BF0098FDF76EF800BF4220F6E7000030
:1031F000A00000203F0000004C0E0020A80000208E
:103200008D0000208E00002097000020002400BFC9
:1032100000BF6020FDF748F8044600BF064800687C
:10322000401C0549086000BF2046FDF74BF800BF71
:10323000FFF76CF8ECE700009800002010B5044898
:103240000068FFF71DF9FF20FEF796FF10BD000094
:103250009C000020002500BF02E0C820FFF736FADE
:10326000334800780028F8D0324800686421B0FB69
:10327000F1F0304908600846006828B900202E495E
:103280000870FF20FFF7B6F900BF6020FDF70CF8CB
:10329000054600BF27480068642148432749086065
:1032A00000BF2846FDF70EF800BF00BF0120FFF762
:1032B0000DFA00BF6020FCF7F7FF054600BF0020B5
:1032C0001E49086000BF2846FCF7FCFF00BF6420D1
:1032D000FFF7FCF900BF6020FCF7E6FF054600BFE2
:1032E000164800681649086000BF2846FCF7EAFF48
:1032F00000BF134800680F490968B0FBF1F040B205
:10330000C0F1640044B2002C02DB0B490C7009E0F0
:103310000020094908700A4800686421B0FBF1F0F8
:1033200004490860FFF7B2F800F00CF8BEE70000AF
:1033300088000020800000207C00002098000020F1
:10334000840000207CB5002514E069462846FFF77C
:10335000A1F8064666B9094850F8254044B1012C49
:1033600006D0D4E9020100EB8100E06401982065F9
:10337000681CC5B23F2DE8D97CBD00004C0E002072
:1033800002F0010343B102F002032BB102E0491E37
:10339000002308C00029FAD17047000000B589B0A9
:1033A0000121084600F01CF90121084600F028F927
:1033B000012211462C48FDF717F902208DF8200054
:1033C00007908DF8230003208DF8210007A92648D7
:1033D000FDF7C2F80020ADF81800ADF81200532038
:1033E000ADF810004FF6FF70059000208DF81A0020
:1033F00004A94FF0804000F089FD0420ADF80400DE
:103400000F20ADF80C000020ADF80600ADF80A0062
:103410000120ADF8080001A9800700F09EFB6021A3
:103420004FF0804000F02BFD0421080700F030FD34
:1034300001220421080700F0C7FB4FF4A060FEF74B
:10344000D7F81C208DF8000001208DF803008DF8BE
:1034500001008DF802006846FEF78EF8012188070A
:1034600000F06CFB09B000BD0000024000B58DB05B
:103470000121022000F0C4F80121084600F0B0F854
:103480000121022000F0ACF8022206213D48FDF7A0
:10349000ABF8022207213B48FDF7A6F802220021E3
:1034A0003948FDF7A1F8022201213748FDF79CF8C1
:1034B00002208DF8300000208DF8320001208DF8B8
:1034C0003300C0200B9002208DF831000BA92D484D
:1034D000FDF742F802208DF8280000208DF82A0020
:1034E00001208DF82B000320099002208DF829007F
:1034F00009A92548FDF730F8244800F06EFB0020AC
:10350000ADF82000ADF81A0041F287300790532043
:10351000ADF8180000208DF8220006A91B4800F025
:10352000F5FC6020ADF804000020ADF8100001208B
:10353000ADF806000020039001A9144800F054FBE8
:103540000821124800F08EFB01A9104800F094FBFE
:1035500008210E4800F0E2FB01A90C4800F0ECFB4A
:1035600008210A4800F038FC01A9084800F03EFC98
:103570000821064800F076FC0121044800F0DEFA3C
:103580000DB000BD000002400004024000040040F5
:1035900010B504462146024800F083FC10BD00002F
:1035A0000004004010B504462146024800F07BFCB0
:1035B00010BD00000004004010B50446214602483A
:1035C00000F073FC10BD00000004004010B504467C
:1035D0002146024800F06BFC10BD000000040040D2
:1035E00029B1064A12680243044B1A6004E0034AF8
:1035F00012688243014B1A60704700003038024065
:1036000029B1064A12680243044B1A6004E0034AD7
:1036100012688243014B1A60704700004038024034
:1036200029B1064A12680243044B1A6004E0034AB7
:1036300012688243014B1A60704700004438024010
:10364000F0B5002100220024022500260223324F7B
:103650003F6807F00C0121B1042905D0082937D1B2
:1036600005E02E4F076036E02D4F076033E02A4F0C
:103670003F1F3F68C7F38056274F3F1F3F6807F043
:103680003F036EB1264FB7FBF3F7DFF88CC0ACF108
:10369000040CDCF800C0CCF3881C07FB0CF40CE035
:1036A0001E4FB7FBF3F7DFF870C0ACF1040CDCF889
:1036B00000C0CCF3881C07FB0CF4174F3F1F3F687A
:1036C000C7F301477F1C7D00B4FBF5F7076002E0FC
:1036D000124F076000BF00BF0F4F3F6807F0F001B7
:1036E0000909104F7A5C0768D74047600A4F3F6866
:1036F00007F4E051890A0B4F7A5C4768D74087602E
:10370000054F3F6807F46041490B064F7A5C4768F4
:10371000D740C760F0BD0000083802400024F40024
:1037200040787D0100000020704710B5024601205E
:1037300000E050430B1EA1F10101FAD110BD0000C1
:1037400010B504462146054800F045FE00BF802123
:10375000024800F074FD0028F9D010BD00100140AF
:103760002DE9F0412DED028BB0EE408A0646B5EE14
:10377000C08AF1EE10FA06D22D20FFF7E1FFB1EE7C
:10378000480AB0EE408ABDEEC80A10EE104A314633
:103790000A20FFF7CAFF00EE100AF8EE400A00EE1A
:1037A000104AB8EEC00A38EE400A20EE800ABCEE9D
:1037B000C00A10EE105A1CB93020FFF7C1FF0FE00D
:1037C0000027A04604E0781CC7B20A2098FBF0F856
:1037D000B8F1000FF7DC3946204600F00CF800BFC6
:1037E0002E20FFF7ADFF3146284600F004F8BDEC6F
:1037F000028BBDE8F0812DE9F04106460C4600251C
:1038000012E0601B411E0A20FFF78FFFB6FBF0F0AD
:103810000A21B0FBF1F201FB120000F1300738463B
:10382000FFF78EFF681CC5B2A542EADBBDE8F08158
:1038300070B50446002504E0605DFFF781FF681C59
:10384000C5B2605D0028F7D170BD000000B587B03B
:1038500001211020FFF7E4FE01210846FFF7C0FE1A
:10386000072209212A48FCF7BFFE07220A2128481F
:10387000FCF7BAFE02208DF8180000208DF81A001F
:103880004FF4C060059001208DF81B0002208DF8D8
:10389000190005A91E48FCF75FFE072209211C48F4
:1038A000FCF7A2FE07220A211948FCF79DFE4FF4FF
:1038B000FA3001900020ADF810000C20ADF80E0099
:1038C0000020ADF80C00ADF80A00ADF8080001A921
:1038D000104800F011FD012240F225510D4800F082
:1038E000E5FC4FF4A060FDF783FE25208DF8000075
:1038F00001208DF803008DF801008DF80200684664
:10390000FDF73AFE0121034800F08DFC07B000BD31
:10391000000002400010014010B500BF6020FCF71D
:10392000C3FC044600BFFEF775F900BF2046FCF754
:10393000C9FC00BFFEF70CFFFEF77EF910BDF0B525
:103940000C46154600210022068C4FF6FE773E40BD
:103950000684018B028C4FF60C7631407E1C06EA01
:1039600003162E4331434FF6F576324044F00106FC
:10397000324301830284F0BDF0B50C4615460021A8
:1039800000220026078C4FF6EF7C07EA0C0707841D
:10399000018B028C4FF6FF7707EA041640F6FF47CB
:1039A00039404FF6FF7707EA033739434FF6FF7781
:1039B00007EA052739434FF65F773A4046F010078C
:1039C0003A4301830284F0BDF0B50C461546002150
:1039D00000220026078C4FF6FF6C07EA0C070784CD
:1039E000818B028C4FF6FF7707EA04264FF60C779F
:1039F00039404FF6FF7707EA03172F4339434FF259
:103A0000FF573A4046F480773A4381830284F0BD01
:103A1000F0B50C461546002100220026078C4EF614
:103A2000FF7C07EA0C070784818B028C4FF6FF7737
:103A300007EA043640F6FF4739404FF6FF7707EABA
:103A4000052739434FF6FF7707EA0337394345F631
:103A5000FF773A4046F480573A4381830284F0BDB1
:103A600010B54FF08040008A00F00400002854D0C8
:103A70004FF0804000F06EF8284908600846006862
:103A800040F69801884202DC01202549086024485C
:103A90000068012839D1214800682249224A126869
:103AA00041F8220020480068401C1F490860084671
:103AB0000068072829DD0020194908601A490860B4
:103AC0001848008919491A4A127821F81200184832
:103AD0000078401C052190FBF1F201FB1200144913
:103AE000087014480078052805DA12480078401C50
:103AF0001049087009E010480078401C052190FB2F
:103B0000F1F201FB12000C4908704FF08040008A6E
:103B100020F004004FF08041088210BD1400002006
:103B200018000020E00000201C0000200001002000
:103B3000280000202A0000202900002021B102884E
:103B400042F00102028004E002884FF6FE731A4040
:103B5000028070470146886B704770B505460C4679
:103B6000208850B92389A28861882846FFF7E7FE9C
:103B7000E188284600F09DF925E0208804280AD134
:103B80002389A28861882846FFF7F6FEE188284647
:103B900000F098F917E0208808280AD12389A28824
:103BA00061882846FFF710FFE188284600F097F962
:103BB00009E02389A28861882846FFF729FFE18868
:103BC000284600F095F970BD1AB183890B438381B3
:103BD00002E083898B438381704701894FF6F87235
:103BE000114001817047000070B5002400220023BD
:103BF000058C4FF6FE7635400584028C8388048B55
:103C00004FF68F752C40B51E2C400D882C43751E29
:103C10002A408D892A434D882A43104DA84202D05C
:103C20000F4DA84213D14FF6F7752A40CD892A438C
:103C30004FF6FB752A408D882A434FF6FF652B40CF
:103C40004FF6FF552B400D8A2B434D8A2B43838023
:103C500004838D684563028470BD0000000001404C
:103C6000000401400A460021018B4FF6F77319400A
:103C7000114301837047000070B500240022002327
:103C8000058C4FF6EF7635400584028C8388048BD3
:103C900048F6FF752C404FF6FF452C400D884FF637
:103CA000FF7606EA05252C434FF6DF752A408D89FD
:103CB00006EA05152A434D8806EA05152A43154DDF
:103CC000A84202D0144DA8421DD14FF67F752A405C
:103CD000CD894FF6FF7606EA05152A434FF6BF75E4
:103CE0002A408D8806EA05152A434FF6FF352B40FA
:103CF0004FF2FF752B400D8A06EA85052B434D8A4E
:103D000006EA85052B43838004838D6885630284DE
:103D100070BD000000000140000401400A4600217F
:103D2000018B4FF2FF7319404FF6FF7303EA022332
:103D3000194301837047000070B50024002200235E
:103D4000058C4FF6FF6635400584028C8388848B92
:103D50004FF68F752C404FF6FC752C400D882C4388
:103D60004FF6FF552A408D894FF6FF7606EA052566
:103D70002A434D8806EA05252A43154DA84202D05C
:103D8000144DA8421DD14FF2FF752A40CD894FF640
:103D9000FF7606EA05252A434FF6FF352A408D882F
:103DA00006EA05252A434EF6FF752B404DF6FF75B2
:103DB0002B400D8A06EA05152B434D8A06EA0515A8
:103DC0002B43838084838D68C563028470BD0000AB
:103DD00000000140000401400A460021818B4FF69B
:103DE000F7731940114381837047000070B50022BA
:103DF00000230024058C4EF6FF7635400584038CA5
:103E00008488828B48F6FF752A404FF6FF452A408A
:103E10000D884FF6FF7606EA05252A434DF6FF7515
:103E20002B408D8906EA05352B434D8806EA05357A
:103E30002B430A4DA84202D0094DA84208D14BF6A7
:103E4000FF752C400D8A4FF6FF7606EA85152C4348
:103E5000848082838D680564038470BD0000014006
:103E6000000401400A460021818B4FF2FF73194084
:103E70004FF6FF7303EA02231943818370470A4612
:103E8000002101894FF68F7319401143018170475A
:103E900002894FF6F8731A40028102890A430281AF
:103EA00070474163704781637047C1637047016425
:103EB0007047028B4FF6F3731A400283028B0A435A
:103EC00002837047028B4FF2FF331A400283028B4A
:103ED0004FF6FF7303EA01231A4302837047828B74
:103EE0004FF6F3731A408283828B0A4382837047B2
:103EF000828B4FF2FF331A408283828B4FF6FF731F
:103F000003EA01231A4382837047000000220288DB
:103F1000184B98420ED0184B98420BD0B0F1804FFE
:103F200008D0164B984205D0154B984202D0154B3D
:103F3000984204D14FF68F731A404B881A43124BA4
:103F4000984207D0114B984204D04FF6FF431A40D5
:103F50000B891A4302804B68C3620B880385054BAB
:103F6000984202D0044B984201D18B7A03860123F8
:103F700083827047000001400004014000040040BB
:103F800000080040000C00400010004000140040F9
:103F900006E001210620FFF72EFC6420FEF796FBC9
:103FA000F7E7000086B05CE001210720FFF723FC63
:103FB0002C482D492D4B2E4ACDE900102D492E4875
:103FC000FDF71CF92D4A2E492E48FDF735FA03AAB4
:103FD00005A904A8FCF77AFC2BA201210220FDF719
:103FE000BDFC2BA201210320FDF7B8FC2AA2012170
:103FF0000420FDF7B3FC022305229DED050A0821EC
:104000001846FDF73DFC022305229DED040A082118
:104010000320FDF735FC022305229DED030A08214C
:104020000420FDF72DFC1EA0FFF702FC01209DEDF2
:10403000040AFFF795FB1DA0FFF7FAFB01209DED99
:10404000050AFFF78DFB1CA0FFF7F2FB01209DED99
:10405000030AFFF785FB1AA0FFF7EAFB6420FEF7CF
:1040600035FBA1E73600002034000020320000209C
:10407000300000202E0000202C00002040000020F6
:104080003C0000203800002050697463683D000047
:10409000526F6C6C3D0000005961773D00000000DC
:1040A0007B22726F6C6C223A000000002C22706937
:1040B000746368223A0000002C22796177223A006A
:1040C0007D0A000010B5044608200C49087005233D
:1040D0000B4A00210B48FDF777FF07230A4A00210E
:1040E0000A48FDF771FF0623094A00210948FDF738
:1040F0006BFF0420FEF77EFA10BD000010000020C8
:10410000080300201941000808050020A53F000809
:1041100008070020913F00083FE0002500BF602015
:10412000FCF7C2F8044600BF1C480078002813DDE5
:104130001B49097809B9042102E019490978491E87
:10414000C8B2184931F8105015490978164A11704B
:104150000021124A117000BF00BF2046FCF7B2F8E0
:1041600000BF0E480078002803DC104800680128D2
:104170000FD12846FFF70CFA2846FFF713FA284616
:10418000FFF71AFA2846FFF721FA01210520FFF769
:1041900032FB6420FEF79AFA00BFBEE72A00002037
:1041A0002800002000010020290000201800002025
:1041B00010B5FDF72FFD40F225510F4800F04CF8E7
:1041C000B0B10D4800F002F90C4908700C480078B5
:1041D000062802D1FEF70EFA02E00620FEF7E6F806
:1041E00001200849087040F22551034800F00CF8FE
:1041F000FDF722FD10BD000000100140100000205E
:104200008B0000201100002010B50022002340F692
:104210006A14A14200D100BF0A1201249440A3B243
:10422000DC43048010BD21B1828942F400528281B6
:1042300004E082894DF6FF731A408281704702467E
:104240000020B1F5007F00D100BF13880B400BB1F7
:10425000012000E00020704770B5024600240023D2
:104260000025002040F66A16B14200D100BFC1F31C
:10427000421501F01F03012606FA03F3012D02D1B6
:104280009689334006E0022D02D1168A334001E0C0
:10429000968A33400C12012606FA04F4168834403C
:1042A00013B10CB1012000E0002070BDF0B5034651
:1042B000002400260025002040F66A17B94200D1EC
:1042C00000BF1846C1F3421401F01F06012707FA88
:1042D00006F5012C01D10C3004E0022C01D1103084
:1042E00000E014301AB107682F43076002E0076846
:1042F000AF430760F0BD00002DE9FF4705460E46BD
:104300000024A14600BFA046B08900B100BF2C8A9E
:1043100024F44054F08804432C82AC8941F20C60B0
:104320008443B08831890843718908430443AC81D0
:10433000AC8A24F44074B0890443AC826846FFF729
:104340007FF92048854202D01F48854202D1DDF81E
:104350000C9001E0DDF80890A88900F4004040B11D
:1043600009EBC90000EB091031684900B0FBF1F717
:1043700007E009EBC90000EB091031688900B0FBC8
:10438000F1F76420B7FBF0F004012009642101FB80
:104390001078A88900F4004040B1322000EBC8003A
:1043A000B0FBF1F000F00700044308E0322000EB1E
:1043B00008106421B0FBF1F000F00F0004432C81E1
:1043C000BDE8FF87001001400014014001468888C5
:1043D000C0F308007047C1F308028280704700BF35
:1043E000FEE703B401984100009850EAC12018BFCD
:1043F00004204A0D18BF40F0010040F2FF72B2EBFA
:10440000515F08BF40F00200012808BF052002B03C
:10441000704700000000000070B5C1482DED020B90
:104420002DED0E8B82B0119D25F000449FEDBEDB7B
:104430009FEDBFEB84423EDBA4F140511098A1F107
:104440007F6108430FD0BC48844202DC28D1109819
:1044500030B39DED100B02B0BDEC0E8B02B0BDE889
:10446000704000F0A6BC9DED100B53EC1D2B51ECE1
:10447000100B00F0D5FF9DED100B41EC180B53EC29
:104480001E2B51EC100B00F0CBFF53EC182B00F05F
:10449000C7FD41EC100B02B0BDEC0E8B02B070BD3D
:1044A0000120FBF7E7FF02B0BDEC0E8B02B0BDE8C8
:1044B000704000F095BCA1489FEDA18B844256DA74
:1044C0009DED100BB4F1795F0ADA51EC100BFFF798
:1044D00088FF042808BF00F093FC9DED100BDAE77D
:1044E00053EC102B51EC100B00F09AFF41EC190B20
:1044F00095480621B0EE490AF0EE690A784400F0CA
:10450000DCFB53EC192B51EC100B00F089FF41EC54
:104510001A0B8E48B0EE490AF0EE690A042178447D
:1045200000F0CBFB53EC192B51EC100B00F078FF93
:1045300053EC182B00F074FD41EC100B51EC1A0BEE
:1045400053EC102B00F014FECDE900019DED000BA3
:1045500053EC102B9DED100B51EC100B00F060FF95
:104560009DED101B53EC112B00F05AFDD2E09DED98
:10457000100B51EC100B00F05BFC53EC182B01F00E
:104580004DF89FED730BCDE9000153EC102B9DED21
:10459000000B51EC100B00F043FF41EC190B6E487F
:1045A0000621B0EE490AF0EE690A784400F085FB76
:1045B00053EC192B51EC100B00F032FF41EC1B0BAC
:1045C0006648B0EE490AF0EE690A0421784400F02A
:1045D00074FB53EC192B51EC100B00F021FF53EC42
:1045E000182B00F01DFD41EC1C0B51EC190B00F0D9
:1045F000A1FC41EC180B5A489FED5BABA04222DCBA
:1046000053EC1C2B51EC1B0B00F0B2FDCDE900016B
:104610009DED000B51EC180B53EC102B00F000FF3C
:1046200053EC182B00F0FCFC53EC1A2B00F0F8FEB6
:1046300053EC1D2B01F0CAF853EC1E2B00F0EEFFDB
:1046400041EC100B5FE08DED008B002000909DEDA4
:10465000000B51EC180B53EC102B00F0E1FC9DED1E
:10466000000B41EC1E0B53EC102B51EC100B00F027
:10467000D7FE53EC192B00F0D1FF53EC1E2B00F0AA
:1046800077FD41EC190B53EC1C2B51EC1B0B00F08C
:104690006FFD41EC1B0B53EC1A2B51EC190B00F086
:1046A000BFFE53EC1D2B00F0B9FF41EC190B53EC8E
:1046B0001A2B51EC180B00F0B3FE53EC1B2B00F03F
:1046C000AFFE53EC192B01F081F89DED000B41EC8E
:1046D000180B53EC1A2B51EC100B00F0A1FE9FEDC0
:1046E000249B53EC192B00F099FF41EC100B51EC7B
:1046F000180B53EC102B01F069F853EC192B00F058
:104700008DFF41EC100B002D3FF7C5AE51EC100BA7
:1047100000F047FC41EC100BBDE60000000000007B
:104720000000F03F00000000075C143326A6913C17
:10473000182D4454FB21F93F0000F07F0000E03FBA
:10474000000000000000F03F001D00000E1D0000F2
:10475000000000000000E03F521C0000601C000050
:104760003333EF3F00000000000000000000004075
:10477000182D4454FB21E93F70B59B482DED020BE9
:104780002DED068B079D25F00044A04218DC9748CC
:10479000844202DC0AD1069840B19DED060BBDECC7
:1047A000068B02B0BDE8704000F003BB002DCCBF0B
:1047B0009FED8F0B9FED900BBDEC068B02B070BD93
:1047C0008F48A04215DD8F48A042D8BF4FF0FF347C
:1047D00058DD9DED060B51EC100BFFF702FE04288F
:1047E00008BF00F00DFB9DED060BBDEC068B02B083
:1047F00070BD9DED060B51EC100B00F019FBCDE9DF
:10480000060181489FED828BA0423CDD8248A04298
:104810001FDD00249FED82AB9DED060B53EC1A2BA0
:1048200051EC100B00F0FCFB9DED060B41EC190B5D
:1048300053EC1A2B51EC100B00F0F2FD53EC182B3B
:1048400000F0C4FF53EC192B00F092FCCDE90601F7
:1048500049E09DED060B012453EC182B51EC100B95
:1048600000F0DEFB9DED060B41EC190B53EC182B11
:1048700051EC100B00F0AAFF53EC192B00F078FC60
:10488000CDE906012FE06848A0421FDD02249FED1C
:10489000689B9DED060B53EC192B51EC100B00F0AF
:1048A000BFFD53EC182B00F0BBFB9DED060B41EC5C
:1048B000180B53EC192B51EC100B00F087FF53EC45
:1048C000182B00F055FCCDE906010CE09DED060B20
:1048D000032453EC102B9FED580B51EC100B00F000
:1048E00047FCCDE906019DED060B53EC102B51EC76
:1048F000100B00F095FD41EC180B53EC182B00F059
:104900008FFD41EC190B4E480621B0EE490AF0EE3E
:10491000690A784400F0D1F953EC182B51EC100BD4
:1049200000F07EFD41EC180B4648B0EE490AF0EE6F
:10493000690A0521784400F0C0F953EC192B51ECB9
:10494000100B00F06DFD41EC100B51EC180B53EC0B
:10495000102B002C0EDA00F063FB9DED061B53ECD0
:10496000112B00F05DFD9DED061B53EC112B00F0AB
:1049700055FE35E000F054FB9DED061B53EC112B6A
:1049800000F04EFD41EC100B2F48784400EBC400C2
:1049900090ED001B51EC100B53EC112B00F016FFA7
:1049A0009DED061B53EC112B00F010FF41EC100B9A
:1049B0002648784400EBC40090ED001B51EC100B2E
:1049C00053EC112B00F02AFE41EC100B002DA2BF7E
:1049D000BDEC068B02B070BD51EC100B00F0E1FA9B
:1049E00041EC100B01E70000000010440000F07FD4
:1049F000182D4454FB21F93F182D4454FB21F9BFD5
:104A00000000DC3F0000203E0000F33F00000000FB
:104A1000000000000000F03F0000E63F0000000042
:104A20000000000000000040008003400000000083
:104A3000000000000000F83F000000000000F0BF90
:104A4000A219000058190000E21800009A1800008E
:104A500070B56B4E2DED040B2DED028B82B0DDF8A1
:104A60001CC0DDE905235C422CF000411C4341EAF7
:104A7000D474049D22F00040B44205D86C422C430B
:104A800040EAD474B4420BD99DED061B9DED040B96
:104A900002B0BDEC028B04B0BDE8704000F093B9E9
:104AA000ACF14054A4F17F641C430BD0022404EA0F
:104AB000AC7444EAD27405439FED538B9FED542BA5
:104AC00007D015E09DED040B51EC100B00F0A8F998
:104AD00042E0002C11BF012C9DED040B02B0BDEC97
:104AE000028B04BF04B070BD022C38D0032C3BD025
:104AF0000B439FED491B9FED4A0B0AD0B14218D1E1
:104B0000B04209D121F0804120F08040079105900A
:104B10000FE0002A15DA10E0434B7B44002C08BF5D
:104B200093ED000B0DD0012C10D0022C17D0032CCC
:104B30001AD0B0421DD1002A03DAB0EE410AF0EEDD
:104B4000610A02B0BDEC028B04B070BD93ED000BA6
:104B500051EC100B00F025FA41EC100BF1E7B0EE30
:104B6000480AF0EE680AECE7B0EE420AF0EE620A9C
:104B7000E7E7401A00153C28C8BF8DED000B19DC93
:104B8000BCF1000FBEBF10F13C0F9FED290B8DED66
:104B9000000B0FDB9DED060B53EC102B9DED040B72
:104BA00051EC100B00F0E4FA00F042F900F038F993
:104BB000CDE90001002C08BF9DED000BC1D0012CF8
:104BC00010D0022C9FED1C0B53EC102B9DED000B15
:104BD00051EC100B0DD000F0F9FD53EC182B00F048
:104BE000F5FDB9E7019880F0004001909DED000BC4
:104BF000A7E700F0EBFD53EC182B00F00FFDABE73F
:104C00000000F07F00000000182D4454FB210940F3
:104C1000182D4454FB2109C0182D4454FB21F9BF21
:104C2000182D4454FB21F93FCA1700000000000072
:104C30000000000000000000075C143326A6A13C21
:104C400000B52DED048BB0EE409AF0EE609A83B083
:104C500051EC190B00F0EEFC41EC180B18EE100AA9
:104C600018EE901A8DED008B002818BF0120084324
:104C700020F00040C0F17F6000F1E040C00F14D090
:104C800019EE101A19EE900A8DED009B002918BF3D
:104C90000121084320F00040C0F17F6000F1E040B6
:104CA000C00F04BF0120FBF7E5FBB0EE480A03B0DC
:104CB000F0EE680ABDEC048B00BD70B504462DED26
:104CC000028B4D1E00EBC500B0EE408AF0EE608A0C
:104CD00090ED000B35F0060017D053EC182B51EC7B
:104CE000100B00F09DFB41EC100B6D1E04EBC5009A
:104CF00090ED001B51EC100B53EC112B00F090F9D0
:104D000041EC100B35F00600E7D1022D36D0042D12
:104D10001CD0062D1CBFBDEC028B70BD53EC182BB4
:104D200051EC100B00F07CFB94ED0A1B53EC112BA3
:104D300000F076F953EC182B00F072FB94ED081B91
:104D400053EC112B00F06CF941EC100B53EC182BC9
:104D500051EC100B00F064FB94ED061B53EC112B8F
:104D600000F05EF953EC182B00F05AFB94ED040BA5
:104D700053EC102B00F054F941EC100B53EC182BB2
:104D800051EC100B00F04CFB94ED021B53EC112B7B
:104D900000F046F953EC182B00F042FB94ED001B99
:104DA00053EC112B00F03CF9BDEC028B41EC100BE5
:104DB00070BD10B553EC102B51EC100B00F030F916
:104DC00041EC100B10BD10B553EC112B51EC100B36
:104DD00000F026F941EC100B10BD000000000000AF
:104DE0009FED050B10B553EC102B51EC100B00F0A0
:104DF000BFF941EC100B10BD0000000000000000E6
:104E00009FED050B10B553EC102B51EC100B00F07F
:104E100007FB41EC100B10BD00000000000000106B
:104E200010B541EC100BFFF7A7FC51EC100B10BDB7
:104E300082B0CDE9000121F0004001909DED000B12
:104E400002B051EC100B704710B5FCF76DFCFEF78B
:104E5000FDFCFCF749FBFCF727FAFBF763FBFBF7CC
:104E6000EBFBFEF703FBFEF799FA10BDF0EE400AEC
:104E7000F6EE001A60EEA11AB0EE611AB0EE600A0A
:104E800010EE100A0749A1EB600000EE100A21EEB7
:104E9000002AF7EE081A42EE401A61EE801AB0EED0
:104EA000610A7047865A375F10B5FFF7CDFFFCF7F0
:104EB00071FE0423044A00210448FDF785F8FDF73C
:104EC00059F8002010BD000008090020C540000866
:104ED00030B504460D4694ED000AF0EE404A95EDDB
:104EE000000AB0EE404A92ED000AB0EE403A93ED6F
:104EF000000AF0EE403A64EEA40A44EE040A43EEDF
:104F0000030A43EEA30AB0EE600AFFF7AFFFF0EE2C
:104F1000402A24EEA20A84ED000A24EE220A85ED3E
:104F2000000A23EE220A82ED000A23EEA20A83ED94
:104F3000000A30BD00B52DED048B83B041EC190B98
:104F400000F078FB41EC180B18EE100A18EE901ADE
:104F50008DED008B002818BF0120084320F0004091
:104F6000C0F17F6000F1E040C00F14D019EE101ABC
:104F700019EE900A8DED009B002918BF012108430E
:104F800020F00040C0F17F6000F1E040C00F04BF9E
:104F90000120FBF76FFA51EC180B03B0BDEC048B4A
:104FA00000BD81F00041704780F00040704721F063
:104FB0000041704720F000407047000021F000429F
:104FC000A2F16052B2F5801F01F0004328BFD2F178
:104FD0007F6C0BD95FEA001C43EAC20242EB5070BF
:104FE00018BF704728BF20F001007047B2F5801F3E
:104FF000BCBF184670474FEA410C1CF5001F02D297
:10500000084600F043BD70B500F0B4FA0000008916
:10501000FFF7F6BF4FF00040A0F58000704700009A
:1050200010B591EA030F48BF83F0004300F1D68327
:10503000841A71EB030C05D2121943EB0C03001B0D
:1050400061EB0C01DFF824E14FEA1154A4EB135C8F
:105050001EEA430F18BF9EEA445F73D023EA0E0393
:10506000DCF1200E21EA045143F4801332D322FAFA
:105070000CFE10EB0E0023FA0CFE41EB0E01CCF1FE
:10508000200E03FA0EFE10EB0E0051F10001B1F5F7
:10509000801FCCF1200E32D201EB045112FA0EF235
:1050A000BDE8104058BF7047401C38BF5FEA42025D
:1050B00018BF7047002814BF20F0010041F1000123
:1050C0004FEA410313F5001F38BF7047A1F1C041FB
:1050D00000F09EBA012A43EB0302ACF1200CDCF194
:1050E0001F0E32BF4FF0000E23FA0CF310EB03003B
:1050F00041EB0451B4EB115FD0D0A1EB045101F5A9
:10510000801149085FEA300001EB04510ED350F1E1
:10511000000038BF12FA0EFE08D1BDE81040C9E702
:10512000401C38BF5FEA4202CAD1C3E7BDE8104065
:105130004FEA410313F5001F38BF7047A1F1C0418A
:1051400000F066BA9EEA445F08D011EA5E0FBDE83F
:10515000104004BF01F0004100207047BDE810403E
:1051600070B500F007FA00BF64FBBE3E0000E0FF30
:105170002DE9C04130B4DFF8A0C23CEA111418BFD9
:105180003CEA131400F0EC8081EA03051CEA1114D8
:1051900044EAD57418BF1CEA131500F0C780A4EBCD
:1051A00005044FF0004545EAC12145EAC32341EA21
:1051B000505143EA525304F17F74994204F500348C
:1051C0004FEAC0204FEAC22208BF904200F09C8004
:1051D0004FEA13650FF24016765D4FEA134506FB62
:1051E00005F7C7F1807706FB07F74FEAD737A7FB2C
:1051F00003687642C8F58038A7FB06CE38BFA8F111
:10520000010807FB08E64FF0000EA6FB028CE6FB48
:1052100003CEDCF1000CCEF1004E38BFAEF1010E32
:10522000A6FB0C584FF000074FF00005E6FB0E8779
:10523000A1FB08C6A0FB07CE16EB0E0645F1000544
:10524000E1FB076515F1E04E7EBFA4F580345FEA0F
:1052500046066D4116F1800745F100054FEA172714
:105260004FEA066647EA0567A6F1DE46B6F1805FBB
:105270004FEA15251FD9384624F0010C05EBC471FF
:10528000BCF1FE6F01EB0C1102D8F0BCBDE800814F
:1052900024425CBF01F5801E9EEAC47F02D4F0BCAC
:1052A000BDE80081244238D4F0BCA1F1C041BDE882
:1052B000004100F0ADB94FEAD22242EA43524FEA30
:1052C000D323A7FB02864FEAD02040EA415007FBD8
:1052D00003661EEA0E0F4FEAD12105FB026658BF96
:1052E000A6EB0056B6EB00564FEA520E4EEAC37ECE
:1052F00018EB0E0E56EB530EBDD518EB02085E41AF
:105300007F1C55F10005B6E74FF480154FF00007FC
:105310004FF000064FF00008ADE7F0BC4FF0000082
:1053200001F1C04101F00041BDE8008111EA0C1F0C
:105330000CEA131500D00CE013EA0C1F00F02580D6
:105340004FF00000F0BC81EA030101F00041BDE82C
:105350000081F0BCBDE8004181EA030100F058B9CA
:10536000F0BCBDE8004170B500F004F9097EFC3ED8
:1053700000F007B881EA03014FF0000001F000419E
:10538000704781EA030100F043B9F0BCBDE8004179
:105390004FF0000021497047FFFDFBF9F7F5F4F2EB
:1053A000F0EEEDEBE9E8E6E4E3E1E0DEDDDBDAD8C0
:1053B000D7D5D4D3D1D0CFCDCCCBCAC8C7C6C5C41E
:1053C000C2C1C0BFBEBDBCBBBAB9B8B7B6B5B4B335
:1053D000B2B1B0AFAEADACABAAA9A8A8A7A6A5A420
:1053E000A3A3A2A1A09F9F9E9D9C9C9B9A999998E4
:1053F0009797969595949393929191908F8F8E8E87
:105400008D8C8C8B8B8A8989888887878685858413
:1054100084838382828181800000FF070000F87FFF
:10542000DFF848C170B51CEA111E1EBF1CEA131537
:105430009EEA0C0F95EA0C0F00F06F8081EA0304DE
:1054400023EA4C134EEAD47E21EA4C1141F4801138
:1054500043F48013AE44A1FB024CA0FB0365AEF104
:105460007F7E361955EB0C05A1FB034C4CF1000374
:10547000A0FB021C16EB0C06654153F10003094228
:1054800018BF46F0010613F4007F0BD14FEA033139
:105490004FEA0530340341EA155140EA16506FF0E7
:1054A00003020AE04FEAC3214FEAC520F40241EAB1
:1054B000555140EA56506FF0020202EB2E4201EBCA
:1054C000025585EACE710AD05FEA440C18BF24F079
:1054D000004450F1000041F1000120EAD47040F294
:1054E000FE7C624500D270BDA84214BF4FF08044DC
:1054F0004FF04044002E08BF0024BEF1806FA8BFCB
:10550000A1F1C041BDE8704080F282804FF0000000
:1055100001F1C04101F0004170479EEA0C0F0CEA16
:10552000131518BF95EA0C0F06D04FF0000081EA62
:10553000030E0EF0004170BD00F01CF88900013E22
:1055400000F007B800F009B84FEA430C5FEA5C5C72
:1055500008D081EA030100F05BB84FEA410C5FEA32
:105560005C5CF6D14FF00000014970470000FF0776
:105570000000F87F0EF1020E2EF0030E5EF8046BB1
:10558000364205D4012A43EB030515F5001F12D856
:10559000012841EB010C1CF5001F0CD80ED14FEA7D
:1055A000D17C15F5001F0CEB4C0C0CF1020C08BF64
:1055B0004CEBD37C04E04FF0080C01E04FEAD37CC5
:1055C0000CEB4C0526FA05F606F00706B6F1040CBE
:1055D00006D20EEB860CBDE870404CF0010C604723
:1055E000DFE80CF0090B02024FF000414FF0000021
:1055F000A1F5002170BD19461046012851EB0104A8
:1056000018BFD4F5001484BF002001F0004170BD24
:105610000808A0F500114FEA3101704791EA030F25
:1056200010B581F000413FF503AD83F0004300F079
:10563000D5B800002DE9F04101F5801CBCF5001F34
:10564000C0F2A9804FEA115C21EA0C510CF1FD0C6B
:1056500041F480115FEA5C0C0CF5C07C01D3400082
:10566000494130A4890241EA905187028E0E0A0C0A
:10567000A45D04FB04F602FB06F6C6F14046A4FB5B
:105680000662F60D46EA422606FB06F4A4FB012359
:105690005242C3F1404338BF5B1EA6FB02420024C6
:1056A000E6FB0324D20B42EA4446A6FB0623A1FBF9
:1056B00002E2A3FB07E4E3FB61426442C2F1404E15
:1056C00038BFAEF1010EA6FB04234FF00002E6FB4B
:1056D0000E32A2FB03463400E2FB6264A1FB06E645
:1056E000A4FB07E8E4FB61687642C8F1405838BF84
:1056F000A8F10108A2FB06E4A3FB08E5E2FB68545D
:10570000A1FB05E6A7FB04E8E1FB648618F1200590
:1057100056F10006A809A8F11B08B10908F03F08D6
:10572000B8F10A0F40EA86601CD901EB0C51BDE8C4
:10573000F08100BFFCF5EEE8E2DDD8D3CFCBC7C3E4
:10574000C0BDB9B6B4B1AEACA9A7A5A3A19F9D9B9E
:105750009A9896959392908F8D8C8B898887868561
:1057600084838281A0FB006800FB01F208EB420801
:10577000B8EB872807D5341858EB0104D5D5401C61
:1057800051F10001D1E7341A78EB0104CDD4401E69
:1057900071F10001C9E75FEA4C0C5FEA9C5C0DD136
:1057A00005D34FF0000001F00041BDE8F081BDE8F5
:1057B000F04170B5FFF7DEFE6DDBFFBEBDE8F041E6
:1057C0004FF00000004970470000F87F10B591EAE3
:1057D000030F48BF83F000433FF52AAC841A71EBF6
:1057E000030C07D212198CF0004C43EB0C03001B86
:1057F00061EB0C01DFF8A4E14FEA1154A4EB135C58
:105800001EEA430F18BF9EEA445F00F0B08023EA0F
:105810006E03524221EA0451C3EB6E0338BF5B1E94
:10582000DCF1200E25D322FA0CFE10EB0E0043FA19
:105830000CFE41EB0E01CCF1200E03FA0EFE10EB34
:105840000E0051F10001CCF1200E29D412FA0EF213
:1058500001EB0451BDE8104058BF7047401C1CBF0D
:10586000B2F1004F704700280CBF491C20F0010026
:10587000704712EB020E43EB030218BF4FF0010E0C
:105880004EEA4202ACF1200CDCF11E0E54D943FA70
:105890000CFE10EB0E0051F1FF31CCF11E0ED5D5F0
:1058A0000EF1010E12FA0EFE404141EB010101EB37
:1058B000445C5FEA5C5C10D910EBDE7001EB0451D4
:1058C00038BFBEF1004FBDE8104018BF7047002838
:1058D0000CBF491C20F00100704730D24FEAD42C95
:1058E00011F5001124F400641BD0B1FA81F20B3AD7
:1058F000A41AA41ED2F12003914030FA03F31943F5
:10590000904001EBCC71002C01EB0451BDE810403C
:10591000A8BF704701F1C0414FF0000001F0004105
:105920007047B0FA80F310FA03F100D110BDE41A09
:10593000173C4805C90AE4E701EB045110BD4910C2
:1059400001EB0451BDE810404FEA300002E04FF097
:10595000000170474A0008BF0042F8D0B2F5001FAE
:1059600028BF704701F000414FF0000070479EEAE9
:10597000445F07D011EA5E0FBDE8104004BF00216C
:1059800000207047BDE8104070B5FFF7F3FD00BF81
:1059900040DFF63E83F00041104670470000E0FF14
:1059A00043004FEAD30C4FEA3C0C43401FBF400773
:1059B0000CF1605113F0FE4F70471CF0006F03D1E3
:1059C00000200CF0004170470CF0004343EA507097
:1059D00010B540EACC0000F00EF800BF00000092C5
:1059E0004FEA0001FFF714BE4FF000414FF00000F6
:1059F000A1F5002170470EF1020E2EF0030E5EF8A5
:105A0000044B244204D44FEA4102B2F17F4F11D833
:105A10004FEA4003B3F17F4F0CD80ED14FEAD07C50
:105A2000B2F17F4F0CEB4C0C0CF1020C08BF4CEBAD
:105A3000D17C04E04FF0080C01E04FEAD17C0CEB84
:105A40004C0324FA03F404F00704B4F1040C06D266
:105A50000EEB840CBDE810404CF0010C6047DFE811
:105A60000CF0070802024FF00040A0F5800010BDC6
:105A70000846420018BFD2F1807288BF00F0004093
:105A800010BD4FF04070E1EE100A7047FF2141EA6F
:105A9000D050C0057047000000000000000000006A
:105AA000000000000000000000F8000000000000FE
:105AB00000333000000000100C06100C060000003F
:105AC00000000000000040C07840C0784000043F63
:105AD00004043F040400007088FC08300000001833
